{
  "_format": "hh-sol-artifact-1",
  "contractName": "BankOwnable",
  "sourceName": "contracts/test/BankOwnable.sol",
  "abi": [
    {
      "inputs": [],
      "stateMutability": "payable",
      "type": "constructor"
    },
    {
      "inputs": [],
      "name": "AlreadyInitalized",
      "type": "error"
    },
    {
      "anonymous": false,
      "inputs": [
        {
          "indexed": true,
          "internalType": "address",
          "name": "previousOwner",
          "type": "address"
        },
        {
          "indexed": true,
          "internalType": "address",
          "name": "newOwner",
          "type": "address"
        }
      ],
      "name": "OwnershipTransferred",
      "type": "event"
    },
    {
      "inputs": [],
      "name": "balance",
      "outputs": [
        {
          "internalType": "uint256",
          "name": "",
          "type": "uint256"
        }
      ],
      "stateMutability": "view",
      "type": "function"
    },
    {
      "inputs": [],
      "name": "deposit",
      "outputs": [],
      "stateMutability": "payable",
      "type": "function"
    },
    {
      "inputs": [
        {
          "internalType": "string",
          "name": "_name",
          "type": "string"
        }
      ],
      "name": "initalize",
      "outputs": [],
      "stateMutability": "nonpayable",
      "type": "function"
    },
    {
      "inputs": [],
      "name": "initialized",
      "outputs": [
        {
          "internalType": "bool",
          "name": "",
          "type": "bool"
        }
      ],
      "stateMutability": "view",
      "type": "function"
    },
    {
      "inputs": [],
      "name": "name",
      "outputs": [
        {
          "internalType": "string",
          "name": "",
          "type": "string"
        }
      ],
      "stateMutability": "view",
      "type": "function"
    },
    {
      "inputs": [],
      "name": "owner",
      "outputs": [
        {
          "internalType": "address",
          "name": "",
          "type": "address"
        }
      ],
      "stateMutability": "view",
      "type": "function"
    },
    {
      "inputs": [],
      "name": "renounceOwnership",
      "outputs": [],
      "stateMutability": "nonpayable",
      "type": "function"
    },
    {
      "inputs": [
        {
          "internalType": "address",
          "name": "newOwner",
          "type": "address"
        }
      ],
      "name": "transferOwnership",
      "outputs": [],
      "stateMutability": "nonpayable",
      "type": "function"
    },
    {
      "inputs": [
        {
          "internalType": "uint256",
          "name": "amount",
          "type": "uint256"
        }
      ],
      "name": "withdraw",
      "outputs": [],
      "stateMutability": "nonpayable",
      "type": "function"
    }
  ],
  "bytecode": "0x60806040526003805460ff1916905561001733610020565b34600155610070565b600080546001600160a01b038381166001600160a01b0319831681178455604051919092169283917f8be0079c531659141344cd1fd0a4f28419497f9722a3daafe3b4186f6b6457e09190a35050565b6108008061007f6000396000f3fe6080604052600436106100965760003560e01c80638da5cb5b11610069578063d0e30db01161004e578063d0e30db014610173578063dd6761891461017b578063f2fde38b1461019b57600080fd5b80638da5cb5b14610127578063b69ef8a81461014f57600080fd5b806306fdde031461009b578063158ef93e146100c65780632e1a7d4d146100f0578063715018a614610112575b600080fd5b3480156100a757600080fd5b506100b06101bb565b6040516100bd91906104e2565b60405180910390f35b3480156100d257600080fd5b506003546100e09060ff1681565b60405190151581526020016100bd565b3480156100fc57600080fd5b5061011061010b366004610530565b610249565b005b34801561011e57600080fd5b506101106102f3565b34801561013357600080fd5b506000546040516001600160a01b0390911681526020016100bd565b34801561015b57600080fd5b5061016560015481565b6040519081526020016100bd565b610110610307565b34801561018757600080fd5b5061011061019636600461055f565b61032e565b3480156101a757600080fd5b506101106101b6366004610610565b610390565b600280546101c890610640565b80601f01602080910402602001604051908101604052809291908181526020018280546101f490610640565b80156102415780601f1061021657610100808354040283529160200191610241565b820191906000526020600020905b81548152906001019060200180831161022457829003601f168201915b505050505081565b610251610420565b6001548111156102a85760405162461bcd60e51b815260206004820152601360248201527f746f6f206d756368207769746864726177616c0000000000000000000000000060448201526064015b60405180910390fd5b80600160008282546102ba9190610690565b90915550506040513390819083156108fc029084906000818181858888f193505050501580156102ee573d6000803e3d6000fd5b505050565b6102fb610420565b610305600061047a565b565b61030f610420565b6000349050806001600082825461032691906106a9565b909155505050565b610336610420565b60035460ff1615610373576040517fdeabda2100000000000000000000000000000000000000000000000000000000815260040160405180910390fd5b6003805460ff19166001179055600261038c828261070a565b5050565b610398610420565b6001600160a01b0381166104145760405162461bcd60e51b815260206004820152602660248201527f4f776e61626c653a206e6577206f776e657220697320746865207a65726f206160448201527f6464726573730000000000000000000000000000000000000000000000000000606482015260840161029f565b61041d8161047a565b50565b6000546001600160a01b031633146103055760405162461bcd60e51b815260206004820181905260248201527f4f776e61626c653a2063616c6c6572206973206e6f7420746865206f776e6572604482015260640161029f565b600080546001600160a01b038381167fffffffffffffffffffffffff0000000000000000000000000000000000000000831681178455604051919092169283917f8be0079c531659141344cd1fd0a4f28419497f9722a3daafe3b4186f6b6457e09190a35050565b600060208083528351808285015260005b8181101561050f578581018301518582016040015282016104f3565b506000604082860101526040601f19601f8301168501019250505092915050565b60006020828403121561054257600080fd5b5035919050565b634e487b7160e01b600052604160045260246000fd5b60006020828403121561057157600080fd5b813567ffffffffffffffff8082111561058957600080fd5b818401915084601f83011261059d57600080fd5b8135818111156105af576105af610549565b604051601f8201601f19908116603f011681019083821181831017156105d7576105d7610549565b816040528281528760208487010111156105f057600080fd5b826020860160208301376000928101602001929092525095945050505050565b60006020828403121561062257600080fd5b81356001600160a01b038116811461063957600080fd5b9392505050565b600181811c9082168061065457607f821691505b60208210810361067457634e487b7160e01b600052602260045260246000fd5b50919050565b634e487b7160e01b600052601160045260246000fd5b818103818111156106a3576106a361067a565b92915050565b808201808211156106a3576106a361067a565b601f8211156102ee57600081815260208120601f850160051c810160208610156106e35750805b601f850160051c820191505b81811015610702578281556001016106ef565b505050505050565b815167ffffffffffffffff81111561072457610724610549565b610738816107328454610640565b846106bc565b602080601f83116001811461076d57600084156107555750858301515b600019600386901b1c1916600185901b178555610702565b600085815260208120601f198616915b8281101561079c5788860151825594840194600190910190840161077d565b50858210156107ba5787850151600019600388901b60f8161c191681555b5050505050600190811b0190555056fea26469706673582212202875b4ca404834e05865114ec739d92abfb8bb6cdfec71b4f3bb5410e67e113e64736f6c63430008130033",
  "linkReferences": {},
  "deployedLinkReferences": {}
}