{
  "_format": "hh-sol-artifact-1",
  "contractName": "PermissionedContractFactory",
  "sourceName": "contracts/PermissionedContractFactory.sol",
  "abi": [
    {
      "inputs": [
        {
          "internalType": "address[]",
          "name": "admins",
          "type": "address[]"
        },
        {
          "internalType": "address[]",
          "name": "creators",
          "type": "address[]"
        }
      ],
      "stateMutability": "nonpayable",
      "type": "constructor"
    },
    {
      "anonymous": false,
      "inputs": [
        {
          "indexed": false,
          "internalType": "address",
          "name": "creator",
          "type": "address"
        },
        {
          "indexed": false,
          "internalType": "uint256",
          "name": "amount",
          "type": "uint256"
        },
        {
          "indexed": false,
          "internalType": "bytes32",
          "name": "salt",
          "type": "bytes32"
        },
        {
          "indexed": false,
          "internalType": "bytes",
          "name": "bytecode",
          "type": "bytes"
        },
        {
          "indexed": false,
          "internalType": "address",
          "name": "newContract",
          "type": "address"
        }
      ],
      "name": "ContractCreated",
      "type": "event"
    },
    {
      "anonymous": false,
      "inputs": [
        {
          "indexed": true,
          "internalType": "address",
          "name": "creator",
          "type": "address"
        },
        {
          "indexed": false,
          "internalType": "address",
          "name": "createdAddress",
          "type": "address"
        },
        {
          "indexed": false,
          "internalType": "string",
          "name": "tag",
          "type": "string"
        }
      ],
      "name": "Registerd",
      "type": "event"
    },
    {
      "anonymous": false,
      "inputs": [
        {
          "indexed": true,
          "internalType": "bytes32",
          "name": "role",
          "type": "bytes32"
        },
        {
          "indexed": true,
          "internalType": "bytes32",
          "name": "previousAdminRole",
          "type": "bytes32"
        },
        {
          "indexed": true,
          "internalType": "bytes32",
          "name": "newAdminRole",
          "type": "bytes32"
        }
      ],
      "name": "RoleAdminChanged",
      "type": "event"
    },
    {
      "anonymous": false,
      "inputs": [
        {
          "indexed": true,
          "internalType": "bytes32",
          "name": "role",
          "type": "bytes32"
        },
        {
          "indexed": true,
          "internalType": "address",
          "name": "account",
          "type": "address"
        },
        {
          "indexed": true,
          "internalType": "address",
          "name": "sender",
          "type": "address"
        }
      ],
      "name": "RoleGranted",
      "type": "event"
    },
    {
      "anonymous": false,
      "inputs": [
        {
          "indexed": true,
          "internalType": "bytes32",
          "name": "role",
          "type": "bytes32"
        },
        {
          "indexed": true,
          "internalType": "address",
          "name": "account",
          "type": "address"
        },
        {
          "indexed": true,
          "internalType": "address",
          "name": "sender",
          "type": "address"
        }
      ],
      "name": "RoleRevoked",
      "type": "event"
    },
    {
      "inputs": [],
      "name": "CONTRACT_CREATOR_ROLE",
      "outputs": [
        {
          "internalType": "bytes32",
          "name": "",
          "type": "bytes32"
        }
      ],
      "stateMutability": "view",
      "type": "function"
    },
    {
      "inputs": [],
      "name": "DEFAULT_ADMIN_ROLE",
      "outputs": [
        {
          "internalType": "bytes32",
          "name": "",
          "type": "bytes32"
        }
      ],
      "stateMutability": "view",
      "type": "function"
    },
    {
      "inputs": [
        {
          "components": [
            {
              "internalType": "uint256",
              "name": "amount",
              "type": "uint256"
            },
            {
              "internalType": "bytes32",
              "name": "salt",
              "type": "bytes32"
            },
            {
              "internalType": "bytes",
              "name": "bytecode",
              "type": "bytes"
            },
            {
              "internalType": "address",
              "name": "expected",
              "type": "address"
            },
            {
              "internalType": "string",
              "name": "tag",
              "type": "string"
            }
          ],
          "internalType": "struct PermissionedContractFactory.DeployContract[]",
          "name": "deployContracts",
          "type": "tuple[]"
        }
      ],
      "name": "bulkCreate",
      "outputs": [],
      "stateMutability": "payable",
      "type": "function"
    },
    {
      "inputs": [
        {
          "internalType": "uint256",
          "name": "amount",
          "type": "uint256"
        },
        {
          "internalType": "bytes32",
          "name": "salt",
          "type": "bytes32"
        },
        {
          "internalType": "bytes",
          "name": "bytecode",
          "type": "bytes"
        },
        {
          "internalType": "address",
          "name": "expected",
          "type": "address"
        },
        {
          "internalType": "string",
          "name": "tag",
          "type": "string"
        }
      ],
      "name": "create",
      "outputs": [
        {
          "internalType": "address",
          "name": "addr",
          "type": "address"
        }
      ],
      "stateMutability": "payable",
      "type": "function"
    },
    {
      "inputs": [
        {
          "internalType": "bytes32",
          "name": "salt",
          "type": "bytes32"
        },
        {
          "internalType": "bytes",
          "name": "bytecode",
          "type": "bytes"
        }
      ],
      "name": "getDeploymentAddress",
      "outputs": [
        {
          "internalType": "address",
          "name": "addr",
          "type": "address"
        }
      ],
      "stateMutability": "view",
      "type": "function"
    },
    {
      "inputs": [
        {
          "internalType": "address",
          "name": "createdAddress",
          "type": "address"
        }
      ],
      "name": "getMetadata",
      "outputs": [
        {
          "components": [
            {
              "internalType": "address",
              "name": "createdAddress",
              "type": "address"
            },
            {
              "internalType": "address",
              "name": "creator",
              "type": "address"
            },
            {
              "internalType": "string",
              "name": "tag",
              "type": "string"
            }
          ],
          "internalType": "struct ContractMetadataRegistory.ContractMetadata",
          "name": "meta",
          "type": "tuple"
        }
      ],
      "stateMutability": "view",
      "type": "function"
    },
    {
      "inputs": [
        {
          "internalType": "uint256",
          "name": "index",
          "type": "uint256"
        }
      ],
      "name": "getMetadataByIndex",
      "outputs": [
        {
          "components": [
            {
              "internalType": "address",
              "name": "createdAddress",
              "type": "address"
            },
            {
              "internalType": "address",
              "name": "creator",
              "type": "address"
            },
            {
              "internalType": "string",
              "name": "tag",
              "type": "string"
            }
          ],
          "internalType": "struct ContractMetadataRegistory.ContractMetadata",
          "name": "meta",
          "type": "tuple"
        }
      ],
      "stateMutability": "view",
      "type": "function"
    },
    {
      "inputs": [
        {
          "internalType": "bytes32",
          "name": "role",
          "type": "bytes32"
        }
      ],
      "name": "getRoleAdmin",
      "outputs": [
        {
          "internalType": "bytes32",
          "name": "",
          "type": "bytes32"
        }
      ],
      "stateMutability": "view",
      "type": "function"
    },
    {
      "inputs": [
        {
          "internalType": "bytes32",
          "name": "role",
          "type": "bytes32"
        },
        {
          "internalType": "address",
          "name": "account",
          "type": "address"
        }
      ],
      "name": "grantRole",
      "outputs": [],
      "stateMutability": "nonpayable",
      "type": "function"
    },
    {
      "inputs": [
        {
          "internalType": "bytes32",
          "name": "role",
          "type": "bytes32"
        },
        {
          "internalType": "address",
          "name": "account",
          "type": "address"
        }
      ],
      "name": "hasRole",
      "outputs": [
        {
          "internalType": "bool",
          "name": "",
          "type": "bool"
        }
      ],
      "stateMutability": "view",
      "type": "function"
    },
    {
      "inputs": [
        {
          "internalType": "bytes32",
          "name": "role",
          "type": "bytes32"
        },
        {
          "internalType": "address",
          "name": "account",
          "type": "address"
        }
      ],
      "name": "renounceRole",
      "outputs": [],
      "stateMutability": "nonpayable",
      "type": "function"
    },
    {
      "inputs": [
        {
          "internalType": "bytes32",
          "name": "role",
          "type": "bytes32"
        },
        {
          "internalType": "address",
          "name": "account",
          "type": "address"
        }
      ],
      "name": "revokeRole",
      "outputs": [],
      "stateMutability": "nonpayable",
      "type": "function"
    },
    {
      "inputs": [
        {
          "internalType": "bytes4",
          "name": "interfaceId",
          "type": "bytes4"
        }
      ],
      "name": "supportsInterface",
      "outputs": [
        {
          "internalType": "bool",
          "name": "",
          "type": "bool"
        }
      ],
      "stateMutability": "view",
      "type": "function"
    },
    {
      "inputs": [],
      "name": "totalCreatedContract",
      "outputs": [
        {
          "internalType": "uint256",
          "name": "",
          "type": "uint256"
        }
      ],
      "stateMutability": "view",
      "type": "function"
    }
  ],
  "bytecode": "0x60806040523480156200001157600080fd5b5060405162001d7038038062001d708339810160408190526200003491620003eb565b6200004160008062000210565b6200005d60008051602062001d50833981519152600062000210565b60005b82518160ff161015620001325760006001600160a01b0316838260ff168151811062000090576200009062000455565b60200260200101516001600160a01b031603620000e95760405162461bcd60e51b81526020600482015260126024820152715043433a2061646d696e206973207a65726f60701b60448201526064015b60405180910390fd5b6200011d6000801b848360ff168151811062000109576200010962000455565b60200260200101516200025b60201b60201c565b8062000129816200046b565b91505062000060565b5060005b81518160ff161015620002075760006001600160a01b0316828260ff168151811062000166576200016662000455565b60200260200101516001600160a01b031603620001c65760405162461bcd60e51b815260206004820152601460248201527f5043433a2063726561746f72206973207a65726f0000000000000000000000006044820152606401620000e0565b620001f260008051602062001d50833981519152838360ff168151811062000109576200010962000455565b80620001fe816200046b565b91505062000136565b50505062000499565b600082815260208190526040808220600101805490849055905190918391839186917fbd79b86ffe0ab8e8776151514217cd7cacd52c909f66475c3af44e129f0b00ff9190a4505050565b6200026782826200026b565b5050565b6000828152602081815260408083206001600160a01b038516845290915290205460ff1662000267576000828152602081815260408083206001600160a01b03851684529091529020805460ff19166001179055620002c73390565b6001600160a01b0316816001600160a01b0316837f2f8788117e7eff1d82e926ec794901d17c78024a50270940304540a733656f0d60405160405180910390a45050565b634e487b7160e01b600052604160045260246000fd5b80516001600160a01b03811681146200033957600080fd5b919050565b600082601f8301126200035057600080fd5b815160206001600160401b03808311156200036f576200036f6200030b565b8260051b604051601f19603f830116810181811084821117156200039757620003976200030b565b604052938452858101830193838101925087851115620003b657600080fd5b83870191505b84821015620003e057620003d08262000321565b83529183019190830190620003bc565b979650505050505050565b60008060408385031215620003ff57600080fd5b82516001600160401b03808211156200041757600080fd5b62000425868387016200033e565b935060208501519150808211156200043c57600080fd5b506200044b858286016200033e565b9150509250929050565b634e487b7160e01b600052603260045260246000fd5b600060ff821660ff81036200049057634e487b7160e01b600052601160045260246000fd5b60010192915050565b6118a780620004a96000396000f3fe6080604052600436106100dd5760003560e01c806336568abe1161007f57806391d148541161005957806391d148541461026b578063a217fddf146102af578063d547741f146102c4578063da58f37e146102e457600080fd5b806336568abe146102235780634de79ecc1461024357806365ddb0171461025857600080fd5b8063248a9ca3116100bb578063248a9ca3146101915780632a50c146146101c15780632ec9aa7f146101ee5780632f2ff15d1461020357600080fd5b806301ffc9a7146100e257806309b1eca6146101175780630b19429e1461014f575b600080fd5b3480156100ee57600080fd5b506101026100fd3660046111a5565b610304565b60405190151581526020015b60405180910390f35b34801561012357600080fd5b5061013761013236600461128a565b61039d565b6040516001600160a01b03909116815260200161010e565b34801561015b57600080fd5b506101837f0d8b58cba732a42811e1f217ab43cccb14f1a8263ebb61afbf13838fcdae9df981565b60405190815260200161010e565b34801561019d57600080fd5b506101836101ac3660046112d1565b60009081526020819052604090206001015490565b3480156101cd57600080fd5b506101e16101dc366004611301565b6103b8565b60405161010e919061136c565b6102016101fc3660046113b0565b61050b565b005b34801561020f57600080fd5b5061020161021e366004611425565b610773565b34801561022f57600080fd5b5061020161023e366004611425565b61079d565b34801561024f57600080fd5b50600154610183565b610137610266366004611451565b610829565b34801561027757600080fd5b50610102610286366004611425565b6000918252602082815260408084206001600160a01b0393909316845291905290205460ff1690565b3480156102bb57600080fd5b50610183600081565b3480156102d057600080fd5b506102016102df366004611425565b6108be565b3480156102f057600080fd5b506101e16102ff3660046112d1565b6108e3565b60007fffffffff0000000000000000000000000000000000000000000000000000000082167f7965db0b00000000000000000000000000000000000000000000000000000000148061039757507f01ffc9a7000000000000000000000000000000000000000000000000000000007fffffffff000000000000000000000000000000000000000000000000000000008316145b92915050565b60006103b183838051906020012030610a56565b9392505050565b604080516060808201835260008083526020830152918101919091526001600160a01b038083166000908152600260208181526040928390208351606081018552815486168152600182015490951691850191909152908101805491928401916104219061150b565b80601f016020809104026020016040519081016040528092919081815260200182805461044d9061150b565b801561049a5780601f1061046f5761010080835404028352916020019161049a565b820191906000526020600020905b81548152906001019060200180831161047d57829003601f168201915b5050509190925250505060208101519091506001600160a01b03166105065760405162461bcd60e51b815260206004820152600960248201527f6e6f7420666f756e64000000000000000000000000000000000000000000000060448201526064015b60405180910390fd5b919050565b7f0d8b58cba732a42811e1f217ab43cccb14f1a8263ebb61afbf13838fcdae9df961053581610a80565b3460005b8381101561071e578185858381811061055457610554611545565b9050602002810190610566919061155b565b3511156105b55760405162461bcd60e51b815260206004820152601d60248201527f5043433a20696e73756666696369656e7420616d6f756e742073656e7400000060448201526064016104fd565b8484828181106105c7576105c7611545565b90506020028101906105d9919061155b565b6105e4903583611591565b915061070b8585838181106105fb576105fb611545565b905060200281019061060d919061155b565b3586868481811061062057610620611545565b9050602002810190610632919061155b565b6020013587878581811061064857610648611545565b905060200281019061065a919061155b565b6106689060408101906115a4565b8080601f0160208091040260200160405190810160405280939291908181526020018383808284376000920191909152508b92508a91508790508181106106b1576106b1611545565b90506020028101906106c3919061155b565b6106d4906080810190606001611301565b8989878181106106e6576106e6611545565b90506020028101906106f8919061155b565b6107069060808101906115a4565b610a8d565b5080610716816115f2565b915050610539565b50801561076d5760405162461bcd60e51b815260206004820152601960248201527f5043433a20746f6f206d75636820616d6f756e742073656e740000000000000060448201526064016104fd565b50505050565b60008281526020819052604090206001015461078e81610a80565b6107988383610b52565b505050565b6001600160a01b038116331461081b5760405162461bcd60e51b815260206004820152602f60248201527f416363657373436f6e74726f6c3a2063616e206f6e6c792072656e6f756e636560448201527f20726f6c657320666f722073656c66000000000000000000000000000000000060648201526084016104fd565b6108258282610bf0565b5050565b60007f0d8b58cba732a42811e1f217ab43cccb14f1a8263ebb61afbf13838fcdae9df961085581610a80565b8734146108a45760405162461bcd60e51b815260206004820152601a60248201527f5043433a20696e636f727265637420616d6f756e742073656e7400000000000060448201526064016104fd565b6108b2888888888888610a8d565b98975050505050505050565b6000828152602081905260409020600101546108d981610a80565b6107988383610bf0565b6040805160608082018352600080835260208301529181019190915260015461090d83600161160b565b111561095b5760405162461bcd60e51b815260206004820152601260248201527f696e646578206f7574206f662072616e6765000000000000000000000000000060448201526064016104fd565b600260006001848154811061097257610972611545565b60009182526020808320909101546001600160a01b039081168452838201949094526040928301909120825160608101845281548516815260018201549094169184019190915260028101805491928401916109cd9061150b565b80601f01602080910402602001604051908101604052809291908181526020018280546109f99061150b565b8015610a465780601f10610a1b57610100808354040283529160200191610a46565b820191906000526020600020905b815481529060010190602001808311610a2957829003601f168201915b5050505050815250509050919050565b6000604051836040820152846020820152828152600b8101905060ff815360559020949350505050565b610a8a8133610c6f565b50565b6000610a9a878787610ce2565b9050836001600160a01b0316816001600160a01b031614610afd5760405162461bcd60e51b815260206004820152601760248201527f5043433a20756e6578706563746564206164647265737300000000000000000060448201526064016104fd565b7f388d923fb867b31389c9da49a5a9b552bd44cde0717beb38a215d99ef09778db3388888885604051610b3495949392919061161e565b60405180910390a1610b4881338585610de6565b9695505050505050565b6000828152602081815260408083206001600160a01b038516845290915290205460ff16610825576000828152602081815260408083206001600160a01b03851684529091529020805460ff19166001179055610bac3390565b6001600160a01b0316816001600160a01b0316837f2f8788117e7eff1d82e926ec794901d17c78024a50270940304540a733656f0d60405160405180910390a45050565b6000828152602081815260408083206001600160a01b038516845290915290205460ff1615610825576000828152602081815260408083206001600160a01b0385168085529252808320805460ff1916905551339285917ff6391f5c32d9c69d2a47ea670b442974b53935d1edc7fd64eb21e047a839171b9190a45050565b6000828152602081815260408083206001600160a01b038516845290915290205460ff1661082557610ca081610fb2565b610cab836020610fc4565b604051602001610cbc929190611662565b60408051601f198184030181529082905262461bcd60e51b82526104fd916004016116e3565b600083471015610d345760405162461bcd60e51b815260206004820152601d60248201527f437265617465323a20696e73756666696369656e742062616c616e636500000060448201526064016104fd565b8151600003610d855760405162461bcd60e51b815260206004820181905260248201527f437265617465323a2062797465636f6465206c656e677468206973207a65726f60448201526064016104fd565b8282516020840186f590506001600160a01b0381166103b15760405162461bcd60e51b815260206004820152601960248201527f437265617465323a204661696c6564206f6e206465706c6f790000000000000060448201526064016104fd565b6001600160a01b038481166000908152600260205260409020600101541615610e515760405162461bcd60e51b815260206004820152601260248201527f616c72656164792072656769737465726564000000000000000000000000000060448201526064016104fd565b826001600160a01b03167f8d3f2558914d24d1627609279aec4a8b1033bb2e86f4fc8118aba14785e3fc39858484604051610e8e939291906116f6565b60405180910390a26001805480820182556000919091527fb10e2d527612073b26eecdfd717e6a320cf44b4afac2b0732d9fcbe2b7fa0cf601805473ffffffffffffffffffffffffffffffffffffffff19166001600160a01b03868116918217909255604080516060810182529182529185166020808301919091528251601f85018290048202810182018452848152919283019190859085908190840183828082843760009201829052509390945250506001600160a01b038088168252600260208181526040938490208651815490851673ffffffffffffffffffffffffffffffffffffffff1991821617825591870151600182018054919095169216919091179092559184015190925090820190610fa99082611783565b50505050505050565b60606103976001600160a01b03831660145b60606000610fd3836002611843565b610fde90600261160b565b67ffffffffffffffff811115610ff657610ff66111e7565b6040519080825280601f01601f191660200182016040528015611020576020820181803683370190505b5090507f30000000000000000000000000000000000000000000000000000000000000008160008151811061105757611057611545565b60200101906001600160f81b031916908160001a9053507f7800000000000000000000000000000000000000000000000000000000000000816001815181106110a2576110a2611545565b60200101906001600160f81b031916908160001a90535060006110c6846002611843565b6110d190600161160b565b90505b6001811115611156577f303132333435363738396162636465660000000000000000000000000000000085600f166010811061111257611112611545565b1a60f81b82828151811061112857611128611545565b60200101906001600160f81b031916908160001a90535060049490941c9361114f8161185a565b90506110d4565b5083156103b15760405162461bcd60e51b815260206004820181905260248201527f537472696e67733a20686578206c656e67746820696e73756666696369656e7460448201526064016104fd565b6000602082840312156111b757600080fd5b81357fffffffff00000000000000000000000000000000000000000000000000000000811681146103b157600080fd5b634e487b7160e01b600052604160045260246000fd5b600082601f83011261120e57600080fd5b813567ffffffffffffffff80821115611229576112296111e7565b604051601f8301601f19908116603f01168101908282118183101715611251576112516111e7565b8160405283815286602085880101111561126a57600080fd5b836020870160208301376000602085830101528094505050505092915050565b6000806040838503121561129d57600080fd5b82359150602083013567ffffffffffffffff8111156112bb57600080fd5b6112c7858286016111fd565b9150509250929050565b6000602082840312156112e357600080fd5b5035919050565b80356001600160a01b038116811461050657600080fd5b60006020828403121561131357600080fd5b6103b1826112ea565b60005b8381101561133757818101518382015260200161131f565b50506000910152565b6000815180845261135881602086016020860161131c565b601f01601f19169290920160200192915050565b6020815260006001600160a01b038084511660208401528060208501511660408401525060408301516060808401526113a86080840182611340565b949350505050565b600080602083850312156113c357600080fd5b823567ffffffffffffffff808211156113db57600080fd5b818501915085601f8301126113ef57600080fd5b8135818111156113fe57600080fd5b8660208260051b850101111561141357600080fd5b60209290920196919550909350505050565b6000806040838503121561143857600080fd5b82359150611448602084016112ea565b90509250929050565b60008060008060008060a0878903121561146a57600080fd5b8635955060208701359450604087013567ffffffffffffffff8082111561149057600080fd5b61149c8a838b016111fd565b95506114aa60608a016112ea565b945060808901359150808211156114c057600080fd5b818901915089601f8301126114d457600080fd5b8135818111156114e357600080fd5b8a60208285010111156114f557600080fd5b6020830194508093505050509295509295509295565b600181811c9082168061151f57607f821691505b60208210810361153f57634e487b7160e01b600052602260045260246000fd5b50919050565b634e487b7160e01b600052603260045260246000fd5b60008235609e1983360301811261157157600080fd5b9190910192915050565b634e487b7160e01b600052601160045260246000fd5b818103818111156103975761039761157b565b6000808335601e198436030181126115bb57600080fd5b83018035915067ffffffffffffffff8211156115d657600080fd5b6020019150368190038213156115eb57600080fd5b9250929050565b6000600182016116045761160461157b565b5060010190565b808201808211156103975761039761157b565b60006001600160a01b03808816835286602084015285604084015260a0606084015261164d60a0840186611340565b91508084166080840152509695505050505050565b7f416363657373436f6e74726f6c3a206163636f756e742000000000000000000081526000835161169a81601785016020880161131c565b7f206973206d697373696e6720726f6c652000000000000000000000000000000060179184019182015283516116d781602884016020880161131c565b01602801949350505050565b6020815260006103b16020830184611340565b6001600160a01b038416815260406020820152816040820152818360608301376000818301606090810191909152601f909201601f1916010192915050565b601f82111561079857600081815260208120601f850160051c8101602086101561175c5750805b601f850160051c820191505b8181101561177b57828155600101611768565b505050505050565b815167ffffffffffffffff81111561179d5761179d6111e7565b6117b1816117ab845461150b565b84611735565b602080601f8311600181146117e657600084156117ce5750858301515b600019600386901b1c1916600185901b17855561177b565b600085815260208120601f198616915b82811015611815578886015182559484019460019091019084016117f6565b50858210156118335787850151600019600388901b60f8161c191681555b5050505050600190811b01905550565b80820281158282048414176103975761039761157b565b6000816118695761186961157b565b50600019019056fea26469706673582212205f8f20e503d5fe10fdfa36328db813b01f866f2527b18666858cf521d08dec6b64736f6c634300081300330d8b58cba732a42811e1f217ab43cccb14f1a8263ebb61afbf13838fcdae9df9",
  "linkReferences": {},
  "deployedLinkReferences": {}
}