{
  "_format": "hh-sol-artifact-1",
  "contractName": "PermissionedContractFactory",
  "sourceName": "contracts/PermissionedContractFactory.sol",
  "abi": [
    {
      "inputs": [
        {
          "internalType": "address[]",
          "name": "admins",
          "type": "address[]"
        },
        {
          "internalType": "address[]",
          "name": "creators",
          "type": "address[]"
        },
        {
          "internalType": "contract IContractMetadataRegistory",
          "name": "_prevRegistory",
          "type": "address"
        }
      ],
      "stateMutability": "nonpayable",
      "type": "constructor"
    },
    {
      "anonymous": false,
      "inputs": [
        {
          "indexed": false,
          "internalType": "address",
          "name": "creator",
          "type": "address"
        },
        {
          "indexed": false,
          "internalType": "uint256",
          "name": "amount",
          "type": "uint256"
        },
        {
          "indexed": false,
          "internalType": "bytes32",
          "name": "salt",
          "type": "bytes32"
        },
        {
          "indexed": false,
          "internalType": "bytes",
          "name": "bytecode",
          "type": "bytes"
        },
        {
          "indexed": false,
          "internalType": "address",
          "name": "newContract",
          "type": "address"
        }
      ],
      "name": "ContractCreated",
      "type": "event"
    },
    {
      "anonymous": false,
      "inputs": [
        {
          "indexed": true,
          "internalType": "address",
          "name": "creator",
          "type": "address"
        },
        {
          "indexed": false,
          "internalType": "address",
          "name": "createdAddress",
          "type": "address"
        },
        {
          "indexed": false,
          "internalType": "string",
          "name": "tag",
          "type": "string"
        }
      ],
      "name": "Registerd",
      "type": "event"
    },
    {
      "anonymous": false,
      "inputs": [
        {
          "indexed": true,
          "internalType": "bytes32",
          "name": "role",
          "type": "bytes32"
        },
        {
          "indexed": true,
          "internalType": "bytes32",
          "name": "previousAdminRole",
          "type": "bytes32"
        },
        {
          "indexed": true,
          "internalType": "bytes32",
          "name": "newAdminRole",
          "type": "bytes32"
        }
      ],
      "name": "RoleAdminChanged",
      "type": "event"
    },
    {
      "anonymous": false,
      "inputs": [
        {
          "indexed": true,
          "internalType": "bytes32",
          "name": "role",
          "type": "bytes32"
        },
        {
          "indexed": true,
          "internalType": "address",
          "name": "account",
          "type": "address"
        },
        {
          "indexed": true,
          "internalType": "address",
          "name": "sender",
          "type": "address"
        }
      ],
      "name": "RoleGranted",
      "type": "event"
    },
    {
      "anonymous": false,
      "inputs": [
        {
          "indexed": true,
          "internalType": "bytes32",
          "name": "role",
          "type": "bytes32"
        },
        {
          "indexed": true,
          "internalType": "address",
          "name": "account",
          "type": "address"
        },
        {
          "indexed": true,
          "internalType": "address",
          "name": "sender",
          "type": "address"
        }
      ],
      "name": "RoleRevoked",
      "type": "event"
    },
    {
      "inputs": [],
      "name": "CONTRACT_CREATOR_ROLE",
      "outputs": [
        {
          "internalType": "bytes32",
          "name": "",
          "type": "bytes32"
        }
      ],
      "stateMutability": "view",
      "type": "function"
    },
    {
      "inputs": [],
      "name": "DEFAULT_ADMIN_ROLE",
      "outputs": [
        {
          "internalType": "bytes32",
          "name": "",
          "type": "bytes32"
        }
      ],
      "stateMutability": "view",
      "type": "function"
    },
    {
      "inputs": [
        {
          "components": [
            {
              "internalType": "uint256",
              "name": "amount",
              "type": "uint256"
            },
            {
              "internalType": "bytes32",
              "name": "salt",
              "type": "bytes32"
            },
            {
              "internalType": "bytes",
              "name": "bytecode",
              "type": "bytes"
            },
            {
              "internalType": "address",
              "name": "expected",
              "type": "address"
            },
            {
              "internalType": "string",
              "name": "tag",
              "type": "string"
            },
            {
              "internalType": "bytes[]",
              "name": "afterCalldatas",
              "type": "bytes[]"
            }
          ],
          "internalType": "struct PermissionedContractFactory.DeployContract[]",
          "name": "deployContracts",
          "type": "tuple[]"
        }
      ],
      "name": "bulkCreate",
      "outputs": [],
      "stateMutability": "payable",
      "type": "function"
    },
    {
      "inputs": [
        {
          "internalType": "uint256",
          "name": "amount",
          "type": "uint256"
        },
        {
          "internalType": "bytes32",
          "name": "salt",
          "type": "bytes32"
        },
        {
          "internalType": "bytes",
          "name": "bytecode",
          "type": "bytes"
        },
        {
          "internalType": "address",
          "name": "expected",
          "type": "address"
        },
        {
          "internalType": "string",
          "name": "tag",
          "type": "string"
        },
        {
          "internalType": "bytes[]",
          "name": "afterCalldatas",
          "type": "bytes[]"
        }
      ],
      "name": "create",
      "outputs": [
        {
          "internalType": "address",
          "name": "addr",
          "type": "address"
        }
      ],
      "stateMutability": "payable",
      "type": "function"
    },
    {
      "inputs": [
        {
          "internalType": "bytes",
          "name": "bytecode",
          "type": "bytes"
        },
        {
          "internalType": "bytes32",
          "name": "salt",
          "type": "bytes32"
        }
      ],
      "name": "getDeploymentAddress",
      "outputs": [
        {
          "internalType": "address",
          "name": "addr",
          "type": "address"
        }
      ],
      "stateMutability": "view",
      "type": "function"
    },
    {
      "inputs": [
        {
          "internalType": "address",
          "name": "createdAddress",
          "type": "address"
        }
      ],
      "name": "getMetadata",
      "outputs": [
        {
          "components": [
            {
              "internalType": "address",
              "name": "createdAddress",
              "type": "address"
            },
            {
              "internalType": "address",
              "name": "creator",
              "type": "address"
            },
            {
              "internalType": "string",
              "name": "tag",
              "type": "string"
            }
          ],
          "internalType": "struct IContractMetadataRegistory.ContractMetadata",
          "name": "meta",
          "type": "tuple"
        }
      ],
      "stateMutability": "view",
      "type": "function"
    },
    {
      "inputs": [
        {
          "internalType": "uint256",
          "name": "index",
          "type": "uint256"
        }
      ],
      "name": "getMetadataByIndex",
      "outputs": [
        {
          "components": [
            {
              "internalType": "address",
              "name": "createdAddress",
              "type": "address"
            },
            {
              "internalType": "address",
              "name": "creator",
              "type": "address"
            },
            {
              "internalType": "string",
              "name": "tag",
              "type": "string"
            }
          ],
          "internalType": "struct IContractMetadataRegistory.ContractMetadata",
          "name": "",
          "type": "tuple"
        }
      ],
      "stateMutability": "view",
      "type": "function"
    },
    {
      "inputs": [
        {
          "internalType": "bytes32",
          "name": "role",
          "type": "bytes32"
        }
      ],
      "name": "getRoleAdmin",
      "outputs": [
        {
          "internalType": "bytes32",
          "name": "",
          "type": "bytes32"
        }
      ],
      "stateMutability": "view",
      "type": "function"
    },
    {
      "inputs": [
        {
          "internalType": "bytes32",
          "name": "role",
          "type": "bytes32"
        },
        {
          "internalType": "address",
          "name": "account",
          "type": "address"
        }
      ],
      "name": "grantRole",
      "outputs": [],
      "stateMutability": "nonpayable",
      "type": "function"
    },
    {
      "inputs": [
        {
          "internalType": "bytes32",
          "name": "role",
          "type": "bytes32"
        },
        {
          "internalType": "address",
          "name": "account",
          "type": "address"
        }
      ],
      "name": "hasRole",
      "outputs": [
        {
          "internalType": "bool",
          "name": "",
          "type": "bool"
        }
      ],
      "stateMutability": "view",
      "type": "function"
    },
    {
      "inputs": [],
      "name": "prevRegistory",
      "outputs": [
        {
          "internalType": "contract IContractMetadataRegistory",
          "name": "",
          "type": "address"
        }
      ],
      "stateMutability": "view",
      "type": "function"
    },
    {
      "inputs": [
        {
          "internalType": "bytes32",
          "name": "role",
          "type": "bytes32"
        },
        {
          "internalType": "address",
          "name": "account",
          "type": "address"
        }
      ],
      "name": "renounceRole",
      "outputs": [],
      "stateMutability": "nonpayable",
      "type": "function"
    },
    {
      "inputs": [
        {
          "internalType": "bytes32",
          "name": "role",
          "type": "bytes32"
        },
        {
          "internalType": "address",
          "name": "account",
          "type": "address"
        }
      ],
      "name": "revokeRole",
      "outputs": [],
      "stateMutability": "nonpayable",
      "type": "function"
    },
    {
      "inputs": [
        {
          "internalType": "bytes4",
          "name": "interfaceId",
          "type": "bytes4"
        }
      ],
      "name": "supportsInterface",
      "outputs": [
        {
          "internalType": "bool",
          "name": "",
          "type": "bool"
        }
      ],
      "stateMutability": "view",
      "type": "function"
    },
    {
      "inputs": [],
      "name": "totalCreatedContracFromThis",
      "outputs": [
        {
          "internalType": "uint256",
          "name": "total",
          "type": "uint256"
        }
      ],
      "stateMutability": "view",
      "type": "function"
    },
    {
      "inputs": [],
      "name": "totalCreatedContract",
      "outputs": [
        {
          "internalType": "uint256",
          "name": "total",
          "type": "uint256"
        }
      ],
      "stateMutability": "view",
      "type": "function"
    },
    {
      "inputs": [],
      "name": "version",
      "outputs": [
        {
          "internalType": "string",
          "name": "",
          "type": "string"
        }
      ],
      "stateMutability": "pure",
      "type": "function"
    }
  ],
  "bytecode": "0x60a06040523480156200001157600080fd5b506040516200257438038062002574833981016040819052620000349162000407565b6001600160a01b0381166080526200004e6000806200021e565b6200006a6000805160206200255483398151915260006200021e565b60005b83518160ff1610156200013f5760006001600160a01b0316848260ff16815181106200009d576200009d62000487565b60200260200101516001600160a01b031603620000f65760405162461bcd60e51b81526020600482015260126024820152715043433a2061646d696e206973207a65726f60701b60448201526064015b60405180910390fd5b6200012a6000801b858360ff168151811062000116576200011662000487565b60200260200101516200026960201b60201c565b8062000136816200049d565b9150506200006d565b5060005b82518160ff161015620002145760006001600160a01b0316838260ff168151811062000173576200017362000487565b60200260200101516001600160a01b031603620001d35760405162461bcd60e51b815260206004820152601460248201527f5043433a2063726561746f72206973207a65726f0000000000000000000000006044820152606401620000ed565b620001ff60008051602062002554833981519152848360ff168151811062000116576200011662000487565b806200020b816200049d565b91505062000143565b50505050620004cb565b600082815260208190526040808220600101805490849055905190918391839186917fbd79b86ffe0ab8e8776151514217cd7cacd52c909f66475c3af44e129f0b00ff9190a4505050565b62000275828262000279565b5050565b6000828152602081815260408083206001600160a01b038516845290915290205460ff1662000275576000828152602081815260408083206001600160a01b03851684529091529020805460ff19166001179055620002d53390565b6001600160a01b0316816001600160a01b0316837f2f8788117e7eff1d82e926ec794901d17c78024a50270940304540a733656f0d60405160405180910390a45050565b634e487b7160e01b600052604160045260246000fd5b6001600160a01b03811681146200034557600080fd5b50565b805162000355816200032f565b919050565b600082601f8301126200036c57600080fd5b815160206001600160401b03808311156200038b576200038b62000319565b8260051b604051601f19603f83011681018181108482111715620003b357620003b362000319565b604052938452858101830193838101925087851115620003d257600080fd5b83870191505b84821015620003fc57620003ec8262000348565b83529183019190830190620003d8565b979650505050505050565b6000806000606084860312156200041d57600080fd5b83516001600160401b03808211156200043557600080fd5b62000443878388016200035a565b945060208601519150808211156200045a57600080fd5b5062000469868287016200035a565b92505060408401516200047c816200032f565b809150509250925092565b634e487b7160e01b600052603260045260246000fd5b600060ff821660ff8103620004c257634e487b7160e01b600052601160045260246000fd5b60010192915050565b60805161205162000503600039600081816103a8015281816105de0152818161060501528181610c960152610cf601526120516000f3fe60806040526004361061010e5760003560e01c80634de79ecc116100a5578063a217fddf11610074578063d547741f11610059578063d547741f14610356578063da58f37e14610376578063f593ee351461039657600080fd5b8063a217fddf1461032e578063bd4a55a91461034357600080fd5b80634de79ecc1461027657806354fd4d501461028b578063794690e4146102d757806391d14854146102ea57600080fd5b80632a50c146116100e15780632a50c146146101cf5780632f2ff15d146101fc57806336568abe1461021e57806344f6fec71461023e57600080fd5b806301ffc9a7146101135780630b19429e146101485780632097ca281461018a578063248a9ca31461019f575b600080fd5b34801561011f57600080fd5b5061013361012e366004611711565b6103ca565b60405190151581526020015b60405180910390f35b34801561015457600080fd5b5061017c7f0d8b58cba732a42811e1f217ab43cccb14f1a8263ebb61afbf13838fcdae9df981565b60405190815260200161013f565b34801561019657600080fd5b5060015461017c565b3480156101ab57600080fd5b5061017c6101ba366004611753565b60009081526020819052604090206001015490565b3480156101db57600080fd5b506101ef6101ea366004611781565b610463565b60405161013f91906117ee565b34801561020857600080fd5b5061021c61021736600461182a565b6104db565b005b34801561022a57600080fd5b5061021c61023936600461182a565b610505565b34801561024a57600080fd5b5061025e6102593660046118a3565b610591565b6040516001600160a01b03909116815260200161013f565b34801561028257600080fd5b5061017c6105c7565b34801561029757600080fd5b50604080518082018252600581527f302e302e320000000000000000000000000000000000000000000000000000006020820152905161013f91906118ef565b61025e6102e5366004611947565b610695565b3480156102f657600080fd5b5061013361030536600461182a565b6000918252602082815260408084206001600160a01b0393909316845291905290205460ff1690565b34801561033a57600080fd5b5061017c600081565b61021c610351366004611a0b565b610744565b34801561036257600080fd5b5061021c61037136600461182a565b6109ee565b34801561038257600080fd5b506101ef610391366004611753565b610a13565b3480156103a257600080fd5b5061025e7f000000000000000000000000000000000000000000000000000000000000000081565b60007fffffffff0000000000000000000000000000000000000000000000000000000082167f7965db0b00000000000000000000000000000000000000000000000000000000148061045d57507f01ffc9a7000000000000000000000000000000000000000000000000000000007fffffffff000000000000000000000000000000000000000000000000000000008316145b92915050565b6040805160608082018352600080835260208301529181019190915261048882610b87565b60208101519091506001600160a01b03166104d65760405162461bcd60e51b81526020600482015260096024820152681b9bdd08199bdd5b9960ba1b60448201526064015b60405180910390fd5b919050565b6000828152602081905260409020600101546104f681610e30565b6105008383610e3d565b505050565b6001600160a01b03811633146105835760405162461bcd60e51b815260206004820152602f60248201527f416363657373436f6e74726f6c3a2063616e206f6e6c792072656e6f756e636560448201527f20726f6c657320666f722073656c66000000000000000000000000000000000060648201526084016104cd565b61058d8282610edb565b5050565b60006105bf6105a1858585610f5a565b85856040516105b1929190611a4d565b604051809103902030610faf565b949350505050565b60006105d260015490565b90506001600160a01b037f00000000000000000000000000000000000000000000000000000000000000001615610692577f00000000000000000000000000000000000000000000000000000000000000006001600160a01b0316634de79ecc6040518163ffffffff1660e01b8152600401602060405180830381865afa158015610661573d6000803e3d6000fd5b505050506040513d601f19601f820116820180604052508101906106859190611a5d565b61068f9082611a8c565b90505b90565b60007f0d8b58cba732a42811e1f217ab43cccb14f1a8263ebb61afbf13838fcdae9df96106c181610e30565b8a34146107105760405162461bcd60e51b815260206004820152601a60248201527f5043433a20696e636f727265637420616d6f756e742073656e7400000000000060448201526064016104cd565b6107298b61071f8b8b8e610f5a565b8b8b8b8b8b610fd9565b91506107368285856110d7565b509998505050505050505050565b7f0d8b58cba732a42811e1f217ab43cccb14f1a8263ebb61afbf13838fcdae9df961076e81610e30565b3460005b83811015610999578185858381811061078d5761078d611a9f565b905060200281019061079f9190611ab5565b3511156107ee5760405162461bcd60e51b815260206004820152601d60248201527f5043433a20696e73756666696369656e7420616d6f756e742073656e7400000060448201526064016104cd565b84848281811061080057610800611a9f565b90506020028101906108129190611ab5565b61081d903583611ad5565b9150600061094986868481811061083657610836611a9f565b90506020028101906108489190611ab5565b356108ab88888681811061085e5761085e611a9f565b90506020028101906108709190611ab5565b61087e906040810190611ae8565b8a8a8881811061089057610890611a9f565b90506020028101906108a29190611ab5565b60200135610f5a565b8888868181106108bd576108bd611a9f565b90506020028101906108cf9190611ab5565b6108dd906040810190611ae8565b8a8a888181106108ef576108ef611a9f565b90506020028101906109019190611ab5565b610912906080810190606001611781565b8b8b8981811061092457610924611a9f565b90506020028101906109369190611ab5565b610944906080810190611ae8565b610fd9565b90506109868187878581811061096157610961611a9f565b90506020028101906109739190611ab5565b6109819060a0810190611b2f565b6110d7565b508061099181611b79565b915050610772565b5080156109e85760405162461bcd60e51b815260206004820152601960248201527f5043433a20746f6f206d75636820616d6f756e742073656e740000000000000060448201526064016104cd565b50505050565b600082815260208190526040902060010154610a0981610e30565b6105008383610edb565b6040805160608082018352600080835260208301529181019190915260018054610a3d9190611ad5565b821115610a8c5760405162461bcd60e51b815260206004820152601260248201527f696e646578206f7574206f662072616e6765000000000000000000000000000060448201526064016104cd565b6002600060018481548110610aa357610aa3611a9f565b60009182526020808320909101546001600160a01b03908116845283820194909452604092830190912082516060810184528154851681526001820154909416918401919091526002810180549192840191610afe90611b92565b80601f0160208091040260200160405190810160405280929190818152602001828054610b2a90611b92565b8015610b775780601f10610b4c57610100808354040283529160200191610b77565b820191906000526020600020905b815481529060010190602001808311610b5a57829003601f168201915b5050505050815250509050919050565b604080516060808201835260008083526020830152918101919091526001600160a01b03808316600090815260026020818152604092839020835160608101855281548616815260018201549095169185019190915290810180549192840191610bf090611b92565b80601f0160208091040260200160405190810160405280929190818152602001828054610c1c90611b92565b8015610c695780601f10610c3e57610100808354040283529160200191610c69565b820191906000526020600020905b815481529060010190602001808311610c4c57829003601f168201915b5050509190925250505060208101519091506001600160a01b0316158015610cb957506001600160a01b037f00000000000000000000000000000000000000000000000000000000000000001615155b156104d6576040517f2a50c1460000000000000000000000000000000000000000000000000000000081526001600160a01b0383811660048301527f00000000000000000000000000000000000000000000000000000000000000001690632a50c14690602401600060405180830381865afa925050508015610d5e57506040513d6000823e601f3d908101601f19168201604052610d5b9190810190611c2f565b60015b61045d57610d6a611d1e565b806308c379a003610e245750610d7e611d39565b80610d895750610e26565b6040805180820190915260098152681b9bdd08199bdd5b9960ba1b6020918201528151908201207f9b887cfddc434e3cf41b666954131afc611b880c7637aac66ca1f629f8984c5b14610e1e5760405162461bcd60e51b815260206004820152601060248201527f756e6578706563746564206572726f720000000000000000000000000000000060448201526064016104cd565b50919050565b505b3d6000803e3d6000fd5b610e3a81336111da565b50565b6000828152602081815260408083206001600160a01b038516845290915290205460ff1661058d576000828152602081815260408083206001600160a01b03851684529091529020805460ff19166001179055610e973390565b6001600160a01b0316816001600160a01b0316837f2f8788117e7eff1d82e926ec794901d17c78024a50270940304540a733656f0d60405160405180910390a45050565b6000828152602081815260408083206001600160a01b038516845290915290205460ff161561058d576000828152602081815260408083206001600160a01b0385168085529252808320805460ff1916905551339285917ff6391f5c32d9c69d2a47ea670b442974b53935d1edc7fd64eb21e047a839171b9190a45050565b600081610fa557610fa084848080601f01602080910402602001604051908101604052809392919081815260200183838082843760009201919091525061124d92505050565b6105bf565b50805b9392505050565b6000604051836040820152846020820152828152600b8101905060ff815360559020949350505050565b600061101c888888888080601f01602080910402602001604051908101604052809392919081815260200183838082843760009201919091525061125492505050565b9050836001600160a01b0316816001600160a01b03161461107f5760405162461bcd60e51b815260206004820152601760248201527f5043433a20756e6578706563746564206164647265737300000000000000000060448201526064016104cd565b7f388d923fb867b31389c9da49a5a9b552bd44cde0717beb38a215d99ef09778db3389898989866040516110b896959493929190611dec565b60405180910390a16110cc81338585611358565b979650505050505050565b60005b818110156109e857600080856001600160a01b031685858581811061110157611101611a9f565b90506020028101906111139190611ae8565b604051611121929190611a4d565b6000604051808303816000865af19150503d806000811461115e576040519150601f19603f3d011682016040523d82523d6000602084013e611163565b606091505b5091509150816111c55780511561117d5780518082602001fd5b60405162461bcd60e51b815260206004820152601660248201527f5043433a2061667465722063616c6c206661696c65640000000000000000000060448201526064016104cd565b505080806111d290611b79565b9150506110da565b6000828152602081815260408083206001600160a01b038516845290915290205460ff1661058d5761120b8161151e565b611216836020611530565b604051602001611227929190611e32565b60408051601f198184030181529082905262461bcd60e51b82526104cd916004016118ef565b6020015190565b6000834710156112a65760405162461bcd60e51b815260206004820152601d60248201527f437265617465323a20696e73756666696369656e742062616c616e636500000060448201526064016104cd565b81516000036112f75760405162461bcd60e51b815260206004820181905260248201527f437265617465323a2062797465636f6465206c656e677468206973207a65726f60448201526064016104cd565b8282516020840186f590506001600160a01b038116610fa85760405162461bcd60e51b815260206004820152601960248201527f437265617465323a204661696c6564206f6e206465706c6f790000000000000060448201526064016104cd565b600061136385610b87565b602001516001600160a01b0316146113bd5760405162461bcd60e51b815260206004820152601260248201527f616c72656164792072656769737465726564000000000000000000000000000060448201526064016104cd565b826001600160a01b03167f8d3f2558914d24d1627609279aec4a8b1033bb2e86f4fc8118aba14785e3fc398584846040516113fa93929190611eb3565b60405180910390a26001805480820182556000919091527fb10e2d527612073b26eecdfd717e6a320cf44b4afac2b0732d9fcbe2b7fa0cf601805473ffffffffffffffffffffffffffffffffffffffff19166001600160a01b03868116918217909255604080516060810182529182529185166020808301919091528251601f85018290048202810182018452848152919283019190859085908190840183828082843760009201829052509390945250506001600160a01b038088168252600260208181526040938490208651815490851673ffffffffffffffffffffffffffffffffffffffff19918216178255918701516001820180549190951692169190911790925591840151909250908201906115159082611f2d565b50505050505050565b606061045d6001600160a01b03831660145b6060600061153f836002611fed565b61154a906002611a8c565b67ffffffffffffffff81111561156257611562611bc6565b6040519080825280601f01601f19166020018201604052801561158c576020820181803683370190505b5090507f3000000000000000000000000000000000000000000000000000000000000000816000815181106115c3576115c3611a9f565b60200101906001600160f81b031916908160001a9053507f78000000000000000000000000000000000000000000000000000000000000008160018151811061160e5761160e611a9f565b60200101906001600160f81b031916908160001a9053506000611632846002611fed565b61163d906001611a8c565b90505b60018111156116c2577f303132333435363738396162636465660000000000000000000000000000000085600f166010811061167e5761167e611a9f565b1a60f81b82828151811061169457611694611a9f565b60200101906001600160f81b031916908160001a90535060049490941c936116bb81612004565b9050611640565b508315610fa85760405162461bcd60e51b815260206004820181905260248201527f537472696e67733a20686578206c656e67746820696e73756666696369656e7460448201526064016104cd565b60006020828403121561172357600080fd5b81357fffffffff0000000000000000000000000000000000000000000000000000000081168114610fa857600080fd5b60006020828403121561176557600080fd5b5035919050565b6001600160a01b0381168114610e3a57600080fd5b60006020828403121561179357600080fd5b8135610fa88161176c565b60005b838110156117b95781810151838201526020016117a1565b50506000910152565b600081518084526117da81602086016020860161179e565b601f01601f19169290920160200192915050565b6020815260006001600160a01b038084511660208401528060208501511660408401525060408301516060808401526105bf60808401826117c2565b6000806040838503121561183d57600080fd5b82359150602083013561184f8161176c565b809150509250929050565b60008083601f84011261186c57600080fd5b50813567ffffffffffffffff81111561188457600080fd5b60208301915083602082850101111561189c57600080fd5b9250929050565b6000806000604084860312156118b857600080fd5b833567ffffffffffffffff8111156118cf57600080fd5b6118db8682870161185a565b909790965060209590950135949350505050565b602081526000610fa860208301846117c2565b60008083601f84011261191457600080fd5b50813567ffffffffffffffff81111561192c57600080fd5b6020830191508360208260051b850101111561189c57600080fd5b600080600080600080600080600060c08a8c03121561196557600080fd5b8935985060208a0135975060408a013567ffffffffffffffff8082111561198b57600080fd5b6119978d838e0161185a565b909950975060608c013591506119ac8261176c565b90955060808b013590808211156119c257600080fd5b6119ce8d838e0161185a565b909650945060a08c01359150808211156119e757600080fd5b506119f48c828d01611902565b915080935050809150509295985092959850929598565b60008060208385031215611a1e57600080fd5b823567ffffffffffffffff811115611a3557600080fd5b611a4185828601611902565b90969095509350505050565b8183823760009101908152919050565b600060208284031215611a6f57600080fd5b5051919050565b634e487b7160e01b600052601160045260246000fd5b8082018082111561045d5761045d611a76565b634e487b7160e01b600052603260045260246000fd5b6000823560be19833603018112611acb57600080fd5b9190910192915050565b8181038181111561045d5761045d611a76565b6000808335601e19843603018112611aff57600080fd5b83018035915067ffffffffffffffff821115611b1a57600080fd5b60200191503681900382131561189c57600080fd5b6000808335601e19843603018112611b4657600080fd5b83018035915067ffffffffffffffff821115611b6157600080fd5b6020019150600581901b360382131561189c57600080fd5b600060018201611b8b57611b8b611a76565b5060010190565b600181811c90821680611ba657607f821691505b602082108103610e1e57634e487b7160e01b600052602260045260246000fd5b634e487b7160e01b600052604160045260246000fd5b6060810181811067ffffffffffffffff82111715611bfc57611bfc611bc6565b60405250565b601f8201601f1916810167ffffffffffffffff81118282101715611c2857611c28611bc6565b6040525050565b60006020808385031215611c4257600080fd5b825167ffffffffffffffff80821115611c5a57600080fd5b9084019060608287031215611c6e57600080fd5b604051611c7a81611bdc565b8251611c858161176c565b815282840151611c948161176c565b81850152604083015182811115611caa57600080fd5b80840193505086601f840112611cbf57600080fd5b825182811115611cd157611cd1611bc6565b6040519250611ce9601f8201601f1916860184611c02565b8083528785828601011115611cfd57600080fd5b611d0c8186850187870161179e565b50604081019190915295945050505050565b600060033d11156106925760046000803e5060005160e01c90565b600060443d1015611d475790565b6040516003193d81016004833e81513d67ffffffffffffffff8160248401118184111715611d7757505050505090565b8285019150815181811115611d8f5750505050505090565b843d8701016020828501011115611da95750505050505090565b611db860208286010187611c02565b509095945050505050565b81835281816020850137506000828201602090810191909152601f909101601f19169091010190565b60006001600160a01b03808916835287602084015286604084015260a06060840152611e1c60a084018688611dc3565b9150808416608084015250979650505050505050565b7f416363657373436f6e74726f6c3a206163636f756e7420000000000000000000815260008351611e6a81601785016020880161179e565b7f206973206d697373696e6720726f6c65200000000000000000000000000000006017918401918201528351611ea781602884016020880161179e565b01602801949350505050565b6001600160a01b0384168152604060208201526000611ed6604083018486611dc3565b95945050505050565b601f82111561050057600081815260208120601f850160051c81016020861015611f065750805b601f850160051c820191505b81811015611f2557828155600101611f12565b505050505050565b815167ffffffffffffffff811115611f4757611f47611bc6565b611f5b81611f558454611b92565b84611edf565b602080601f831160018114611f905760008415611f785750858301515b600019600386901b1c1916600185901b178555611f25565b600085815260208120601f198616915b82811015611fbf57888601518255948401946001909101908401611fa0565b5085821015611fdd5787850151600019600388901b60f8161c191681555b5050505050600190811b01905550565b808202811582820484141761045d5761045d611a76565b60008161201357612013611a76565b50600019019056fea264697066735822122044585f2e247a8f614497cd215e1e977c01c678084e7e5fcaf935a656daecf2fa64736f6c634300081300330d8b58cba732a42811e1f217ab43cccb14f1a8263ebb61afbf13838fcdae9df9",
  "linkReferences": {},
  "deployedLinkReferences": {}
}