{
  "_format": "hh-sol-artifact-1",
  "contractName": "PermissionedContractFactory",
  "sourceName": "contracts/PermissionedContractFactory.sol",
  "abi": [
    {
      "inputs": [
        {
          "internalType": "address[]",
          "name": "admins",
          "type": "address[]"
        },
        {
          "internalType": "address[]",
          "name": "creators",
          "type": "address[]"
        },
        {
          "internalType": "contract IContractMetadataRegistory",
          "name": "_prevRegistory",
          "type": "address"
        }
      ],
      "stateMutability": "nonpayable",
      "type": "constructor"
    },
    {
      "anonymous": false,
      "inputs": [
        {
          "indexed": false,
          "internalType": "address",
          "name": "creator",
          "type": "address"
        },
        {
          "indexed": false,
          "internalType": "uint256",
          "name": "amount",
          "type": "uint256"
        },
        {
          "indexed": false,
          "internalType": "bytes32",
          "name": "salt",
          "type": "bytes32"
        },
        {
          "indexed": false,
          "internalType": "bytes",
          "name": "bytecode",
          "type": "bytes"
        },
        {
          "indexed": false,
          "internalType": "address",
          "name": "newContract",
          "type": "address"
        }
      ],
      "name": "ContractCreated",
      "type": "event"
    },
    {
      "anonymous": false,
      "inputs": [
        {
          "indexed": true,
          "internalType": "address",
          "name": "creator",
          "type": "address"
        },
        {
          "indexed": false,
          "internalType": "address",
          "name": "createdAddress",
          "type": "address"
        },
        {
          "indexed": false,
          "internalType": "string",
          "name": "tag",
          "type": "string"
        }
      ],
      "name": "Registerd",
      "type": "event"
    },
    {
      "anonymous": false,
      "inputs": [
        {
          "indexed": true,
          "internalType": "bytes32",
          "name": "role",
          "type": "bytes32"
        },
        {
          "indexed": true,
          "internalType": "bytes32",
          "name": "previousAdminRole",
          "type": "bytes32"
        },
        {
          "indexed": true,
          "internalType": "bytes32",
          "name": "newAdminRole",
          "type": "bytes32"
        }
      ],
      "name": "RoleAdminChanged",
      "type": "event"
    },
    {
      "anonymous": false,
      "inputs": [
        {
          "indexed": true,
          "internalType": "bytes32",
          "name": "role",
          "type": "bytes32"
        },
        {
          "indexed": true,
          "internalType": "address",
          "name": "account",
          "type": "address"
        },
        {
          "indexed": true,
          "internalType": "address",
          "name": "sender",
          "type": "address"
        }
      ],
      "name": "RoleGranted",
      "type": "event"
    },
    {
      "anonymous": false,
      "inputs": [
        {
          "indexed": true,
          "internalType": "bytes32",
          "name": "role",
          "type": "bytes32"
        },
        {
          "indexed": true,
          "internalType": "address",
          "name": "account",
          "type": "address"
        },
        {
          "indexed": true,
          "internalType": "address",
          "name": "sender",
          "type": "address"
        }
      ],
      "name": "RoleRevoked",
      "type": "event"
    },
    {
      "inputs": [],
      "name": "CONTRACT_CREATOR_ROLE",
      "outputs": [
        {
          "internalType": "bytes32",
          "name": "",
          "type": "bytes32"
        }
      ],
      "stateMutability": "view",
      "type": "function"
    },
    {
      "inputs": [],
      "name": "DEFAULT_ADMIN_ROLE",
      "outputs": [
        {
          "internalType": "bytes32",
          "name": "",
          "type": "bytes32"
        }
      ],
      "stateMutability": "view",
      "type": "function"
    },
    {
      "inputs": [
        {
          "components": [
            {
              "internalType": "uint256",
              "name": "amount",
              "type": "uint256"
            },
            {
              "internalType": "bytes",
              "name": "bytecode",
              "type": "bytes"
            },
            {
              "internalType": "address",
              "name": "expected",
              "type": "address"
            },
            {
              "internalType": "string",
              "name": "tag",
              "type": "string"
            },
            {
              "internalType": "bytes[]",
              "name": "afterCalldatas",
              "type": "bytes[]"
            }
          ],
          "internalType": "struct PermissionedContractFactory.DeployContract[]",
          "name": "deployContracts",
          "type": "tuple[]"
        }
      ],
      "name": "bulkCreate",
      "outputs": [],
      "stateMutability": "payable",
      "type": "function"
    },
    {
      "inputs": [
        {
          "internalType": "uint256",
          "name": "amount",
          "type": "uint256"
        },
        {
          "internalType": "bytes",
          "name": "bytecode",
          "type": "bytes"
        },
        {
          "internalType": "address",
          "name": "expected",
          "type": "address"
        },
        {
          "internalType": "string",
          "name": "tag",
          "type": "string"
        },
        {
          "internalType": "bytes[]",
          "name": "afterCalldatas",
          "type": "bytes[]"
        }
      ],
      "name": "create",
      "outputs": [
        {
          "internalType": "address",
          "name": "addr",
          "type": "address"
        }
      ],
      "stateMutability": "payable",
      "type": "function"
    },
    {
      "inputs": [
        {
          "internalType": "bytes",
          "name": "bytecode",
          "type": "bytes"
        }
      ],
      "name": "getDeploymentAddress",
      "outputs": [
        {
          "internalType": "address",
          "name": "addr",
          "type": "address"
        }
      ],
      "stateMutability": "view",
      "type": "function"
    },
    {
      "inputs": [
        {
          "internalType": "address",
          "name": "createdAddress",
          "type": "address"
        }
      ],
      "name": "getMetadata",
      "outputs": [
        {
          "components": [
            {
              "internalType": "address",
              "name": "createdAddress",
              "type": "address"
            },
            {
              "internalType": "address",
              "name": "creator",
              "type": "address"
            },
            {
              "internalType": "string",
              "name": "tag",
              "type": "string"
            }
          ],
          "internalType": "struct IContractMetadataRegistory.ContractMetadata",
          "name": "meta",
          "type": "tuple"
        }
      ],
      "stateMutability": "view",
      "type": "function"
    },
    {
      "inputs": [
        {
          "internalType": "uint256",
          "name": "index",
          "type": "uint256"
        }
      ],
      "name": "getMetadataByIndex",
      "outputs": [
        {
          "components": [
            {
              "internalType": "address",
              "name": "createdAddress",
              "type": "address"
            },
            {
              "internalType": "address",
              "name": "creator",
              "type": "address"
            },
            {
              "internalType": "string",
              "name": "tag",
              "type": "string"
            }
          ],
          "internalType": "struct IContractMetadataRegistory.ContractMetadata",
          "name": "",
          "type": "tuple"
        }
      ],
      "stateMutability": "view",
      "type": "function"
    },
    {
      "inputs": [
        {
          "internalType": "bytes32",
          "name": "role",
          "type": "bytes32"
        }
      ],
      "name": "getRoleAdmin",
      "outputs": [
        {
          "internalType": "bytes32",
          "name": "",
          "type": "bytes32"
        }
      ],
      "stateMutability": "view",
      "type": "function"
    },
    {
      "inputs": [
        {
          "internalType": "bytes32",
          "name": "role",
          "type": "bytes32"
        },
        {
          "internalType": "address",
          "name": "account",
          "type": "address"
        }
      ],
      "name": "grantRole",
      "outputs": [],
      "stateMutability": "nonpayable",
      "type": "function"
    },
    {
      "inputs": [
        {
          "internalType": "bytes32",
          "name": "role",
          "type": "bytes32"
        },
        {
          "internalType": "address",
          "name": "account",
          "type": "address"
        }
      ],
      "name": "hasRole",
      "outputs": [
        {
          "internalType": "bool",
          "name": "",
          "type": "bool"
        }
      ],
      "stateMutability": "view",
      "type": "function"
    },
    {
      "inputs": [],
      "name": "prevRegistory",
      "outputs": [
        {
          "internalType": "contract IContractMetadataRegistory",
          "name": "",
          "type": "address"
        }
      ],
      "stateMutability": "view",
      "type": "function"
    },
    {
      "inputs": [
        {
          "internalType": "bytes32",
          "name": "role",
          "type": "bytes32"
        },
        {
          "internalType": "address",
          "name": "account",
          "type": "address"
        }
      ],
      "name": "renounceRole",
      "outputs": [],
      "stateMutability": "nonpayable",
      "type": "function"
    },
    {
      "inputs": [
        {
          "internalType": "bytes32",
          "name": "role",
          "type": "bytes32"
        },
        {
          "internalType": "address",
          "name": "account",
          "type": "address"
        }
      ],
      "name": "revokeRole",
      "outputs": [],
      "stateMutability": "nonpayable",
      "type": "function"
    },
    {
      "inputs": [
        {
          "internalType": "bytes4",
          "name": "interfaceId",
          "type": "bytes4"
        }
      ],
      "name": "supportsInterface",
      "outputs": [
        {
          "internalType": "bool",
          "name": "",
          "type": "bool"
        }
      ],
      "stateMutability": "view",
      "type": "function"
    },
    {
      "inputs": [],
      "name": "totalCreatedContracFromThis",
      "outputs": [
        {
          "internalType": "uint256",
          "name": "total",
          "type": "uint256"
        }
      ],
      "stateMutability": "view",
      "type": "function"
    },
    {
      "inputs": [],
      "name": "totalCreatedContract",
      "outputs": [
        {
          "internalType": "uint256",
          "name": "total",
          "type": "uint256"
        }
      ],
      "stateMutability": "view",
      "type": "function"
    },
    {
      "inputs": [],
      "name": "version",
      "outputs": [
        {
          "internalType": "string",
          "name": "",
          "type": "string"
        }
      ],
      "stateMutability": "pure",
      "type": "function"
    }
  ],
  "bytecode": "0x60a06040523480156200001157600080fd5b50604051620024f8380380620024f8833981016040819052620000349162000407565b6001600160a01b0381166080526200004e6000806200021e565b6200006a600080516020620024d883398151915260006200021e565b60005b83518160ff1610156200013f5760006001600160a01b0316848260ff16815181106200009d576200009d62000487565b60200260200101516001600160a01b031603620000f65760405162461bcd60e51b81526020600482015260126024820152715043433a2061646d696e206973207a65726f60701b60448201526064015b60405180910390fd5b6200012a6000801b858360ff168151811062000116576200011662000487565b60200260200101516200026960201b60201c565b8062000136816200049d565b9150506200006d565b5060005b82518160ff161015620002145760006001600160a01b0316838260ff168151811062000173576200017362000487565b60200260200101516001600160a01b031603620001d35760405162461bcd60e51b815260206004820152601460248201527f5043433a2063726561746f72206973207a65726f0000000000000000000000006044820152606401620000ed565b620001ff600080516020620024d8833981519152848360ff168151811062000116576200011662000487565b806200020b816200049d565b91505062000143565b50505050620004cb565b600082815260208190526040808220600101805490849055905190918391839186917fbd79b86ffe0ab8e8776151514217cd7cacd52c909f66475c3af44e129f0b00ff9190a4505050565b62000275828262000279565b5050565b6000828152602081815260408083206001600160a01b038516845290915290205460ff1662000275576000828152602081815260408083206001600160a01b03851684529091529020805460ff19166001179055620002d53390565b6001600160a01b0316816001600160a01b0316837f2f8788117e7eff1d82e926ec794901d17c78024a50270940304540a733656f0d60405160405180910390a45050565b634e487b7160e01b600052604160045260246000fd5b6001600160a01b03811681146200034557600080fd5b50565b805162000355816200032f565b919050565b600082601f8301126200036c57600080fd5b815160206001600160401b03808311156200038b576200038b62000319565b8260051b604051601f19603f83011681018181108482111715620003b357620003b362000319565b604052938452858101830193838101925087851115620003d257600080fd5b83870191505b84821015620003fc57620003ec8262000348565b83529183019190830190620003d8565b979650505050505050565b6000806000606084860312156200041d57600080fd5b83516001600160401b03808211156200043557600080fd5b62000443878388016200035a565b945060208601519150808211156200045a57600080fd5b5062000469868287016200035a565b92505060408401516200047c816200032f565b809150509250925092565b634e487b7160e01b600052603260045260246000fd5b600060ff821660ff8103620004c257634e487b7160e01b600052601160045260246000fd5b60010192915050565b608051611fd562000503600039600081816103a80152818161064b0152818161067201528181610c5b0152610cbb0152611fd56000f3fe60806040526004361061010e5760003560e01c80634de79ecc116100a5578063a217fddf11610074578063d547741f11610059578063d547741f14610356578063da58f37e14610376578063f593ee351461039657600080fd5b8063a217fddf14610321578063cf068b4f1461033657600080fd5b80634de79ecc1461026957806354fd4d501461027e578063641b959f146102ca57806391d14854146102dd57600080fd5b80632a50c146116100e15780632a50c146146101cf5780632f2ff15d146101fc57806336568abe1461021e5780633e2fcd1d1461023e57600080fd5b806301ffc9a7146101135780630b19429e146101485780632097ca281461018a578063248a9ca31461019f575b600080fd5b34801561011f57600080fd5b5061013361012e3660046116af565b6103ca565b60405190151581526020015b60405180910390f35b34801561015457600080fd5b5061017c7f0d8b58cba732a42811e1f217ab43cccb14f1a8263ebb61afbf13838fcdae9df981565b60405190815260200161013f565b34801561019657600080fd5b5060015461017c565b3480156101ab57600080fd5b5061017c6101ba3660046116f1565b60009081526020819052604090206001015490565b3480156101db57600080fd5b506101ef6101ea36600461171f565b610463565b60405161013f919061178c565b34801561020857600080fd5b5061021c6102173660046117d0565b6104db565b005b34801561022a57600080fd5b5061021c6102393660046117d0565b610505565b61025161024c36600461188e565b610591565b6040516001600160a01b03909116815260200161013f565b34801561027557600080fd5b5061017c610634565b34801561028a57600080fd5b50604080518082018252600581527f302e302e320000000000000000000000000000000000000000000000000000006020820152905161013f9190611946565b61021c6102d8366004611959565b610702565b3480156102e957600080fd5b506101336102f83660046117d0565b6000918252602082815260408084206001600160a01b0393909316845291905290205460ff1690565b34801561032d57600080fd5b5061017c600081565b34801561034257600080fd5b5061025161035136600461199b565b61094a565b34801561036257600080fd5b5061021c6103713660046117d0565b6109b3565b34801561038257600080fd5b506101ef6103913660046116f1565b6109d8565b3480156103a257600080fd5b506102517f000000000000000000000000000000000000000000000000000000000000000081565b60007fffffffff0000000000000000000000000000000000000000000000000000000082167f7965db0b00000000000000000000000000000000000000000000000000000000148061045d57507f01ffc9a7000000000000000000000000000000000000000000000000000000007fffffffff000000000000000000000000000000000000000000000000000000008316145b92915050565b6040805160608082018352600080835260208301529181019190915261048882610b4c565b60208101519091506001600160a01b03166104d65760405162461bcd60e51b81526020600482015260096024820152681b9bdd08199bdd5b9960ba1b60448201526064015b60405180910390fd5b919050565b6000828152602081905260409020600101546104f681610df5565b6105008383610e02565b505050565b6001600160a01b03811633146105835760405162461bcd60e51b815260206004820152602f60248201527f416363657373436f6e74726f6c3a2063616e206f6e6c792072656e6f756e636560448201527f20726f6c657320666f722073656c66000000000000000000000000000000000060648201526084016104cd565b61058d8282610ea0565b5050565b60007f0d8b58cba732a42811e1f217ab43cccb14f1a8263ebb61afbf13838fcdae9df96105bd81610df5565b89341461060c5760405162461bcd60e51b815260206004820152601a60248201527f5043433a20696e636f727265637420616d6f756e742073656e7400000000000060448201526064016104cd565b61061a8a8a8a8a8a8a610f1f565b915061062782858561105f565b5098975050505050505050565b600061063f60015490565b90506001600160a01b037f000000000000000000000000000000000000000000000000000000000000000016156106ff577f00000000000000000000000000000000000000000000000000000000000000006001600160a01b0316634de79ecc6040518163ffffffff1660e01b8152600401602060405180830381865afa1580156106ce573d6000803e3d6000fd5b505050506040513d601f19601f820116820180604052508101906106f291906119d1565b6106fc9082611a00565b90505b90565b7f0d8b58cba732a42811e1f217ab43cccb14f1a8263ebb61afbf13838fcdae9df961072c81610df5565b3460005b838110156108f5578185858381811061074b5761074b611a13565b905060200281019061075d9190611a29565b3511156107ac5760405162461bcd60e51b815260206004820152601d60248201527f5043433a20696e73756666696369656e7420616d6f756e742073656e7400000060448201526064016104cd565b8484828181106107be576107be611a13565b90506020028101906107d09190611a29565b6107db903583611a49565b915060006108a58686848181106107f4576107f4611a13565b90506020028101906108069190611a29565b3587878581811061081957610819611a13565b905060200281019061082b9190611a29565b610839906020810190611a5c565b89898781811061084b5761084b611a13565b905060200281019061085d9190611a29565b61086e90606081019060400161171f565b8a8a8881811061088057610880611a13565b90506020028101906108929190611a29565b6108a0906060810190611a5c565b610f1f565b90506108e2818787858181106108bd576108bd611a13565b90506020028101906108cf9190611a29565b6108dd906080810190611aa3565b61105f565b50806108ed81611aed565b915050610730565b5080156109445760405162461bcd60e51b815260206004820152601960248201527f5043433a20746f6f206d75636820616d6f756e742073656e740000000000000060448201526064016104cd565b50505050565b60006109ac61098e84848080601f01602080910402602001604051908101604052809392919081815260200183838082843760009201919091525061114e92505050565b848460405161099e929190611b06565b604051809103902030611155565b9392505050565b6000828152602081905260409020600101546109ce81610df5565b6105008383610ea0565b6040805160608082018352600080835260208301529181019190915260018054610a029190611a49565b821115610a515760405162461bcd60e51b815260206004820152601260248201527f696e646578206f7574206f662072616e6765000000000000000000000000000060448201526064016104cd565b6002600060018481548110610a6857610a68611a13565b60009182526020808320909101546001600160a01b03908116845283820194909452604092830190912082516060810184528154851681526001820154909416918401919091526002810180549192840191610ac390611b16565b80601f0160208091040260200160405190810160405280929190818152602001828054610aef90611b16565b8015610b3c5780601f10610b1157610100808354040283529160200191610b3c565b820191906000526020600020905b815481529060010190602001808311610b1f57829003601f168201915b5050505050815250509050919050565b604080516060808201835260008083526020830152918101919091526001600160a01b03808316600090815260026020818152604092839020835160608101855281548616815260018201549095169185019190915290810180549192840191610bb590611b16565b80601f0160208091040260200160405190810160405280929190818152602001828054610be190611b16565b8015610c2e5780601f10610c0357610100808354040283529160200191610c2e565b820191906000526020600020905b815481529060010190602001808311610c1157829003601f168201915b5050509190925250505060208101519091506001600160a01b0316158015610c7e57506001600160a01b037f00000000000000000000000000000000000000000000000000000000000000001615155b156104d6576040517f2a50c1460000000000000000000000000000000000000000000000000000000081526001600160a01b0383811660048301527f00000000000000000000000000000000000000000000000000000000000000001690632a50c14690602401600060405180830381865afa925050508015610d2357506040513d6000823e601f3d908101601f19168201604052610d209190810190611bb3565b60015b61045d57610d2f611ca2565b806308c379a003610de95750610d43611cbd565b80610d4e5750610deb565b6040805180820190915260098152681b9bdd08199bdd5b9960ba1b6020918201528151908201207f9b887cfddc434e3cf41b666954131afc611b880c7637aac66ca1f629f8984c5b14610de35760405162461bcd60e51b815260206004820152601060248201527f756e6578706563746564206572726f720000000000000000000000000000000060448201526064016104cd565b50919050565b505b3d6000803e3d6000fd5b610dff813361117f565b50565b6000828152602081815260408083206001600160a01b038516845290915290205460ff1661058d576000828152602081815260408083206001600160a01b03851684529091529020805460ff19166001179055610e5c3390565b6001600160a01b0316816001600160a01b0316837f2f8788117e7eff1d82e926ec794901d17c78024a50270940304540a733656f0d60405160405180910390a45050565b6000828152602081815260408083206001600160a01b038516845290915290205460ff161561058d576000828152602081815260408083206001600160a01b0385168085529252808320805460ff1916905551339285917ff6391f5c32d9c69d2a47ea670b442974b53935d1edc7fd64eb21e047a839171b9190a45050565b600080610f6187878080601f01602080910402602001604051908101604052809392919081815260200183838082843760009201919091525061114e92505050565b9050610fa4888289898080601f0160208091040260200160405190810160405280939291908181526020018383808284376000920191909152506111f292505050565b9150846001600160a01b0316826001600160a01b0316146110075760405162461bcd60e51b815260206004820152601760248201527f5043433a20756e6578706563746564206164647265737300000000000000000060448201526064016104cd565b7f388d923fb867b31389c9da49a5a9b552bd44cde0717beb38a215d99ef09778db3389838a8a8760405161104096959493929190611d70565b60405180910390a1611054823386866112f6565b509695505050505050565b60005b81811015610944576000846001600160a01b031684848481811061108857611088611a13565b905060200281019061109a9190611a5c565b6040516110a8929190611b06565b6000604051808303816000865af19150503d80600081146110e5576040519150601f19603f3d011682016040523d82523d6000602084013e6110ea565b606091505b505090508061113b5760405162461bcd60e51b815260206004820152601660248201527f5043433a2061667465722063616c6c206661696c65640000000000000000000060448201526064016104cd565b508061114681611aed565b915050611062565b6020015190565b6000604051836040820152846020820152828152600b8101905060ff815360559020949350505050565b6000828152602081815260408083206001600160a01b038516845290915290205460ff1661058d576111b0816114bc565b6111bb8360206114ce565b6040516020016111cc929190611db6565b60408051601f198184030181529082905262461bcd60e51b82526104cd91600401611946565b6000834710156112445760405162461bcd60e51b815260206004820152601d60248201527f437265617465323a20696e73756666696369656e742062616c616e636500000060448201526064016104cd565b81516000036112955760405162461bcd60e51b815260206004820181905260248201527f437265617465323a2062797465636f6465206c656e677468206973207a65726f60448201526064016104cd565b8282516020840186f590506001600160a01b0381166109ac5760405162461bcd60e51b815260206004820152601960248201527f437265617465323a204661696c6564206f6e206465706c6f790000000000000060448201526064016104cd565b600061130185610b4c565b602001516001600160a01b03161461135b5760405162461bcd60e51b815260206004820152601260248201527f616c72656164792072656769737465726564000000000000000000000000000060448201526064016104cd565b826001600160a01b03167f8d3f2558914d24d1627609279aec4a8b1033bb2e86f4fc8118aba14785e3fc3985848460405161139893929190611e37565b60405180910390a26001805480820182556000919091527fb10e2d527612073b26eecdfd717e6a320cf44b4afac2b0732d9fcbe2b7fa0cf601805473ffffffffffffffffffffffffffffffffffffffff19166001600160a01b03868116918217909255604080516060810182529182529185166020808301919091528251601f85018290048202810182018452848152919283019190859085908190840183828082843760009201829052509390945250506001600160a01b038088168252600260208181526040938490208651815490851673ffffffffffffffffffffffffffffffffffffffff19918216178255918701516001820180549190951692169190911790925591840151909250908201906114b39082611eb1565b50505050505050565b606061045d6001600160a01b03831660145b606060006114dd836002611f71565b6114e8906002611a00565b67ffffffffffffffff81111561150057611500611b4a565b6040519080825280601f01601f19166020018201604052801561152a576020820181803683370190505b5090507f30000000000000000000000000000000000000000000000000000000000000008160008151811061156157611561611a13565b60200101906001600160f81b031916908160001a9053507f7800000000000000000000000000000000000000000000000000000000000000816001815181106115ac576115ac611a13565b60200101906001600160f81b031916908160001a90535060006115d0846002611f71565b6115db906001611a00565b90505b6001811115611660577f303132333435363738396162636465660000000000000000000000000000000085600f166010811061161c5761161c611a13565b1a60f81b82828151811061163257611632611a13565b60200101906001600160f81b031916908160001a90535060049490941c9361165981611f88565b90506115de565b5083156109ac5760405162461bcd60e51b815260206004820181905260248201527f537472696e67733a20686578206c656e67746820696e73756666696369656e7460448201526064016104cd565b6000602082840312156116c157600080fd5b81357fffffffff00000000000000000000000000000000000000000000000000000000811681146109ac57600080fd5b60006020828403121561170357600080fd5b5035919050565b6001600160a01b0381168114610dff57600080fd5b60006020828403121561173157600080fd5b81356109ac8161170a565b60005b8381101561175757818101518382015260200161173f565b50506000910152565b6000815180845261177881602086016020860161173c565b601f01601f19169290920160200192915050565b6020815260006001600160a01b038084511660208401528060208501511660408401525060408301516060808401526117c86080840182611760565b949350505050565b600080604083850312156117e357600080fd5b8235915060208301356117f58161170a565b809150509250929050565b60008083601f84011261181257600080fd5b50813567ffffffffffffffff81111561182a57600080fd5b60208301915083602082850101111561184257600080fd5b9250929050565b60008083601f84011261185b57600080fd5b50813567ffffffffffffffff81111561187357600080fd5b6020830191508360208260051b850101111561184257600080fd5b60008060008060008060008060a0898b0312156118aa57600080fd5b88359750602089013567ffffffffffffffff808211156118c957600080fd5b6118d58c838d01611800565b909950975060408b013591506118ea8261170a565b90955060608a0135908082111561190057600080fd5b61190c8c838d01611800565b909650945060808b013591508082111561192557600080fd5b506119328b828c01611849565b999c989b5096995094979396929594505050565b6020815260006109ac6020830184611760565b6000806020838503121561196c57600080fd5b823567ffffffffffffffff81111561198357600080fd5b61198f85828601611849565b90969095509350505050565b600080602083850312156119ae57600080fd5b823567ffffffffffffffff8111156119c557600080fd5b61198f85828601611800565b6000602082840312156119e357600080fd5b5051919050565b634e487b7160e01b600052601160045260246000fd5b8082018082111561045d5761045d6119ea565b634e487b7160e01b600052603260045260246000fd5b60008235609e19833603018112611a3f57600080fd5b9190910192915050565b8181038181111561045d5761045d6119ea565b6000808335601e19843603018112611a7357600080fd5b83018035915067ffffffffffffffff821115611a8e57600080fd5b60200191503681900382131561184257600080fd5b6000808335601e19843603018112611aba57600080fd5b83018035915067ffffffffffffffff821115611ad557600080fd5b6020019150600581901b360382131561184257600080fd5b600060018201611aff57611aff6119ea565b5060010190565b8183823760009101908152919050565b600181811c90821680611b2a57607f821691505b602082108103610de357634e487b7160e01b600052602260045260246000fd5b634e487b7160e01b600052604160045260246000fd5b6060810181811067ffffffffffffffff82111715611b8057611b80611b4a565b60405250565b601f8201601f1916810167ffffffffffffffff81118282101715611bac57611bac611b4a565b6040525050565b60006020808385031215611bc657600080fd5b825167ffffffffffffffff80821115611bde57600080fd5b9084019060608287031215611bf257600080fd5b604051611bfe81611b60565b8251611c098161170a565b815282840151611c188161170a565b81850152604083015182811115611c2e57600080fd5b80840193505086601f840112611c4357600080fd5b825182811115611c5557611c55611b4a565b6040519250611c6d601f8201601f1916860184611b86565b8083528785828601011115611c8157600080fd5b611c908186850187870161173c565b50604081019190915295945050505050565b600060033d11156106ff5760046000803e5060005160e01c90565b600060443d1015611ccb5790565b6040516003193d81016004833e81513d67ffffffffffffffff8160248401118184111715611cfb57505050505090565b8285019150815181811115611d135750505050505090565b843d8701016020828501011115611d2d5750505050505090565b611d3c60208286010187611b86565b509095945050505050565b81835281816020850137506000828201602090810191909152601f909101601f19169091010190565b60006001600160a01b03808916835287602084015286604084015260a06060840152611da060a084018688611d47565b9150808416608084015250979650505050505050565b7f416363657373436f6e74726f6c3a206163636f756e7420000000000000000000815260008351611dee81601785016020880161173c565b7f206973206d697373696e6720726f6c65200000000000000000000000000000006017918401918201528351611e2b81602884016020880161173c565b01602801949350505050565b6001600160a01b0384168152604060208201526000611e5a604083018486611d47565b95945050505050565b601f82111561050057600081815260208120601f850160051c81016020861015611e8a5750805b601f850160051c820191505b81811015611ea957828155600101611e96565b505050505050565b815167ffffffffffffffff811115611ecb57611ecb611b4a565b611edf81611ed98454611b16565b84611e63565b602080601f831160018114611f145760008415611efc5750858301515b600019600386901b1c1916600185901b178555611ea9565b600085815260208120601f198616915b82811015611f4357888601518255948401946001909101908401611f24565b5085821015611f615787850151600019600388901b60f8161c191681555b5050505050600190811b01905550565b808202811582820484141761045d5761045d6119ea565b600081611f9757611f976119ea565b50600019019056fea2646970667358221220fb38e2311e7dd9dce5124a7eb6288a92c5a00b2c7adcd5431a57140f0584263c64736f6c634300081300330d8b58cba732a42811e1f217ab43cccb14f1a8263ebb61afbf13838fcdae9df9",
  "linkReferences": {},
  "deployedLinkReferences": {}
}