{
  "_format": "hh-sol-artifact-1",
  "contractName": "PermissionedContractFactory",
  "sourceName": "contracts/PermissionedContractFactory.sol",
  "abi": [
    {
      "inputs": [
        {
          "internalType": "address[]",
          "name": "admins",
          "type": "address[]"
        },
        {
          "internalType": "address[]",
          "name": "creators",
          "type": "address[]"
        },
        {
          "internalType": "contract IContractMetadataRegistory",
          "name": "_prevRegistory",
          "type": "address"
        }
      ],
      "stateMutability": "nonpayable",
      "type": "constructor"
    },
    {
      "anonymous": false,
      "inputs": [
        {
          "indexed": false,
          "internalType": "address",
          "name": "creator",
          "type": "address"
        },
        {
          "indexed": false,
          "internalType": "uint256",
          "name": "amount",
          "type": "uint256"
        },
        {
          "indexed": false,
          "internalType": "bytes32",
          "name": "salt",
          "type": "bytes32"
        },
        {
          "indexed": false,
          "internalType": "bytes",
          "name": "bytecode",
          "type": "bytes"
        },
        {
          "indexed": false,
          "internalType": "address",
          "name": "newContract",
          "type": "address"
        }
      ],
      "name": "ContractCreated",
      "type": "event"
    },
    {
      "anonymous": false,
      "inputs": [
        {
          "indexed": true,
          "internalType": "address",
          "name": "creator",
          "type": "address"
        },
        {
          "indexed": false,
          "internalType": "address",
          "name": "createdAddress",
          "type": "address"
        },
        {
          "indexed": false,
          "internalType": "string",
          "name": "tag",
          "type": "string"
        }
      ],
      "name": "Registerd",
      "type": "event"
    },
    {
      "anonymous": false,
      "inputs": [
        {
          "indexed": true,
          "internalType": "bytes32",
          "name": "role",
          "type": "bytes32"
        },
        {
          "indexed": true,
          "internalType": "bytes32",
          "name": "previousAdminRole",
          "type": "bytes32"
        },
        {
          "indexed": true,
          "internalType": "bytes32",
          "name": "newAdminRole",
          "type": "bytes32"
        }
      ],
      "name": "RoleAdminChanged",
      "type": "event"
    },
    {
      "anonymous": false,
      "inputs": [
        {
          "indexed": true,
          "internalType": "bytes32",
          "name": "role",
          "type": "bytes32"
        },
        {
          "indexed": true,
          "internalType": "address",
          "name": "account",
          "type": "address"
        },
        {
          "indexed": true,
          "internalType": "address",
          "name": "sender",
          "type": "address"
        }
      ],
      "name": "RoleGranted",
      "type": "event"
    },
    {
      "anonymous": false,
      "inputs": [
        {
          "indexed": true,
          "internalType": "bytes32",
          "name": "role",
          "type": "bytes32"
        },
        {
          "indexed": true,
          "internalType": "address",
          "name": "account",
          "type": "address"
        },
        {
          "indexed": true,
          "internalType": "address",
          "name": "sender",
          "type": "address"
        }
      ],
      "name": "RoleRevoked",
      "type": "event"
    },
    {
      "inputs": [],
      "name": "CONTRACT_CREATOR_ROLE",
      "outputs": [
        {
          "internalType": "bytes32",
          "name": "",
          "type": "bytes32"
        }
      ],
      "stateMutability": "view",
      "type": "function"
    },
    {
      "inputs": [],
      "name": "DEFAULT_ADMIN_ROLE",
      "outputs": [
        {
          "internalType": "bytes32",
          "name": "",
          "type": "bytes32"
        }
      ],
      "stateMutability": "view",
      "type": "function"
    },
    {
      "inputs": [
        {
          "components": [
            {
              "internalType": "uint256",
              "name": "amount",
              "type": "uint256"
            },
            {
              "internalType": "bytes32",
              "name": "salt",
              "type": "bytes32"
            },
            {
              "internalType": "bytes",
              "name": "bytecode",
              "type": "bytes"
            },
            {
              "internalType": "address",
              "name": "expected",
              "type": "address"
            },
            {
              "internalType": "string",
              "name": "tag",
              "type": "string"
            },
            {
              "internalType": "address",
              "name": "owner",
              "type": "address"
            }
          ],
          "internalType": "struct PermissionedContractFactory.DeployContract[]",
          "name": "deployContracts",
          "type": "tuple[]"
        }
      ],
      "name": "bulkCreate",
      "outputs": [],
      "stateMutability": "payable",
      "type": "function"
    },
    {
      "inputs": [
        {
          "internalType": "uint256",
          "name": "amount",
          "type": "uint256"
        },
        {
          "internalType": "bytes32",
          "name": "salt",
          "type": "bytes32"
        },
        {
          "internalType": "bytes",
          "name": "bytecode",
          "type": "bytes"
        },
        {
          "internalType": "address",
          "name": "expected",
          "type": "address"
        },
        {
          "internalType": "string",
          "name": "tag",
          "type": "string"
        },
        {
          "internalType": "address",
          "name": "owner",
          "type": "address"
        }
      ],
      "name": "create",
      "outputs": [
        {
          "internalType": "address",
          "name": "addr",
          "type": "address"
        }
      ],
      "stateMutability": "payable",
      "type": "function"
    },
    {
      "inputs": [
        {
          "internalType": "bytes32",
          "name": "salt",
          "type": "bytes32"
        },
        {
          "internalType": "bytes",
          "name": "bytecode",
          "type": "bytes"
        }
      ],
      "name": "getDeploymentAddress",
      "outputs": [
        {
          "internalType": "address",
          "name": "addr",
          "type": "address"
        }
      ],
      "stateMutability": "view",
      "type": "function"
    },
    {
      "inputs": [
        {
          "internalType": "address",
          "name": "createdAddress",
          "type": "address"
        }
      ],
      "name": "getMetadata",
      "outputs": [
        {
          "components": [
            {
              "internalType": "address",
              "name": "createdAddress",
              "type": "address"
            },
            {
              "internalType": "address",
              "name": "creator",
              "type": "address"
            },
            {
              "internalType": "string",
              "name": "tag",
              "type": "string"
            }
          ],
          "internalType": "struct IContractMetadataRegistory.ContractMetadata",
          "name": "meta",
          "type": "tuple"
        }
      ],
      "stateMutability": "view",
      "type": "function"
    },
    {
      "inputs": [
        {
          "internalType": "uint256",
          "name": "index",
          "type": "uint256"
        }
      ],
      "name": "getMetadataByIndex",
      "outputs": [
        {
          "components": [
            {
              "internalType": "address",
              "name": "createdAddress",
              "type": "address"
            },
            {
              "internalType": "address",
              "name": "creator",
              "type": "address"
            },
            {
              "internalType": "string",
              "name": "tag",
              "type": "string"
            }
          ],
          "internalType": "struct IContractMetadataRegistory.ContractMetadata",
          "name": "",
          "type": "tuple"
        }
      ],
      "stateMutability": "view",
      "type": "function"
    },
    {
      "inputs": [
        {
          "internalType": "bytes32",
          "name": "role",
          "type": "bytes32"
        }
      ],
      "name": "getRoleAdmin",
      "outputs": [
        {
          "internalType": "bytes32",
          "name": "",
          "type": "bytes32"
        }
      ],
      "stateMutability": "view",
      "type": "function"
    },
    {
      "inputs": [
        {
          "internalType": "bytes32",
          "name": "role",
          "type": "bytes32"
        },
        {
          "internalType": "address",
          "name": "account",
          "type": "address"
        }
      ],
      "name": "grantRole",
      "outputs": [],
      "stateMutability": "nonpayable",
      "type": "function"
    },
    {
      "inputs": [
        {
          "internalType": "bytes32",
          "name": "role",
          "type": "bytes32"
        },
        {
          "internalType": "address",
          "name": "account",
          "type": "address"
        }
      ],
      "name": "hasRole",
      "outputs": [
        {
          "internalType": "bool",
          "name": "",
          "type": "bool"
        }
      ],
      "stateMutability": "view",
      "type": "function"
    },
    {
      "inputs": [],
      "name": "prevRegistory",
      "outputs": [
        {
          "internalType": "contract IContractMetadataRegistory",
          "name": "",
          "type": "address"
        }
      ],
      "stateMutability": "view",
      "type": "function"
    },
    {
      "inputs": [
        {
          "internalType": "bytes32",
          "name": "role",
          "type": "bytes32"
        },
        {
          "internalType": "address",
          "name": "account",
          "type": "address"
        }
      ],
      "name": "renounceRole",
      "outputs": [],
      "stateMutability": "nonpayable",
      "type": "function"
    },
    {
      "inputs": [
        {
          "internalType": "bytes32",
          "name": "role",
          "type": "bytes32"
        },
        {
          "internalType": "address",
          "name": "account",
          "type": "address"
        }
      ],
      "name": "revokeRole",
      "outputs": [],
      "stateMutability": "nonpayable",
      "type": "function"
    },
    {
      "inputs": [
        {
          "internalType": "bytes4",
          "name": "interfaceId",
          "type": "bytes4"
        }
      ],
      "name": "supportsInterface",
      "outputs": [
        {
          "internalType": "bool",
          "name": "",
          "type": "bool"
        }
      ],
      "stateMutability": "view",
      "type": "function"
    },
    {
      "inputs": [],
      "name": "totalCreatedContracFromThis",
      "outputs": [
        {
          "internalType": "uint256",
          "name": "total",
          "type": "uint256"
        }
      ],
      "stateMutability": "view",
      "type": "function"
    },
    {
      "inputs": [],
      "name": "totalCreatedContract",
      "outputs": [
        {
          "internalType": "uint256",
          "name": "total",
          "type": "uint256"
        }
      ],
      "stateMutability": "view",
      "type": "function"
    },
    {
      "inputs": [],
      "name": "version",
      "outputs": [
        {
          "internalType": "string",
          "name": "",
          "type": "string"
        }
      ],
      "stateMutability": "pure",
      "type": "function"
    }
  ],
  "bytecode": "0x60a06040523480156200001157600080fd5b50604051620023f8380380620023f8833981016040819052620000349162000407565b6001600160a01b0381166080526200004e6000806200021e565b6200006a600080516020620023d883398151915260006200021e565b60005b83518160ff1610156200013f5760006001600160a01b0316848260ff16815181106200009d576200009d62000487565b60200260200101516001600160a01b031603620000f65760405162461bcd60e51b81526020600482015260126024820152715043433a2061646d696e206973207a65726f60701b60448201526064015b60405180910390fd5b6200012a6000801b858360ff168151811062000116576200011662000487565b60200260200101516200026960201b60201c565b8062000136816200049d565b9150506200006d565b5060005b82518160ff161015620002145760006001600160a01b0316838260ff168151811062000173576200017362000487565b60200260200101516001600160a01b031603620001d35760405162461bcd60e51b815260206004820152601460248201527f5043433a2063726561746f72206973207a65726f0000000000000000000000006044820152606401620000ed565b620001ff600080516020620023d8833981519152848360ff168151811062000116576200011662000487565b806200020b816200049d565b91505062000143565b50505050620004cb565b600082815260208190526040808220600101805490849055905190918391839186917fbd79b86ffe0ab8e8776151514217cd7cacd52c909f66475c3af44e129f0b00ff9190a4505050565b62000275828262000279565b5050565b6000828152602081815260408083206001600160a01b038516845290915290205460ff1662000275576000828152602081815260408083206001600160a01b03851684529091529020805460ff19166001179055620002d53390565b6001600160a01b0316816001600160a01b0316837f2f8788117e7eff1d82e926ec794901d17c78024a50270940304540a733656f0d60405160405180910390a45050565b634e487b7160e01b600052604160045260246000fd5b6001600160a01b03811681146200034557600080fd5b50565b805162000355816200032f565b919050565b600082601f8301126200036c57600080fd5b815160206001600160401b03808311156200038b576200038b62000319565b8260051b604051601f19603f83011681018181108482111715620003b357620003b362000319565b604052938452858101830193838101925087851115620003d257600080fd5b83870191505b84821015620003fc57620003ec8262000348565b83529183019190830190620003d8565b979650505050505050565b6000806000606084860312156200041d57600080fd5b83516001600160401b03808211156200043557600080fd5b62000443878388016200035a565b945060208601519150808211156200045a57600080fd5b5062000469868287016200035a565b92505060408401516200047c816200032f565b809150509250925092565b634e487b7160e01b600052603260045260246000fd5b600060ff821660ff8103620004c257634e487b7160e01b600052601160045260246000fd5b60010192915050565b608051611ed562000503600039600081816103a80152818161086d0152818161089401528181610df00152610e500152611ed56000f3fe60806040526004361061010e5760003560e01c806336568abe116100a557806391d1485411610074578063d547741f11610059578063d547741f14610356578063da58f37e14610376578063f593ee351461039657600080fd5b806391d14854146102fd578063a217fddf1461034157600080fd5b806336568abe146102695780634de79ecc1461028957806354fd4d501461029e57806372af32a8146102ea57600080fd5b806320abc1e2116100e157806320abc1e2146101d7578063248a9ca3146101ec5780632a50c1461461021c5780632f2ff15d1461024957600080fd5b806301ffc9a71461011357806309b1eca6146101485780630b19429e146101805780632097ca28146101c2575b600080fd5b34801561011f57600080fd5b5061013361012e3660046115d7565b6103ca565b60405190151581526020015b60405180910390f35b34801561015457600080fd5b50610168610163366004611706565b610463565b6040516001600160a01b03909116815260200161013f565b34801561018c57600080fd5b506101b47f0d8b58cba732a42811e1f217ab43cccb14f1a8263ebb61afbf13838fcdae9df981565b60405190815260200161013f565b3480156101ce57600080fd5b506001546101b4565b6101ea6101e536600461174d565b61047e565b005b3480156101f857600080fd5b506101b46102073660046117c2565b60009081526020819052604090206001015490565b34801561022857600080fd5b5061023c6102373660046117fb565b61072d565b60405161013f9190611868565b34801561025557600080fd5b506101ea6102643660046118ac565b6107a0565b34801561027557600080fd5b506101ea6102843660046118ac565b6107ca565b34801561029557600080fd5b506101b4610856565b3480156102aa57600080fd5b50604080518082018252600581527f302e302e320000000000000000000000000000000000000000000000000000006020820152905161013f91906118dc565b6101686102f83660046118ef565b610924565b34801561030957600080fd5b506101336103183660046118ac565b6000918252602082815260408084206001600160a01b0393909316845291905290205460ff1690565b34801561034d57600080fd5b506101b4600081565b34801561036257600080fd5b506101ea6103713660046118ac565b6109c5565b34801561038257600080fd5b5061023c6103913660046117c2565b6109ea565b3480156103a257600080fd5b506101687f000000000000000000000000000000000000000000000000000000000000000081565b60007fffffffff0000000000000000000000000000000000000000000000000000000082167f7965db0b00000000000000000000000000000000000000000000000000000000148061045d57507f01ffc9a7000000000000000000000000000000000000000000000000000000007fffffffff000000000000000000000000000000000000000000000000000000008316145b92915050565b600061047783838051906020012030610b5e565b9392505050565b7f0d8b58cba732a42811e1f217ab43cccb14f1a8263ebb61afbf13838fcdae9df96104a881610b88565b3460005b838110156106d857818585838181106104c7576104c76119bf565b90506020028101906104d991906119d5565b35111561052d5760405162461bcd60e51b815260206004820152601d60248201527f5043433a20696e73756666696369656e7420616d6f756e742073656e7400000060448201526064015b60405180910390fd5b84848281811061053f5761053f6119bf565b905060200281019061055191906119d5565b61055c903583611a0b565b91506000610685868684818110610575576105756119bf565b905060200281019061058791906119d5565b3587878581811061059a5761059a6119bf565b90506020028101906105ac91906119d5565b602001358888868181106105c2576105c26119bf565b90506020028101906105d491906119d5565b6105e2906040810190611a1e565b8080601f0160208091040260200160405190810160405280939291908181526020018383808284376000920191909152508c92508b915088905081811061062b5761062b6119bf565b905060200281019061063d91906119d5565b61064e9060808101906060016117fb565b8a8a88818110610660576106606119bf565b905060200281019061067291906119d5565b610680906080810190611a1e565b610b95565b90506106c58187878581811061069d5761069d6119bf565b90506020028101906106af91906119d5565b6106c09060c081019060a0016117fb565b610c5a565b50806106d081611a6c565b9150506104ac565b5080156107275760405162461bcd60e51b815260206004820152601960248201527f5043433a20746f6f206d75636820616d6f756e742073656e74000000000000006044820152606401610524565b50505050565b6040805160608082018352600080835260208301529181019190915261075282610ce1565b60208101519091506001600160a01b031661079b5760405162461bcd60e51b81526020600482015260096024820152681b9bdd08199bdd5b9960ba1b6044820152606401610524565b919050565b6000828152602081905260409020600101546107bb81610b88565b6107c58383610f8a565b505050565b6001600160a01b03811633146108485760405162461bcd60e51b815260206004820152602f60248201527f416363657373436f6e74726f6c3a2063616e206f6e6c792072656e6f756e636560448201527f20726f6c657320666f722073656c6600000000000000000000000000000000006064820152608401610524565b6108528282611028565b5050565b600061086160015490565b90506001600160a01b037f00000000000000000000000000000000000000000000000000000000000000001615610921577f00000000000000000000000000000000000000000000000000000000000000006001600160a01b0316634de79ecc6040518163ffffffff1660e01b8152600401602060405180830381865afa1580156108f0573d6000803e3d6000fd5b505050506040513d601f19601f820116820180604052508101906109149190611a85565b61091e9082611a9e565b90505b90565b60007f0d8b58cba732a42811e1f217ab43cccb14f1a8263ebb61afbf13838fcdae9df961095081610b88565b88341461099f5760405162461bcd60e51b815260206004820152601a60248201527f5043433a20696e636f727265637420616d6f756e742073656e740000000000006044820152606401610524565b6109ad898989898989610b95565b91506109b98284610c5a565b50979650505050505050565b6000828152602081905260409020600101546109e081610b88565b6107c58383611028565b6040805160608082018352600080835260208301529181019190915260018054610a149190611a0b565b821115610a635760405162461bcd60e51b815260206004820152601260248201527f696e646578206f7574206f662072616e676500000000000000000000000000006044820152606401610524565b6002600060018481548110610a7a57610a7a6119bf565b60009182526020808320909101546001600160a01b03908116845283820194909452604092830190912082516060810184528154851681526001820154909416918401919091526002810180549192840191610ad590611ab1565b80601f0160208091040260200160405190810160405280929190818152602001828054610b0190611ab1565b8015610b4e5780601f10610b2357610100808354040283529160200191610b4e565b820191906000526020600020905b815481529060010190602001808311610b3157829003601f168201915b5050505050815250509050919050565b6000604051836040820152846020820152828152600b8101905060ff815360559020949350505050565b610b9281336110a7565b50565b6000610ba287878761111a565b9050836001600160a01b0316816001600160a01b031614610c055760405162461bcd60e51b815260206004820152601760248201527f5043433a20756e657870656374656420616464726573730000000000000000006044820152606401610524565b7f388d923fb867b31389c9da49a5a9b552bd44cde0717beb38a215d99ef09778db3388888885604051610c3c959493929190611ae5565b60405180910390a1610c508133858561121e565b9695505050505050565b6001600160a01b03811615610852576040517ff2fde38b0000000000000000000000000000000000000000000000000000000081526001600160a01b03828116600483015283169063f2fde38b90602401600060405180830381600087803b158015610cc557600080fd5b505af1158015610cd9573d6000803e3d6000fd5b505050505050565b604080516060808201835260008083526020830152918101919091526001600160a01b03808316600090815260026020818152604092839020835160608101855281548616815260018201549095169185019190915290810180549192840191610d4a90611ab1565b80601f0160208091040260200160405190810160405280929190818152602001828054610d7690611ab1565b8015610dc35780601f10610d9857610100808354040283529160200191610dc3565b820191906000526020600020905b815481529060010190602001808311610da657829003601f168201915b5050509190925250505060208101519091506001600160a01b0316158015610e1357506001600160a01b037f00000000000000000000000000000000000000000000000000000000000000001615155b1561079b576040517f2a50c1460000000000000000000000000000000000000000000000000000000081526001600160a01b0383811660048301527f00000000000000000000000000000000000000000000000000000000000000001690632a50c14690602401600060405180830381865afa925050508015610eb857506040513d6000823e601f3d908101601f19168201604052610eb59190810190611b29565b60015b61045d57610ec4611c06565b806308c379a003610f7e5750610ed8611c21565b80610ee35750610f80565b6040805180820190915260098152681b9bdd08199bdd5b9960ba1b6020918201528151908201207f9b887cfddc434e3cf41b666954131afc611b880c7637aac66ca1f629f8984c5b14610f785760405162461bcd60e51b815260206004820152601060248201527f756e6578706563746564206572726f72000000000000000000000000000000006044820152606401610524565b50919050565b505b3d6000803e3d6000fd5b6000828152602081815260408083206001600160a01b038516845290915290205460ff16610852576000828152602081815260408083206001600160a01b03851684529091529020805460ff19166001179055610fe43390565b6001600160a01b0316816001600160a01b0316837f2f8788117e7eff1d82e926ec794901d17c78024a50270940304540a733656f0d60405160405180910390a45050565b6000828152602081815260408083206001600160a01b038516845290915290205460ff1615610852576000828152602081815260408083206001600160a01b0385168085529252808320805460ff1916905551339285917ff6391f5c32d9c69d2a47ea670b442974b53935d1edc7fd64eb21e047a839171b9190a45050565b6000828152602081815260408083206001600160a01b038516845290915290205460ff16610852576110d8816113e4565b6110e38360206113f6565b6040516020016110f4929190611cab565b60408051601f198184030181529082905262461bcd60e51b8252610524916004016118dc565b60008347101561116c5760405162461bcd60e51b815260206004820152601d60248201527f437265617465323a20696e73756666696369656e742062616c616e63650000006044820152606401610524565b81516000036111bd5760405162461bcd60e51b815260206004820181905260248201527f437265617465323a2062797465636f6465206c656e677468206973207a65726f6044820152606401610524565b8282516020840186f590506001600160a01b0381166104775760405162461bcd60e51b815260206004820152601960248201527f437265617465323a204661696c6564206f6e206465706c6f79000000000000006044820152606401610524565b600061122985610ce1565b602001516001600160a01b0316146112835760405162461bcd60e51b815260206004820152601260248201527f616c7265616479207265676973746572656400000000000000000000000000006044820152606401610524565b826001600160a01b03167f8d3f2558914d24d1627609279aec4a8b1033bb2e86f4fc8118aba14785e3fc398584846040516112c093929190611d2c565b60405180910390a26001805480820182556000919091527fb10e2d527612073b26eecdfd717e6a320cf44b4afac2b0732d9fcbe2b7fa0cf601805473ffffffffffffffffffffffffffffffffffffffff19166001600160a01b03868116918217909255604080516060810182529182529185166020808301919091528251601f85018290048202810182018452848152919283019190859085908190840183828082843760009201829052509390945250506001600160a01b038088168252600260208181526040938490208651815490851673ffffffffffffffffffffffffffffffffffffffff19918216178255918701516001820180549190951692169190911790925591840151909250908201906113db9082611db1565b50505050505050565b606061045d6001600160a01b03831660145b60606000611405836002611e71565b611410906002611a9e565b67ffffffffffffffff81111561142857611428611619565b6040519080825280601f01601f191660200182016040528015611452576020820181803683370190505b5090507f300000000000000000000000000000000000000000000000000000000000000081600081518110611489576114896119bf565b60200101906001600160f81b031916908160001a9053507f7800000000000000000000000000000000000000000000000000000000000000816001815181106114d4576114d46119bf565b60200101906001600160f81b031916908160001a90535060006114f8846002611e71565b611503906001611a9e565b90505b6001811115611588577f303132333435363738396162636465660000000000000000000000000000000085600f1660108110611544576115446119bf565b1a60f81b82828151811061155a5761155a6119bf565b60200101906001600160f81b031916908160001a90535060049490941c9361158181611e88565b9050611506565b5083156104775760405162461bcd60e51b815260206004820181905260248201527f537472696e67733a20686578206c656e67746820696e73756666696369656e746044820152606401610524565b6000602082840312156115e957600080fd5b81357fffffffff000000000000000000000000000000000000000000000000000000008116811461047757600080fd5b634e487b7160e01b600052604160045260246000fd5b6060810181811067ffffffffffffffff8211171561164f5761164f611619565b60405250565b601f8201601f1916810167ffffffffffffffff8111828210171561167b5761167b611619565b6040525050565b600067ffffffffffffffff82111561169c5761169c611619565b50601f01601f191660200190565b600082601f8301126116bb57600080fd5b81356116c681611682565b6040516116d38282611655565b8281528560208487010111156116e857600080fd5b82602086016020830137600092810160200192909252509392505050565b6000806040838503121561171957600080fd5b82359150602083013567ffffffffffffffff81111561173757600080fd5b611743858286016116aa565b9150509250929050565b6000806020838503121561176057600080fd5b823567ffffffffffffffff8082111561177857600080fd5b818501915085601f83011261178c57600080fd5b81358181111561179b57600080fd5b8660208260051b85010111156117b057600080fd5b60209290920196919550909350505050565b6000602082840312156117d457600080fd5b5035919050565b6001600160a01b0381168114610b9257600080fd5b803561079b816117db565b60006020828403121561180d57600080fd5b8135610477816117db565b60005b8381101561183357818101518382015260200161181b565b50506000910152565b60008151808452611854816020860160208601611818565b601f01601f19169290920160200192915050565b6020815260006001600160a01b038084511660208401528060208501511660408401525060408301516060808401526118a4608084018261183c565b949350505050565b600080604083850312156118bf57600080fd5b8235915060208301356118d1816117db565b809150509250929050565b602081526000610477602083018461183c565b600080600080600080600060c0888a03121561190a57600080fd5b8735965060208801359550604088013567ffffffffffffffff8082111561193057600080fd5b61193c8b838c016116aa565b965060608a0135915061194e826117db565b9094506080890135908082111561196457600080fd5b818a0191508a601f83011261197857600080fd5b81358181111561198757600080fd5b8b602082850101111561199957600080fd5b6020830195508094505050506119b160a089016117f0565b905092959891949750929550565b634e487b7160e01b600052603260045260246000fd5b6000823560be198336030181126119eb57600080fd5b9190910192915050565b634e487b7160e01b600052601160045260246000fd5b8181038181111561045d5761045d6119f5565b6000808335601e19843603018112611a3557600080fd5b83018035915067ffffffffffffffff821115611a5057600080fd5b602001915036819003821315611a6557600080fd5b9250929050565b600060018201611a7e57611a7e6119f5565b5060010190565b600060208284031215611a9757600080fd5b5051919050565b8082018082111561045d5761045d6119f5565b600181811c90821680611ac557607f821691505b602082108103610f7857634e487b7160e01b600052602260045260246000fd5b60006001600160a01b03808816835286602084015285604084015260a06060840152611b1460a084018661183c565b91508084166080840152509695505050505050565b60006020808385031215611b3c57600080fd5b825167ffffffffffffffff80821115611b5457600080fd5b9084019060608287031215611b6857600080fd5b604051611b748161162f565b8251611b7f816117db565b815282840151611b8e816117db565b81850152604083015182811115611ba457600080fd5b80840193505086601f840112611bb957600080fd5b82519150611bc682611682565b604051611bd38282611655565b8381528886858701011115611be757600080fd5b611bf684878301888801611818565b6040830152509695505050505050565b600060033d11156109215760046000803e5060005160e01c90565b600060443d1015611c2f5790565b6040516003193d81016004833e81513d67ffffffffffffffff8160248401118184111715611c5f57505050505090565b8285019150815181811115611c775750505050505090565b843d8701016020828501011115611c915750505050505090565b611ca060208286010187611655565b509095945050505050565b7f416363657373436f6e74726f6c3a206163636f756e7420000000000000000000815260008351611ce3816017850160208801611818565b7f206973206d697373696e6720726f6c65200000000000000000000000000000006017918401918201528351611d20816028840160208801611818565b01602801949350505050565b6001600160a01b038416815260406020820152816040820152818360608301376000818301606090810191909152601f909201601f1916010192915050565b601f8211156107c557600081815260208120601f850160051c81016020861015611d925750805b601f850160051c820191505b81811015610cd957828155600101611d9e565b815167ffffffffffffffff811115611dcb57611dcb611619565b611ddf81611dd98454611ab1565b84611d6b565b602080601f831160018114611e145760008415611dfc5750858301515b600019600386901b1c1916600185901b178555610cd9565b600085815260208120601f198616915b82811015611e4357888601518255948401946001909101908401611e24565b5085821015611e615787850151600019600388901b60f8161c191681555b5050505050600190811b01905550565b808202811582820484141761045d5761045d6119f5565b600081611e9757611e976119f5565b50600019019056fea2646970667358221220e29fdb4d3f0136f4f59f15c9c79662d2396cf6d386f986c7ef8317f8af8552f664736f6c634300081300330d8b58cba732a42811e1f217ab43cccb14f1a8263ebb61afbf13838fcdae9df9",
  "linkReferences": {},
  "deployedLinkReferences": {}
}