{
  "_format": "hh-sol-artifact-1",
  "contractName": "PermissionedContractFactory",
  "sourceName": "contracts/PermissionedContractFactory.sol",
  "abi": [
    {
      "inputs": [
        {
          "internalType": "address[]",
          "name": "admins",
          "type": "address[]"
        },
        {
          "internalType": "address[]",
          "name": "creators",
          "type": "address[]"
        },
        {
          "internalType": "contract IContractMetadataRegistory",
          "name": "_prevRegistory",
          "type": "address"
        }
      ],
      "stateMutability": "nonpayable",
      "type": "constructor"
    },
    {
      "anonymous": false,
      "inputs": [
        {
          "indexed": false,
          "internalType": "address",
          "name": "creator",
          "type": "address"
        },
        {
          "indexed": false,
          "internalType": "uint256",
          "name": "amount",
          "type": "uint256"
        },
        {
          "indexed": false,
          "internalType": "bytes32",
          "name": "salt",
          "type": "bytes32"
        },
        {
          "indexed": false,
          "internalType": "bytes",
          "name": "bytecode",
          "type": "bytes"
        },
        {
          "indexed": false,
          "internalType": "address",
          "name": "newContract",
          "type": "address"
        }
      ],
      "name": "ContractCreated",
      "type": "event"
    },
    {
      "anonymous": false,
      "inputs": [
        {
          "indexed": true,
          "internalType": "address",
          "name": "creator",
          "type": "address"
        },
        {
          "indexed": false,
          "internalType": "address",
          "name": "createdAddress",
          "type": "address"
        },
        {
          "indexed": false,
          "internalType": "string",
          "name": "tag",
          "type": "string"
        }
      ],
      "name": "Registerd",
      "type": "event"
    },
    {
      "anonymous": false,
      "inputs": [
        {
          "indexed": true,
          "internalType": "bytes32",
          "name": "role",
          "type": "bytes32"
        },
        {
          "indexed": true,
          "internalType": "bytes32",
          "name": "previousAdminRole",
          "type": "bytes32"
        },
        {
          "indexed": true,
          "internalType": "bytes32",
          "name": "newAdminRole",
          "type": "bytes32"
        }
      ],
      "name": "RoleAdminChanged",
      "type": "event"
    },
    {
      "anonymous": false,
      "inputs": [
        {
          "indexed": true,
          "internalType": "bytes32",
          "name": "role",
          "type": "bytes32"
        },
        {
          "indexed": true,
          "internalType": "address",
          "name": "account",
          "type": "address"
        },
        {
          "indexed": true,
          "internalType": "address",
          "name": "sender",
          "type": "address"
        }
      ],
      "name": "RoleGranted",
      "type": "event"
    },
    {
      "anonymous": false,
      "inputs": [
        {
          "indexed": true,
          "internalType": "bytes32",
          "name": "role",
          "type": "bytes32"
        },
        {
          "indexed": true,
          "internalType": "address",
          "name": "account",
          "type": "address"
        },
        {
          "indexed": true,
          "internalType": "address",
          "name": "sender",
          "type": "address"
        }
      ],
      "name": "RoleRevoked",
      "type": "event"
    },
    {
      "inputs": [],
      "name": "CONTRACT_CREATOR_ROLE",
      "outputs": [
        {
          "internalType": "bytes32",
          "name": "",
          "type": "bytes32"
        }
      ],
      "stateMutability": "view",
      "type": "function"
    },
    {
      "inputs": [],
      "name": "DEFAULT_ADMIN_ROLE",
      "outputs": [
        {
          "internalType": "bytes32",
          "name": "",
          "type": "bytes32"
        }
      ],
      "stateMutability": "view",
      "type": "function"
    },
    {
      "inputs": [
        {
          "components": [
            {
              "internalType": "uint256",
              "name": "amount",
              "type": "uint256"
            },
            {
              "internalType": "bytes32",
              "name": "salt",
              "type": "bytes32"
            },
            {
              "internalType": "bytes",
              "name": "bytecode",
              "type": "bytes"
            },
            {
              "internalType": "address",
              "name": "expected",
              "type": "address"
            },
            {
              "internalType": "string",
              "name": "tag",
              "type": "string"
            },
            {
              "internalType": "address",
              "name": "owner",
              "type": "address"
            }
          ],
          "internalType": "struct PermissionedContractFactory.DeployContract[]",
          "name": "deployContracts",
          "type": "tuple[]"
        }
      ],
      "name": "bulkCreate",
      "outputs": [],
      "stateMutability": "payable",
      "type": "function"
    },
    {
      "inputs": [
        {
          "internalType": "uint256",
          "name": "amount",
          "type": "uint256"
        },
        {
          "internalType": "bytes32",
          "name": "salt",
          "type": "bytes32"
        },
        {
          "internalType": "bytes",
          "name": "bytecode",
          "type": "bytes"
        },
        {
          "internalType": "address",
          "name": "expected",
          "type": "address"
        },
        {
          "internalType": "string",
          "name": "tag",
          "type": "string"
        },
        {
          "internalType": "address",
          "name": "owner",
          "type": "address"
        }
      ],
      "name": "create",
      "outputs": [
        {
          "internalType": "address",
          "name": "addr",
          "type": "address"
        }
      ],
      "stateMutability": "payable",
      "type": "function"
    },
    {
      "inputs": [
        {
          "internalType": "bytes32",
          "name": "salt",
          "type": "bytes32"
        },
        {
          "internalType": "bytes",
          "name": "bytecode",
          "type": "bytes"
        }
      ],
      "name": "getDeploymentAddress",
      "outputs": [
        {
          "internalType": "address",
          "name": "addr",
          "type": "address"
        }
      ],
      "stateMutability": "view",
      "type": "function"
    },
    {
      "inputs": [
        {
          "internalType": "address",
          "name": "createdAddress",
          "type": "address"
        }
      ],
      "name": "getMetadata",
      "outputs": [
        {
          "components": [
            {
              "internalType": "address",
              "name": "createdAddress",
              "type": "address"
            },
            {
              "internalType": "address",
              "name": "creator",
              "type": "address"
            },
            {
              "internalType": "string",
              "name": "tag",
              "type": "string"
            }
          ],
          "internalType": "struct IContractMetadataRegistory.ContractMetadata",
          "name": "meta",
          "type": "tuple"
        }
      ],
      "stateMutability": "view",
      "type": "function"
    },
    {
      "inputs": [
        {
          "internalType": "uint256",
          "name": "index",
          "type": "uint256"
        }
      ],
      "name": "getMetadataByIndex",
      "outputs": [
        {
          "components": [
            {
              "internalType": "address",
              "name": "createdAddress",
              "type": "address"
            },
            {
              "internalType": "address",
              "name": "creator",
              "type": "address"
            },
            {
              "internalType": "string",
              "name": "tag",
              "type": "string"
            }
          ],
          "internalType": "struct IContractMetadataRegistory.ContractMetadata",
          "name": "",
          "type": "tuple"
        }
      ],
      "stateMutability": "view",
      "type": "function"
    },
    {
      "inputs": [
        {
          "internalType": "bytes32",
          "name": "role",
          "type": "bytes32"
        }
      ],
      "name": "getRoleAdmin",
      "outputs": [
        {
          "internalType": "bytes32",
          "name": "",
          "type": "bytes32"
        }
      ],
      "stateMutability": "view",
      "type": "function"
    },
    {
      "inputs": [
        {
          "internalType": "bytes32",
          "name": "role",
          "type": "bytes32"
        },
        {
          "internalType": "address",
          "name": "account",
          "type": "address"
        }
      ],
      "name": "grantRole",
      "outputs": [],
      "stateMutability": "nonpayable",
      "type": "function"
    },
    {
      "inputs": [
        {
          "internalType": "bytes32",
          "name": "role",
          "type": "bytes32"
        },
        {
          "internalType": "address",
          "name": "account",
          "type": "address"
        }
      ],
      "name": "hasRole",
      "outputs": [
        {
          "internalType": "bool",
          "name": "",
          "type": "bool"
        }
      ],
      "stateMutability": "view",
      "type": "function"
    },
    {
      "inputs": [],
      "name": "prevRegistory",
      "outputs": [
        {
          "internalType": "contract IContractMetadataRegistory",
          "name": "",
          "type": "address"
        }
      ],
      "stateMutability": "view",
      "type": "function"
    },
    {
      "inputs": [
        {
          "internalType": "bytes32",
          "name": "role",
          "type": "bytes32"
        },
        {
          "internalType": "address",
          "name": "account",
          "type": "address"
        }
      ],
      "name": "renounceRole",
      "outputs": [],
      "stateMutability": "nonpayable",
      "type": "function"
    },
    {
      "inputs": [
        {
          "internalType": "bytes32",
          "name": "role",
          "type": "bytes32"
        },
        {
          "internalType": "address",
          "name": "account",
          "type": "address"
        }
      ],
      "name": "revokeRole",
      "outputs": [],
      "stateMutability": "nonpayable",
      "type": "function"
    },
    {
      "inputs": [
        {
          "internalType": "bytes4",
          "name": "interfaceId",
          "type": "bytes4"
        }
      ],
      "name": "supportsInterface",
      "outputs": [
        {
          "internalType": "bool",
          "name": "",
          "type": "bool"
        }
      ],
      "stateMutability": "view",
      "type": "function"
    },
    {
      "inputs": [],
      "name": "totalCreatedContract",
      "outputs": [
        {
          "internalType": "uint256",
          "name": "total",
          "type": "uint256"
        }
      ],
      "stateMutability": "view",
      "type": "function"
    },
    {
      "inputs": [],
      "name": "version",
      "outputs": [
        {
          "internalType": "string",
          "name": "",
          "type": "string"
        }
      ],
      "stateMutability": "pure",
      "type": "function"
    }
  ],
  "bytecode": "0x60a06040523480156200001157600080fd5b50604051620024e5380380620024e5833981016040819052620000349162000407565b6001600160a01b0381166080526200004e6000806200021e565b6200006a600080516020620024c583398151915260006200021e565b60005b83518160ff1610156200013f5760006001600160a01b0316848260ff16815181106200009d576200009d62000487565b60200260200101516001600160a01b031603620000f65760405162461bcd60e51b81526020600482015260126024820152715043433a2061646d696e206973207a65726f60701b60448201526064015b60405180910390fd5b6200012a6000801b858360ff168151811062000116576200011662000487565b60200260200101516200026960201b60201c565b8062000136816200049d565b9150506200006d565b5060005b82518160ff161015620002145760006001600160a01b0316838260ff168151811062000173576200017362000487565b60200260200101516001600160a01b031603620001d35760405162461bcd60e51b815260206004820152601460248201527f5043433a2063726561746f72206973207a65726f0000000000000000000000006044820152606401620000ed565b620001ff600080516020620024c5833981519152848360ff168151811062000116576200011662000487565b806200020b816200049d565b91505062000143565b50505050620004cb565b600082815260208190526040808220600101805490849055905190918391839186917fbd79b86ffe0ab8e8776151514217cd7cacd52c909f66475c3af44e129f0b00ff9190a4505050565b62000275828262000279565b5050565b6000828152602081815260408083206001600160a01b038516845290915290205460ff1662000275576000828152602081815260408083206001600160a01b03851684529091529020805460ff19166001179055620002d53390565b6001600160a01b0316816001600160a01b0316837f2f8788117e7eff1d82e926ec794901d17c78024a50270940304540a733656f0d60405160405180910390a45050565b634e487b7160e01b600052604160045260246000fd5b6001600160a01b03811681146200034557600080fd5b50565b805162000355816200032f565b919050565b600082601f8301126200036c57600080fd5b815160206001600160401b03808311156200038b576200038b62000319565b8260051b604051601f19603f83011681018181108482111715620003b357620003b362000319565b604052938452858101830193838101925087851115620003d257600080fd5b83870191505b84821015620003fc57620003ec8262000348565b83529183019190830190620003d8565b979650505050505050565b6000806000606084860312156200041d57600080fd5b83516001600160401b03808211156200043557600080fd5b62000443878388016200035a565b945060208601519150808211156200045a57600080fd5b5062000469868287016200035a565b92505060408401516200047c816200032f565b809150509250925092565b634e487b7160e01b600052603260045260246000fd5b600060ff821660ff8103620004c257634e487b7160e01b600052601160045260246000fd5b60010192915050565b608051611fad6200051860003960008181610378015281816108470152818161086e01528181610a4d01528181610b7001528181610c320152818161104001526110a00152611fad6000f3fe6080604052600436106100f35760003560e01c80634de79ecc1161008a578063a217fddf11610059578063a217fddf14610311578063d547741f14610326578063da58f37e14610346578063f593ee351461036657600080fd5b80634de79ecc1461025957806354fd4d501461026e57806372af32a8146102ba57806391d14854146102cd57600080fd5b8063248a9ca3116100c6578063248a9ca3146101bc5780632a50c146146101ec5780632f2ff15d1461021957806336568abe1461023957600080fd5b806301ffc9a7146100f857806309b1eca61461012d5780630b19429e1461016557806320abc1e2146101a7575b600080fd5b34801561010457600080fd5b5061011861011336600461175c565b61039a565b60405190151581526020015b60405180910390f35b34801561013957600080fd5b5061014d61014836600461188c565b610433565b6040516001600160a01b039091168152602001610124565b34801561017157600080fd5b506101997f0d8b58cba732a42811e1f217ab43cccb14f1a8263ebb61afbf13838fcdae9df981565b604051908152602001610124565b6101ba6101b53660046118d3565b61044e565b005b3480156101c857600080fd5b506101996101d7366004611948565b60009081526020819052604090206001015490565b3480156101f857600080fd5b5061020c610207366004611981565b6106fd565b60405161012491906119ee565b34801561022557600080fd5b506101ba610234366004611a32565b610784565b34801561024557600080fd5b506101ba610254366004611a32565b6107ae565b34801561026557600080fd5b5061019961083a565b34801561027a57600080fd5b50604080518082018252600581527f302e302e32000000000000000000000000000000000000000000000000000000602082015290516101249190611a62565b61014d6102c8366004611a75565b6108fe565b3480156102d957600080fd5b506101186102e8366004611a32565b6000918252602082815260408084206001600160a01b0393909316845291905290205460ff1690565b34801561031d57600080fd5b50610199600081565b34801561033257600080fd5b506101ba610341366004611a32565b61099f565b34801561035257600080fd5b5061020c610361366004611948565b6109c4565b34801561037257600080fd5b5061014d7f000000000000000000000000000000000000000000000000000000000000000081565b60007fffffffff0000000000000000000000000000000000000000000000000000000082167f7965db0b00000000000000000000000000000000000000000000000000000000148061042d57507f01ffc9a7000000000000000000000000000000000000000000000000000000007fffffffff000000000000000000000000000000000000000000000000000000008316145b92915050565b600061044783838051906020012030610dae565b9392505050565b7f0d8b58cba732a42811e1f217ab43cccb14f1a8263ebb61afbf13838fcdae9df961047881610dd8565b3460005b838110156106a8578185858381811061049757610497611b45565b90506020028101906104a99190611b5b565b3511156104fd5760405162461bcd60e51b815260206004820152601d60248201527f5043433a20696e73756666696369656e7420616d6f756e742073656e7400000060448201526064015b60405180910390fd5b84848281811061050f5761050f611b45565b90506020028101906105219190611b5b565b61052c903583611b91565b9150600061065586868481811061054557610545611b45565b90506020028101906105579190611b5b565b3587878581811061056a5761056a611b45565b905060200281019061057c9190611b5b565b6020013588888681811061059257610592611b45565b90506020028101906105a49190611b5b565b6105b2906040810190611ba4565b8080601f0160208091040260200160405190810160405280939291908181526020018383808284376000920191909152508c92508b91508890508181106105fb576105fb611b45565b905060200281019061060d9190611b5b565b61061e906080810190606001611981565b8a8a8881811061063057610630611b45565b90506020028101906106429190611b5b565b610650906080810190611ba4565b610de5565b90506106958187878581811061066d5761066d611b45565b905060200281019061067f9190611b5b565b6106909060c081019060a001611981565b610eaa565b50806106a081611bf2565b91505061047c565b5080156106f75760405162461bcd60e51b815260206004820152601960248201527f5043433a20746f6f206d75636820616d6f756e742073656e740000000000000060448201526064016104f4565b50505050565b6040805160608082018352600080835260208301529181019190915261072282610f31565b60208101519091506001600160a01b031661077f5760405162461bcd60e51b815260206004820152600960248201527f6e6f7420666f756e64000000000000000000000000000000000000000000000060448201526064016104f4565b919050565b60008281526020819052604090206001015461079f81610dd8565b6107a9838361110f565b505050565b6001600160a01b038116331461082c5760405162461bcd60e51b815260206004820152602f60248201527f416363657373436f6e74726f6c3a2063616e206f6e6c792072656e6f756e636560448201527f20726f6c657320666f722073656c66000000000000000000000000000000000060648201526084016104f4565b61083682826111ad565b5050565b6001546001600160a01b037f000000000000000000000000000000000000000000000000000000000000000016156108fb577f00000000000000000000000000000000000000000000000000000000000000006001600160a01b0316634de79ecc6040518163ffffffff1660e01b8152600401602060405180830381865afa1580156108ca573d6000803e3d6000fd5b505050506040513d601f19601f820116820180604052508101906108ee9190611c0b565b6108f89082611c24565b90505b90565b60007f0d8b58cba732a42811e1f217ab43cccb14f1a8263ebb61afbf13838fcdae9df961092a81610dd8565b8834146109795760405162461bcd60e51b815260206004820152601a60248201527f5043433a20696e636f727265637420616d6f756e742073656e7400000000000060448201526064016104f4565b610987898989898989610de5565b91506109938284610eaa565b50979650505050505050565b6000828152602081905260409020600101546109ba81610dd8565b6107a983836111ad565b6040805160608082018352600080835260208301529181019190915260016109ea61083a565b6109f49190611b91565b821115610a435760405162461bcd60e51b815260206004820152601260248201527f696e646578206f7574206f662072616e6765000000000000000000000000000060448201526064016104f4565b6001600160a01b037f000000000000000000000000000000000000000000000000000000000000000016610b6c576002600060018481548110610a8857610a88611b45565b60009182526020808320909101546001600160a01b03908116845283820194909452604092830190912082516060810184528154851681526001820154909416918401919091526002810180549192840191610ae390611c37565b80601f0160208091040260200160405190810160405280929190818152602001828054610b0f90611c37565b8015610b5c5780601f10610b3157610100808354040283529160200191610b5c565b820191906000526020600020905b815481529060010190602001808311610b3f57829003601f168201915b5050505050815250509050919050565b60007f00000000000000000000000000000000000000000000000000000000000000006001600160a01b0316634de79ecc6040518163ffffffff1660e01b8152600401602060405180830381865afa158015610bcc573d6000803e3d6000fd5b505050506040513d601f19601f82011682018060405250810190610bf09190611c0b565b9050610bfd600182611b91565b8311610ca9576040517fda58f37e000000000000000000000000000000000000000000000000000000008152600481018490527f00000000000000000000000000000000000000000000000000000000000000006001600160a01b03169063da58f37e90602401600060405180830381865afa158015610c81573d6000803e3d6000fd5b505050506040513d6000823e601f3d908101601f191682016040526104479190810190611c71565b600260006001610cb98487611b91565b81548110610cc957610cc9611b45565b60009182526020808320909101546001600160a01b03908116845283820194909452604092830190912082516060810184528154851681526001820154909416918401919091526002810180549192840191610d2490611c37565b80601f0160208091040260200160405190810160405280929190818152602001828054610d5090611c37565b8015610d9d5780601f10610d7257610100808354040283529160200191610d9d565b820191906000526020600020905b815481529060010190602001808311610d8057829003601f168201915b505050505081525050915050919050565b6000604051836040820152846020820152828152600b8101905060ff815360559020949350505050565b610de2813361122c565b50565b6000610df287878761129f565b9050836001600160a01b0316816001600160a01b031614610e555760405162461bcd60e51b815260206004820152601760248201527f5043433a20756e6578706563746564206164647265737300000000000000000060448201526064016104f4565b7f388d923fb867b31389c9da49a5a9b552bd44cde0717beb38a215d99ef09778db3388888885604051610e8c959493929190611d3f565b60405180910390a1610ea0813385856113a3565b9695505050505050565b6001600160a01b03811615610836576040517ff2fde38b0000000000000000000000000000000000000000000000000000000081526001600160a01b03828116600483015283169063f2fde38b90602401600060405180830381600087803b158015610f1557600080fd5b505af1158015610f29573d6000803e3d6000fd5b505050505050565b604080516060808201835260008083526020830152918101919091526001600160a01b03808316600090815260026020818152604092839020835160608101855281548616815260018201549095169185019190915290810180549192840191610f9a90611c37565b80601f0160208091040260200160405190810160405280929190818152602001828054610fc690611c37565b80156110135780601f10610fe857610100808354040283529160200191611013565b820191906000526020600020905b815481529060010190602001808311610ff657829003601f168201915b5050509190925250505060208101519091506001600160a01b031615801561106357506001600160a01b037f00000000000000000000000000000000000000000000000000000000000000001615155b1561077f576040517f2a50c1460000000000000000000000000000000000000000000000000000000081526001600160a01b0383811660048301527f00000000000000000000000000000000000000000000000000000000000000001690632a50c14690602401600060405180830381865afa1580156110e7573d6000803e3d6000fd5b505050506040513d6000823e601f3d908101601f1916820160405261042d9190810190611c71565b6000828152602081815260408083206001600160a01b038516845290915290205460ff16610836576000828152602081815260408083206001600160a01b03851684529091529020805460ff191660011790556111693390565b6001600160a01b0316816001600160a01b0316837f2f8788117e7eff1d82e926ec794901d17c78024a50270940304540a733656f0d60405160405180910390a45050565b6000828152602081815260408083206001600160a01b038516845290915290205460ff1615610836576000828152602081815260408083206001600160a01b0385168085529252808320805460ff1916905551339285917ff6391f5c32d9c69d2a47ea670b442974b53935d1edc7fd64eb21e047a839171b9190a45050565b6000828152602081815260408083206001600160a01b038516845290915290205460ff166108365761125d81611569565b61126883602061157b565b604051602001611279929190611d83565b60408051601f198184030181529082905262461bcd60e51b82526104f491600401611a62565b6000834710156112f15760405162461bcd60e51b815260206004820152601d60248201527f437265617465323a20696e73756666696369656e742062616c616e636500000060448201526064016104f4565b81516000036113425760405162461bcd60e51b815260206004820181905260248201527f437265617465323a2062797465636f6465206c656e677468206973207a65726f60448201526064016104f4565b8282516020840186f590506001600160a01b0381166104475760405162461bcd60e51b815260206004820152601960248201527f437265617465323a204661696c6564206f6e206465706c6f790000000000000060448201526064016104f4565b60006113ae85610f31565b602001516001600160a01b0316146114085760405162461bcd60e51b815260206004820152601260248201527f616c72656164792072656769737465726564000000000000000000000000000060448201526064016104f4565b826001600160a01b03167f8d3f2558914d24d1627609279aec4a8b1033bb2e86f4fc8118aba14785e3fc3985848460405161144593929190611e04565b60405180910390a26001805480820182556000919091527fb10e2d527612073b26eecdfd717e6a320cf44b4afac2b0732d9fcbe2b7fa0cf601805473ffffffffffffffffffffffffffffffffffffffff19166001600160a01b03868116918217909255604080516060810182529182529185166020808301919091528251601f85018290048202810182018452848152919283019190859085908190840183828082843760009201829052509390945250506001600160a01b038088168252600260208181526040938490208651815490851673ffffffffffffffffffffffffffffffffffffffff19918216178255918701516001820180549190951692169190911790925591840151909250908201906115609082611e89565b50505050505050565b606061042d6001600160a01b03831660145b6060600061158a836002611f49565b611595906002611c24565b67ffffffffffffffff8111156115ad576115ad61179e565b6040519080825280601f01601f1916602001820160405280156115d7576020820181803683370190505b5090507f30000000000000000000000000000000000000000000000000000000000000008160008151811061160e5761160e611b45565b60200101906001600160f81b031916908160001a9053507f78000000000000000000000000000000000000000000000000000000000000008160018151811061165957611659611b45565b60200101906001600160f81b031916908160001a905350600061167d846002611f49565b611688906001611c24565b90505b600181111561170d577f303132333435363738396162636465660000000000000000000000000000000085600f16601081106116c9576116c9611b45565b1a60f81b8282815181106116df576116df611b45565b60200101906001600160f81b031916908160001a90535060049490941c9361170681611f60565b905061168b565b5083156104475760405162461bcd60e51b815260206004820181905260248201527f537472696e67733a20686578206c656e67746820696e73756666696369656e7460448201526064016104f4565b60006020828403121561176e57600080fd5b81357fffffffff000000000000000000000000000000000000000000000000000000008116811461044757600080fd5b634e487b7160e01b600052604160045260246000fd5b6040516060810167ffffffffffffffff811182821017156117d7576117d761179e565b60405290565b604051601f8201601f1916810167ffffffffffffffff811182821017156118065761180661179e565b604052919050565b600067ffffffffffffffff8211156118285761182861179e565b50601f01601f191660200190565b600082601f83011261184757600080fd5b813561185a6118558261180e565b6117dd565b81815284602083860101111561186f57600080fd5b816020850160208301376000918101602001919091529392505050565b6000806040838503121561189f57600080fd5b82359150602083013567ffffffffffffffff8111156118bd57600080fd5b6118c985828601611836565b9150509250929050565b600080602083850312156118e657600080fd5b823567ffffffffffffffff808211156118fe57600080fd5b818501915085601f83011261191257600080fd5b81358181111561192157600080fd5b8660208260051b850101111561193657600080fd5b60209290920196919550909350505050565b60006020828403121561195a57600080fd5b5035919050565b6001600160a01b0381168114610de257600080fd5b803561077f81611961565b60006020828403121561199357600080fd5b813561044781611961565b60005b838110156119b95781810151838201526020016119a1565b50506000910152565b600081518084526119da81602086016020860161199e565b601f01601f19169290920160200192915050565b6020815260006001600160a01b03808451166020840152806020850151166040840152506040830151606080840152611a2a60808401826119c2565b949350505050565b60008060408385031215611a4557600080fd5b823591506020830135611a5781611961565b809150509250929050565b60208152600061044760208301846119c2565b600080600080600080600060c0888a031215611a9057600080fd5b8735965060208801359550604088013567ffffffffffffffff80821115611ab657600080fd5b611ac28b838c01611836565b965060608a01359150611ad482611961565b90945060808901359080821115611aea57600080fd5b818a0191508a601f830112611afe57600080fd5b813581811115611b0d57600080fd5b8b6020828501011115611b1f57600080fd5b602083019550809450505050611b3760a08901611976565b905092959891949750929550565b634e487b7160e01b600052603260045260246000fd5b6000823560be19833603018112611b7157600080fd5b9190910192915050565b634e487b7160e01b600052601160045260246000fd5b8181038181111561042d5761042d611b7b565b6000808335601e19843603018112611bbb57600080fd5b83018035915067ffffffffffffffff821115611bd657600080fd5b602001915036819003821315611beb57600080fd5b9250929050565b600060018201611c0457611c04611b7b565b5060010190565b600060208284031215611c1d57600080fd5b5051919050565b8082018082111561042d5761042d611b7b565b600181811c90821680611c4b57607f821691505b602082108103611c6b57634e487b7160e01b600052602260045260246000fd5b50919050565b60006020808385031215611c8457600080fd5b825167ffffffffffffffff80821115611c9c57600080fd5b9084019060608287031215611cb057600080fd5b611cb86117b4565b8251611cc381611961565b815282840151611cd281611961565b81850152604083015182811115611ce857600080fd5b80840193505086601f840112611cfd57600080fd5b82519150611d0d6118558361180e565b8281528785848601011115611d2157600080fd5b611d308386830187870161199e565b60408201529695505050505050565b60006001600160a01b03808816835286602084015285604084015260a06060840152611d6e60a08401866119c2565b91508084166080840152509695505050505050565b7f416363657373436f6e74726f6c3a206163636f756e7420000000000000000000815260008351611dbb81601785016020880161199e565b7f206973206d697373696e6720726f6c65200000000000000000000000000000006017918401918201528351611df881602884016020880161199e565b01602801949350505050565b6001600160a01b038416815260406020820152816040820152818360608301376000818301606090810191909152601f909201601f1916010192915050565b601f8211156107a957600081815260208120601f850160051c81016020861015611e6a5750805b601f850160051c820191505b81811015610f2957828155600101611e76565b815167ffffffffffffffff811115611ea357611ea361179e565b611eb781611eb18454611c37565b84611e43565b602080601f831160018114611eec5760008415611ed45750858301515b600019600386901b1c1916600185901b178555610f29565b600085815260208120601f198616915b82811015611f1b57888601518255948401946001909101908401611efc565b5085821015611f395787850151600019600388901b60f8161c191681555b5050505050600190811b01905550565b808202811582820484141761042d5761042d611b7b565b600081611f6f57611f6f611b7b565b50600019019056fea26469706673582212201a61d098f30066cae0ae7908bfadc2db0b3d04ee943e5b6b40255a14b2a56ba264736f6c634300081300330d8b58cba732a42811e1f217ab43cccb14f1a8263ebb61afbf13838fcdae9df9",
  "linkReferences": {},
  "deployedLinkReferences": {}
}