{
  "_format": "hh-sol-artifact-1",
  "contractName": "ExtendEVMAccessControl",
  "sourceName": "contracts/test/ExtendEVMAccessControl.sol",
  "abi": [
    {
      "inputs": [
        {
          "internalType": "address[]",
          "name": "admins",
          "type": "address[]"
        },
        {
          "internalType": "address[]",
          "name": "managers",
          "type": "address[]"
        }
      ],
      "stateMutability": "nonpayable",
      "type": "constructor"
    },
    {
      "anonymous": false,
      "inputs": [
        {
          "indexed": true,
          "internalType": "address",
          "name": "addr",
          "type": "address"
        }
      ],
      "name": "CallAllowed",
      "type": "event"
    },
    {
      "anonymous": false,
      "inputs": [
        {
          "indexed": true,
          "internalType": "address",
          "name": "addr",
          "type": "address"
        }
      ],
      "name": "CallDenied",
      "type": "event"
    },
    {
      "anonymous": false,
      "inputs": [
        {
          "indexed": true,
          "internalType": "address",
          "name": "addr",
          "type": "address"
        }
      ],
      "name": "CreateAllowed",
      "type": "event"
    },
    {
      "anonymous": false,
      "inputs": [
        {
          "indexed": true,
          "internalType": "address",
          "name": "addr",
          "type": "address"
        }
      ],
      "name": "CreateDenied",
      "type": "event"
    },
    {
      "anonymous": false,
      "inputs": [
        {
          "indexed": true,
          "internalType": "bytes32",
          "name": "role",
          "type": "bytes32"
        },
        {
          "indexed": true,
          "internalType": "bytes32",
          "name": "previousAdminRole",
          "type": "bytes32"
        },
        {
          "indexed": true,
          "internalType": "bytes32",
          "name": "newAdminRole",
          "type": "bytes32"
        }
      ],
      "name": "RoleAdminChanged",
      "type": "event"
    },
    {
      "anonymous": false,
      "inputs": [
        {
          "indexed": true,
          "internalType": "bytes32",
          "name": "role",
          "type": "bytes32"
        },
        {
          "indexed": true,
          "internalType": "address",
          "name": "account",
          "type": "address"
        },
        {
          "indexed": true,
          "internalType": "address",
          "name": "sender",
          "type": "address"
        }
      ],
      "name": "RoleGranted",
      "type": "event"
    },
    {
      "anonymous": false,
      "inputs": [
        {
          "indexed": true,
          "internalType": "bytes32",
          "name": "role",
          "type": "bytes32"
        },
        {
          "indexed": true,
          "internalType": "address",
          "name": "account",
          "type": "address"
        },
        {
          "indexed": true,
          "internalType": "address",
          "name": "sender",
          "type": "address"
        }
      ],
      "name": "RoleRevoked",
      "type": "event"
    },
    {
      "inputs": [],
      "name": "DEFAULT_ADMIN_ROLE",
      "outputs": [
        {
          "internalType": "bytes32",
          "name": "",
          "type": "bytes32"
        }
      ],
      "stateMutability": "view",
      "type": "function"
    },
    {
      "inputs": [],
      "name": "MANAGER_ROLE",
      "outputs": [
        {
          "internalType": "bytes32",
          "name": "",
          "type": "bytes32"
        }
      ],
      "stateMutability": "view",
      "type": "function"
    },
    {
      "inputs": [],
      "name": "SENTINEL",
      "outputs": [
        {
          "internalType": "address",
          "name": "",
          "type": "address"
        }
      ],
      "stateMutability": "view",
      "type": "function"
    },
    {
      "inputs": [
        {
          "internalType": "bytes32",
          "name": "storageKey",
          "type": "bytes32"
        }
      ],
      "name": "accessMapValue",
      "outputs": [
        {
          "internalType": "bytes32",
          "name": "",
          "type": "bytes32"
        }
      ],
      "stateMutability": "view",
      "type": "function"
    },
    {
      "inputs": [
        {
          "internalType": "address",
          "name": "_addr",
          "type": "address"
        }
      ],
      "name": "addCallDeniedList",
      "outputs": [],
      "stateMutability": "nonpayable",
      "type": "function"
    },
    {
      "inputs": [
        {
          "internalType": "address",
          "name": "_addr",
          "type": "address"
        }
      ],
      "name": "addCreateAllowedList",
      "outputs": [],
      "stateMutability": "nonpayable",
      "type": "function"
    },
    {
      "inputs": [
        {
          "internalType": "bytes32",
          "name": "paddedAddress",
          "type": "bytes32"
        },
        {
          "internalType": "uint256",
          "name": "slot",
          "type": "uint256"
        }
      ],
      "name": "computeMapStorageKey",
      "outputs": [
        {
          "internalType": "bytes32",
          "name": "",
          "type": "bytes32"
        }
      ],
      "stateMutability": "pure",
      "type": "function"
    },
    {
      "inputs": [
        {
          "internalType": "bytes32",
          "name": "role",
          "type": "bytes32"
        }
      ],
      "name": "getRoleAdmin",
      "outputs": [
        {
          "internalType": "bytes32",
          "name": "",
          "type": "bytes32"
        }
      ],
      "stateMutability": "view",
      "type": "function"
    },
    {
      "inputs": [
        {
          "internalType": "bytes32",
          "name": "role",
          "type": "bytes32"
        },
        {
          "internalType": "address",
          "name": "account",
          "type": "address"
        }
      ],
      "name": "grantRole",
      "outputs": [],
      "stateMutability": "nonpayable",
      "type": "function"
    },
    {
      "inputs": [
        {
          "internalType": "bytes32",
          "name": "role",
          "type": "bytes32"
        },
        {
          "internalType": "address",
          "name": "account",
          "type": "address"
        }
      ],
      "name": "hasRole",
      "outputs": [
        {
          "internalType": "bool",
          "name": "",
          "type": "bool"
        }
      ],
      "stateMutability": "view",
      "type": "function"
    },
    {
      "inputs": [
        {
          "internalType": "address",
          "name": "_addr",
          "type": "address"
        }
      ],
      "name": "isAllowedToCreate",
      "outputs": [
        {
          "internalType": "bool",
          "name": "",
          "type": "bool"
        }
      ],
      "stateMutability": "view",
      "type": "function"
    },
    {
      "inputs": [
        {
          "internalType": "address",
          "name": "_addr",
          "type": "address"
        }
      ],
      "name": "isDeniedToCall",
      "outputs": [
        {
          "internalType": "bool",
          "name": "",
          "type": "bool"
        }
      ],
      "stateMutability": "view",
      "type": "function"
    },
    {
      "inputs": [
        {
          "internalType": "address",
          "name": "_cursor",
          "type": "address"
        },
        {
          "internalType": "uint256",
          "name": "_howMany",
          "type": "uint256"
        }
      ],
      "name": "listCallDenied",
      "outputs": [
        {
          "internalType": "address[]",
          "name": "",
          "type": "address[]"
        }
      ],
      "stateMutability": "view",
      "type": "function"
    },
    {
      "inputs": [
        {
          "internalType": "address",
          "name": "_cursor",
          "type": "address"
        },
        {
          "internalType": "uint256",
          "name": "_howMany",
          "type": "uint256"
        }
      ],
      "name": "listCreateAllowed",
      "outputs": [
        {
          "internalType": "address[]",
          "name": "",
          "type": "address[]"
        }
      ],
      "stateMutability": "view",
      "type": "function"
    },
    {
      "inputs": [
        {
          "internalType": "address",
          "name": "_addr",
          "type": "address"
        },
        {
          "internalType": "address",
          "name": "_prev",
          "type": "address"
        }
      ],
      "name": "removeCallDeniedList",
      "outputs": [],
      "stateMutability": "nonpayable",
      "type": "function"
    },
    {
      "inputs": [
        {
          "internalType": "address",
          "name": "_addr",
          "type": "address"
        },
        {
          "internalType": "address",
          "name": "_prev",
          "type": "address"
        }
      ],
      "name": "removeCreateAllowedList",
      "outputs": [],
      "stateMutability": "nonpayable",
      "type": "function"
    },
    {
      "inputs": [
        {
          "internalType": "bytes32",
          "name": "role",
          "type": "bytes32"
        },
        {
          "internalType": "address",
          "name": "account",
          "type": "address"
        }
      ],
      "name": "renounceRole",
      "outputs": [],
      "stateMutability": "nonpayable",
      "type": "function"
    },
    {
      "inputs": [
        {
          "internalType": "bytes32",
          "name": "role",
          "type": "bytes32"
        },
        {
          "internalType": "address",
          "name": "account",
          "type": "address"
        }
      ],
      "name": "revokeRole",
      "outputs": [],
      "stateMutability": "nonpayable",
      "type": "function"
    },
    {
      "inputs": [
        {
          "internalType": "bytes4",
          "name": "interfaceId",
          "type": "bytes4"
        }
      ],
      "name": "supportsInterface",
      "outputs": [
        {
          "internalType": "bool",
          "name": "",
          "type": "bool"
        }
      ],
      "stateMutability": "view",
      "type": "function"
    },
    {
      "inputs": [],
      "name": "version",
      "outputs": [
        {
          "internalType": "string",
          "name": "",
          "type": "string"
        }
      ],
      "stateMutability": "pure",
      "type": "function"
    }
  ],
  "bytecode": "0x60806040523480156200001157600080fd5b50604051620017f2380380620017f28339810160408190526200003491620003e2565b818160005b8251811015620001005760006001600160a01b03168382815181106200006357620000636200044c565b60200260200101516001600160a01b031603620000bc5760405162461bcd60e51b81526020600482015260126024820152714541433a2061646d696e206973207a65726f60701b60448201526064015b60405180910390fd5b620000ed6000801b848381518110620000d957620000d96200044c565b60200260200101516200025260201b60201c565b620000f88162000462565b905062000039565b5060005b8151811015620001db5760006001600160a01b03168282815181106200012e576200012e6200044c565b60200260200101516001600160a01b0316036200018e5760405162461bcd60e51b815260206004820152601460248201527f4541433a2063726561746f72206973207a65726f0000000000000000000000006044820152606401620000b3565b620001c87f241ecf16d79d0f8dbfb92cbc07fe17840425976cf0667f022fe9877caa831b08838381518110620000d957620000d96200044c565b620001d38162000462565b905062000104565b5050600160008190527fcc69885fda6bcc1a4ace058b4a62bf5e179ea78fd58a1ccd71c22cc9b688792f80546001600160a01b0319908116831790915560026020527fe90b7bceb6e7df5418fb78d8ee546e97c83a08bbccc01a0644d599ccd2a7c2e080549091169091179055506200048a915050565b6200025e828262000262565b5050565b6000828152602081815260408083206001600160a01b038516845290915290205460ff166200025e576000828152602081815260408083206001600160a01b03851684529091529020805460ff19166001179055620002be3390565b6001600160a01b0316816001600160a01b0316837f2f8788117e7eff1d82e926ec794901d17c78024a50270940304540a733656f0d60405160405180910390a45050565b634e487b7160e01b600052604160045260246000fd5b80516001600160a01b03811681146200033057600080fd5b919050565b600082601f8301126200034757600080fd5b815160206001600160401b038083111562000366576200036662000302565b8260051b604051601f19603f830116810181811084821117156200038e576200038e62000302565b604052938452858101830193838101925087851115620003ad57600080fd5b83870191505b84821015620003d757620003c78262000318565b83529183019190830190620003b3565b979650505050505050565b60008060408385031215620003f657600080fd5b82516001600160401b03808211156200040e57600080fd5b6200041c8683870162000335565b935060208501519150808211156200043357600080fd5b50620004428582860162000335565b9150509250929050565b634e487b7160e01b600052603260045260246000fd5b6000600182016200048357634e487b7160e01b600052601160045260246000fd5b5060010190565b611358806200049a6000396000f3fe608060405234801561001057600080fd5b506004361061016c5760003560e01c806390d3ed88116100cd578063d547741f11610081578063ec87621c11610066578063ec87621c14610361578063f00cab4314610388578063ff616c8e146103a857600080fd5b8063d547741f1461033b578063e969f4e11461034e57600080fd5b8063a217fddf116100b2578063a217fddf1461030e578063adf7473e14610316578063bd7f53d61461032857600080fd5b806390d3ed88146102c457806391d14854146102d757600080fd5b8063506921d01161012457806373f25c381161010957806373f25c38146102645780637723a3eb146102775780637ed5dc4a1461028a57600080fd5b8063506921d01461020557806354fd4d501461022557600080fd5b806329853b861161015557806329853b86146101ca5780632f2ff15d146101df57806336568abe146101f257600080fd5b806301ffc9a714610171578063248a9ca314610199575b600080fd5b61018461017f36600461102d565b6103bb565b60405190151581526020015b60405180910390f35b6101bc6101a736600461106f565b60009081526020819052604090206001015490565b604051908152602001610190565b6101dd6101d83660046110a4565b610454565b005b6101dd6101ed3660046110d7565b6104c3565b6101dd6102003660046110d7565b6104ed565b6102186102133660046110fa565b61057e565b6040516101909190611124565b604080518082018252600581527f312e302e30000000000000000000000000000000000000000000000000000000602082015290516101909190611195565b6101846102723660046111c8565b610593565b6101846102853660046111c8565b6105b7565b6101bc6102983660046111e3565b604080516020808201949094528082019290925280518083038201815260609092019052805191012090565b6102186102d23660046110fa565b6105db565b6101846102e53660046110d7565b6000918252602082815260408084206001600160a01b0393909316845291905290205460ff1690565b6101bc600081565b6101bc61032436600461106f565b5490565b6101dd6103363660046111c8565b6105e9565b6101dd6103493660046110d7565b610656565b6101dd61035c3660046110a4565b61067b565b6101bc7f241ecf16d79d0f8dbfb92cbc07fe17840425976cf0667f022fe9877caa831b0881565b610390600181565b6040516001600160a01b039091168152602001610190565b6101dd6103b63660046111c8565b6106ea565b60007fffffffff0000000000000000000000000000000000000000000000000000000082167f7965db0b00000000000000000000000000000000000000000000000000000000148061044e57507f01ffc9a7000000000000000000000000000000000000000000000000000000007fffffffff000000000000000000000000000000000000000000000000000000008316145b92915050565b7f241ecf16d79d0f8dbfb92cbc07fe17840425976cf0667f022fe9877caa831b0861047e81610757565b61048a60018484610764565b6040516001600160a01b038416907f4a475457a2e45f0e02800bf274aede959c4e648bd208c5af470590d2e93d073290600090a2505050565b6000828152602081905260409020600101546104de81610757565b6104e88383610956565b505050565b6001600160a01b03811633146105705760405162461bcd60e51b815260206004820152602f60248201527f416363657373436f6e74726f6c3a2063616e206f6e6c792072656e6f756e636560448201527f20726f6c657320666f722073656c66000000000000000000000000000000000060648201526084015b60405180910390fd5b61057a82826109f4565b5050565b606061058c60028484610a73565b9392505050565b6001600160a01b03808216600090815260016020526040812054909116151561044e565b6001600160a01b03808216600090815260026020526040812054909116151561044e565b606061058c60018484610a73565b7f241ecf16d79d0f8dbfb92cbc07fe17840425976cf0667f022fe9877caa831b0861061381610757565b61061e600183610b46565b6040516001600160a01b038316907fca573f65e3d72a9f457e37bb6357cbb8f4bb06010cf200e958854309620342e990600090a25050565b60008281526020819052604090206001015461067181610757565b6104e883836109f4565b7f241ecf16d79d0f8dbfb92cbc07fe17840425976cf0667f022fe9877caa831b086106a581610757565b6106b160028484610764565b6040516001600160a01b038416907f054279c30632ea9b7d314b136883c9448638eb556adc3cffb4dfac65024f416b90600090a2505050565b7f241ecf16d79d0f8dbfb92cbc07fe17840425976cf0667f022fe9877caa831b0861071481610757565b61071f600283610b46565b6040516001600160a01b038316907f2757c5d518b1e4ab9d6e4c8276711fd6bf73fbf7005ba27f059e1b5b6d56623190600090a25050565b6107618133610d0d565b50565b6001600160a01b0382166107ba5760405162461bcd60e51b815260206004820152601160248201527f4541433a2061646472206973207a65726f0000000000000000000000000000006044820152606401610567565b6000196001600160a01b038316016108145760405162461bcd60e51b815260206004820152601560248201527f4541433a20616464722069732073656e74696e656c00000000000000000000006044820152606401610567565b6001600160a01b038281166000908152602085905260409020541661087b5760405162461bcd60e51b815260206004820152600e60248201527f4541433a206e6f7420666f756e640000000000000000000000000000000000006044820152606401610567565b6001600160a01b038116610896576108938383610d80565b90505b6001600160a01b038181166000908152602085905260409020548116908316146109025760405162461bcd60e51b815260206004820181905260248201527f4541433a2070726576206164647265737320646f6573206e6f74206d617463686044820152606401610567565b6001600160a01b03918216600081815260209490945260408085208054938516865290852080549390941673ffffffffffffffffffffffffffffffffffffffff199384161790935590925280549091169055565b6000828152602081815260408083206001600160a01b038516845290915290205460ff1661057a576000828152602081815260408083206001600160a01b03851684529091529020805460ff191660011790556109b03390565b6001600160a01b0316816001600160a01b0316837f2f8788117e7eff1d82e926ec794901d17c78024a50270940304540a733656f0d60405160405180910390a45050565b6000828152602081815260408083206001600160a01b038516845290915290205460ff161561057a576000828152602081815260408083206001600160a01b0385168085529252808320805460ff1916905551339285917ff6391f5c32d9c69d2a47ea670b442974b53935d1edc7fd64eb21e047a839171b9190a45050565b60606001600160a01b038316610a8857600192505b60008267ffffffffffffffff811115610aa357610aa3611205565b604051908082528060200260200182016040528015610acc578160200160208202803683370190505b50905060005b83811015610b3d576001600160a01b0394851660009081526020879052604090205490941693600019850115610b3d5784828281518110610b1557610b1561121b565b6001600160a01b0390921660209283029190910190910152610b3681611247565b9050610ad2565b50949350505050565b6001600160a01b038116610b9c5760405162461bcd60e51b815260206004820152601160248201527f4541433a2061646472206973207a65726f0000000000000000000000000000006044820152606401610567565b306001600160a01b03821603610bf45760405162461bcd60e51b815260206004820152601160248201527f4541433a20616464722069732073656c660000000000000000000000000000006044820152606401610567565b6000196001600160a01b03821601610c4e5760405162461bcd60e51b815260206004820152601560248201527f4541433a20616464722069732073656e74696e656c00000000000000000000006044820152606401610567565b6001600160a01b038181166000908152602084905260409020541615610cb65760405162461bcd60e51b815260206004820152601360248201527f4541433a20616c726561647920657869737473000000000000000000000000006044820152606401610567565b60016000818152602093909352604080842080546001600160a01b0394851680875292862080549590911673ffffffffffffffffffffffffffffffffffffffff199586161790559190935280549091169091179055565b6000828152602081815260408083206001600160a01b038516845290915290205460ff1661057a57610d3e81610e3a565b610d49836020610e4c565b604051602001610d5a929190611260565b60408051601f198184030181529082905262461bcd60e51b825261056791600401611195565b600060015b6001600160a01b0381811660009081526020869052604090205416600114610df2576001600160a01b03818116600090815260208690526040902054818516911603610dd257905061044e565b6001600160a01b0390811660009081526020859052604090205416610d85565b60405162461bcd60e51b815260206004820152601b60248201527f4541433a20707265762061646472657373206e6f7420666f756e6400000000006044820152606401610567565b606061044e6001600160a01b03831660145b60606000610e5b8360026112e1565b610e669060026112f8565b67ffffffffffffffff811115610e7e57610e7e611205565b6040519080825280601f01601f191660200182016040528015610ea8576020820181803683370190505b5090507f300000000000000000000000000000000000000000000000000000000000000081600081518110610edf57610edf61121b565b60200101906001600160f81b031916908160001a9053507f780000000000000000000000000000000000000000000000000000000000000081600181518110610f2a57610f2a61121b565b60200101906001600160f81b031916908160001a9053506000610f4e8460026112e1565b610f599060016112f8565b90505b6001811115610fde577f303132333435363738396162636465660000000000000000000000000000000085600f1660108110610f9a57610f9a61121b565b1a60f81b828281518110610fb057610fb061121b565b60200101906001600160f81b031916908160001a90535060049490941c93610fd78161130b565b9050610f5c565b50831561058c5760405162461bcd60e51b815260206004820181905260248201527f537472696e67733a20686578206c656e67746820696e73756666696369656e746044820152606401610567565b60006020828403121561103f57600080fd5b81357fffffffff000000000000000000000000000000000000000000000000000000008116811461058c57600080fd5b60006020828403121561108157600080fd5b5035919050565b80356001600160a01b038116811461109f57600080fd5b919050565b600080604083850312156110b757600080fd5b6110c083611088565b91506110ce60208401611088565b90509250929050565b600080604083850312156110ea57600080fd5b823591506110ce60208401611088565b6000806040838503121561110d57600080fd5b61111683611088565b946020939093013593505050565b6020808252825182820181905260009190848201906040850190845b818110156111655783516001600160a01b031683529284019291840191600101611140565b50909695505050505050565b60005b8381101561118c578181015183820152602001611174565b50506000910152565b60208152600082518060208401526111b4816040850160208701611171565b601f01601f19169190910160400192915050565b6000602082840312156111da57600080fd5b61058c82611088565b600080604083850312156111f657600080fd5b50508035926020909101359150565b634e487b7160e01b600052604160045260246000fd5b634e487b7160e01b600052603260045260246000fd5b634e487b7160e01b600052601160045260246000fd5b60006001820161125957611259611231565b5060010190565b7f416363657373436f6e74726f6c3a206163636f756e7420000000000000000000815260008351611298816017850160208801611171565b7f206973206d697373696e6720726f6c652000000000000000000000000000000060179184019182015283516112d5816028840160208801611171565b01602801949350505050565b808202811582820484141761044e5761044e611231565b8082018082111561044e5761044e611231565b60008161131a5761131a611231565b50600019019056fea2646970667358221220e20ef77e97be00a829c3507dd1dd6b017ef864d89de53f0f5b0620fba01a767b64736f6c63430008130033",
  "linkReferences": {},
  "deployedLinkReferences": {}
}