{
  "_format": "hh-sol-artifact-1",
  "contractName": "ExtendEVMAccessControl",
  "sourceName": "contracts/test/ExtendEVMAccessControl.sol",
  "abi": [
    {
      "inputs": [
        {
          "internalType": "address[]",
          "name": "admins",
          "type": "address[]"
        },
        {
          "internalType": "address[]",
          "name": "managers",
          "type": "address[]"
        }
      ],
      "stateMutability": "nonpayable",
      "type": "constructor"
    },
    {
      "anonymous": false,
      "inputs": [
        {
          "indexed": true,
          "internalType": "address",
          "name": "addr",
          "type": "address"
        }
      ],
      "name": "CallAllowed",
      "type": "event"
    },
    {
      "anonymous": false,
      "inputs": [
        {
          "indexed": true,
          "internalType": "address",
          "name": "addr",
          "type": "address"
        }
      ],
      "name": "CallDenied",
      "type": "event"
    },
    {
      "anonymous": false,
      "inputs": [
        {
          "indexed": true,
          "internalType": "address",
          "name": "addr",
          "type": "address"
        }
      ],
      "name": "CreateAllowed",
      "type": "event"
    },
    {
      "anonymous": false,
      "inputs": [
        {
          "indexed": true,
          "internalType": "address",
          "name": "addr",
          "type": "address"
        }
      ],
      "name": "CreateDenied",
      "type": "event"
    },
    {
      "anonymous": false,
      "inputs": [
        {
          "indexed": true,
          "internalType": "bytes32",
          "name": "role",
          "type": "bytes32"
        },
        {
          "indexed": true,
          "internalType": "bytes32",
          "name": "previousAdminRole",
          "type": "bytes32"
        },
        {
          "indexed": true,
          "internalType": "bytes32",
          "name": "newAdminRole",
          "type": "bytes32"
        }
      ],
      "name": "RoleAdminChanged",
      "type": "event"
    },
    {
      "anonymous": false,
      "inputs": [
        {
          "indexed": true,
          "internalType": "bytes32",
          "name": "role",
          "type": "bytes32"
        },
        {
          "indexed": true,
          "internalType": "address",
          "name": "account",
          "type": "address"
        },
        {
          "indexed": true,
          "internalType": "address",
          "name": "sender",
          "type": "address"
        }
      ],
      "name": "RoleGranted",
      "type": "event"
    },
    {
      "anonymous": false,
      "inputs": [
        {
          "indexed": true,
          "internalType": "bytes32",
          "name": "role",
          "type": "bytes32"
        },
        {
          "indexed": true,
          "internalType": "address",
          "name": "account",
          "type": "address"
        },
        {
          "indexed": true,
          "internalType": "address",
          "name": "sender",
          "type": "address"
        }
      ],
      "name": "RoleRevoked",
      "type": "event"
    },
    {
      "inputs": [],
      "name": "DEFAULT_ADMIN_ROLE",
      "outputs": [
        {
          "internalType": "bytes32",
          "name": "",
          "type": "bytes32"
        }
      ],
      "stateMutability": "view",
      "type": "function"
    },
    {
      "inputs": [],
      "name": "MANAGER_ROLE",
      "outputs": [
        {
          "internalType": "bytes32",
          "name": "",
          "type": "bytes32"
        }
      ],
      "stateMutability": "view",
      "type": "function"
    },
    {
      "inputs": [
        {
          "internalType": "bytes32",
          "name": "storageKey",
          "type": "bytes32"
        }
      ],
      "name": "accessMapValue",
      "outputs": [
        {
          "internalType": "bytes32",
          "name": "",
          "type": "bytes32"
        }
      ],
      "stateMutability": "view",
      "type": "function"
    },
    {
      "inputs": [
        {
          "internalType": "address",
          "name": "_addr",
          "type": "address"
        }
      ],
      "name": "addCallDeniedList",
      "outputs": [],
      "stateMutability": "nonpayable",
      "type": "function"
    },
    {
      "inputs": [
        {
          "internalType": "address",
          "name": "_addr",
          "type": "address"
        }
      ],
      "name": "addCreateAllowedList",
      "outputs": [],
      "stateMutability": "nonpayable",
      "type": "function"
    },
    {
      "inputs": [
        {
          "internalType": "bytes32",
          "name": "paddedAddress",
          "type": "bytes32"
        },
        {
          "internalType": "uint256",
          "name": "slot",
          "type": "uint256"
        }
      ],
      "name": "computeMapStorageKey",
      "outputs": [
        {
          "internalType": "bytes32",
          "name": "",
          "type": "bytes32"
        }
      ],
      "stateMutability": "pure",
      "type": "function"
    },
    {
      "inputs": [
        {
          "internalType": "bytes32",
          "name": "role",
          "type": "bytes32"
        }
      ],
      "name": "getRoleAdmin",
      "outputs": [
        {
          "internalType": "bytes32",
          "name": "",
          "type": "bytes32"
        }
      ],
      "stateMutability": "view",
      "type": "function"
    },
    {
      "inputs": [
        {
          "internalType": "bytes32",
          "name": "role",
          "type": "bytes32"
        },
        {
          "internalType": "address",
          "name": "account",
          "type": "address"
        }
      ],
      "name": "grantRole",
      "outputs": [],
      "stateMutability": "nonpayable",
      "type": "function"
    },
    {
      "inputs": [
        {
          "internalType": "bytes32",
          "name": "role",
          "type": "bytes32"
        },
        {
          "internalType": "address",
          "name": "account",
          "type": "address"
        }
      ],
      "name": "hasRole",
      "outputs": [
        {
          "internalType": "bool",
          "name": "",
          "type": "bool"
        }
      ],
      "stateMutability": "view",
      "type": "function"
    },
    {
      "inputs": [
        {
          "internalType": "address",
          "name": "_addr",
          "type": "address"
        }
      ],
      "name": "isAllowedToCreate",
      "outputs": [
        {
          "internalType": "bool",
          "name": "",
          "type": "bool"
        }
      ],
      "stateMutability": "view",
      "type": "function"
    },
    {
      "inputs": [
        {
          "internalType": "address",
          "name": "_addr",
          "type": "address"
        }
      ],
      "name": "isDeniedToCall",
      "outputs": [
        {
          "internalType": "bool",
          "name": "",
          "type": "bool"
        }
      ],
      "stateMutability": "view",
      "type": "function"
    },
    {
      "inputs": [
        {
          "internalType": "address",
          "name": "_addr",
          "type": "address"
        }
      ],
      "name": "removeCallDeniedList",
      "outputs": [],
      "stateMutability": "nonpayable",
      "type": "function"
    },
    {
      "inputs": [
        {
          "internalType": "address",
          "name": "_addr",
          "type": "address"
        }
      ],
      "name": "removeCreateAllowedList",
      "outputs": [],
      "stateMutability": "nonpayable",
      "type": "function"
    },
    {
      "inputs": [
        {
          "internalType": "bytes32",
          "name": "role",
          "type": "bytes32"
        },
        {
          "internalType": "address",
          "name": "account",
          "type": "address"
        }
      ],
      "name": "renounceRole",
      "outputs": [],
      "stateMutability": "nonpayable",
      "type": "function"
    },
    {
      "inputs": [
        {
          "internalType": "bytes32",
          "name": "role",
          "type": "bytes32"
        },
        {
          "internalType": "address",
          "name": "account",
          "type": "address"
        }
      ],
      "name": "revokeRole",
      "outputs": [],
      "stateMutability": "nonpayable",
      "type": "function"
    },
    {
      "inputs": [
        {
          "internalType": "bytes4",
          "name": "interfaceId",
          "type": "bytes4"
        }
      ],
      "name": "supportsInterface",
      "outputs": [
        {
          "internalType": "bool",
          "name": "",
          "type": "bool"
        }
      ],
      "stateMutability": "view",
      "type": "function"
    },
    {
      "inputs": [],
      "name": "version",
      "outputs": [
        {
          "internalType": "string",
          "name": "",
          "type": "string"
        }
      ],
      "stateMutability": "pure",
      "type": "function"
    }
  ],
  "bytecode": "0x60806040523480156200001157600080fd5b50604051620013b7380380620013b783398101604081905262000034916200038c565b818160005b82518160ff1610156200010b5760006001600160a01b0316838260ff1681518110620000695762000069620003f6565b60200260200101516001600160a01b031603620000c25760405162461bcd60e51b81526020600482015260126024820152714541433a2061646d696e206973207a65726f60701b60448201526064015b60405180910390fd5b620000f66000801b848360ff1681518110620000e257620000e2620003f6565b6020026020010151620001fc60201b60201c565b8062000102816200040c565b91505062000039565b5060005b81518160ff161015620001f15760006001600160a01b0316828260ff16815181106200013f576200013f620003f6565b60200260200101516001600160a01b0316036200019f5760405162461bcd60e51b815260206004820152601460248201527f4541433a2063726561746f72206973207a65726f0000000000000000000000006044820152606401620000b9565b620001dc7f241ecf16d79d0f8dbfb92cbc07fe17840425976cf0667f022fe9877caa831b08838360ff1681518110620000e257620000e2620003f6565b80620001e8816200040c565b9150506200010f565b50505050506200043a565b6200020882826200020c565b5050565b6000828152602081815260408083206001600160a01b038516845290915290205460ff1662000208576000828152602081815260408083206001600160a01b03851684529091529020805460ff19166001179055620002683390565b6001600160a01b0316816001600160a01b0316837f2f8788117e7eff1d82e926ec794901d17c78024a50270940304540a733656f0d60405160405180910390a45050565b634e487b7160e01b600052604160045260246000fd5b80516001600160a01b0381168114620002da57600080fd5b919050565b600082601f830112620002f157600080fd5b815160206001600160401b0380831115620003105762000310620002ac565b8260051b604051601f19603f83011681018181108482111715620003385762000338620002ac565b6040529384528581018301938381019250878511156200035757600080fd5b83870191505b8482101562000381576200037182620002c2565b835291830191908301906200035d565b979650505050505050565b60008060408385031215620003a057600080fd5b82516001600160401b0380821115620003b857600080fd5b620003c686838701620002df565b93506020850151915080821115620003dd57600080fd5b50620003ec85828601620002df565b9150509250929050565b634e487b7160e01b600052603260045260246000fd5b600060ff821660ff81036200043157634e487b7160e01b600052601160045260246000fd5b60010192915050565b610f6d806200044a6000396000f3fe608060405234801561001057600080fd5b506004361061011b5760003560e01c80637ed5dc4a116100b2578063bd7f53d611610081578063ec87621c11610066578063ec87621c146102fc578063ff616c8e14610323578063ffd9f2e21461033657600080fd5b8063bd7f53d6146102d6578063d547741f146102e957600080fd5b80637ed5dc4a1461024b57806391d1485414610285578063a217fddf146102bc578063adf7473e146102c457600080fd5b806354fd4d50116100ee57806354fd4d50146101a15780635ffe85c5146101e057806373f25c38146101f35780637723a3eb1461021f57600080fd5b806301ffc9a714610120578063248a9ca3146101485780632f2ff15d1461017957806336568abe1461018e575b600080fd5b61013361012e366004610cfc565b610349565b60405190151581526020015b60405180910390f35b61016b610156366004610d3e565b60009081526020819052604090206001015490565b60405190815260200161013f565b61018c610187366004610d73565b6103e2565b005b61018c61019c366004610d73565b61040c565b604080518082018252600581527f302e302e310000000000000000000000000000000000000000000000000000006020820152905161013f9190610dc3565b61018c6101ee366004610df6565b61049d565b610133610201366004610df6565b6001600160a01b031660009081526001602052604090205460ff1690565b61013361022d366004610df6565b6001600160a01b031660009081526002602052604090205460ff1690565b61016b610259366004610e11565b604080516020808201949094528082019290925280518083038201815260609092019052805191012090565b610133610293366004610d73565b6000918252602082815260408084206001600160a01b0393909316845291905290205460ff1690565b61016b600081565b61016b6102d2366004610d3e565b5490565b61018c6102e4366004610df6565b6105c3565b61018c6102f7366004610d73565b6106f0565b61016b7f241ecf16d79d0f8dbfb92cbc07fe17840425976cf0667f022fe9877caa831b0881565b61018c610331366004610df6565b610715565b61018c610344366004610df6565b61083f565b60007fffffffff0000000000000000000000000000000000000000000000000000000082167f7965db0b0000000000000000000000000000000000000000000000000000000014806103dc57507f01ffc9a7000000000000000000000000000000000000000000000000000000007fffffffff000000000000000000000000000000000000000000000000000000008316145b92915050565b6000828152602081905260409020600101546103fd81610965565b6104078383610972565b505050565b6001600160a01b038116331461048f5760405162461bcd60e51b815260206004820152602f60248201527f416363657373436f6e74726f6c3a2063616e206f6e6c792072656e6f756e636560448201527f20726f6c657320666f722073656c66000000000000000000000000000000000060648201526084015b60405180910390fd5b6104998282610a10565b5050565b7f241ecf16d79d0f8dbfb92cbc07fe17840425976cf0667f022fe9877caa831b086104c781610965565b6001600160a01b0382166105115760405162461bcd60e51b81526020600482015260116024820152704541433a2061646472206973207a65726f60781b6044820152606401610486565b6001600160a01b03821660009081526001602052604090205460ff166105795760405162461bcd60e51b815260206004820152601060248201527f4541433a206e6f7420616c6c6f776564000000000000000000000000000000006044820152606401610486565b6001600160a01b038216600081815260016020526040808220805460ff19169055517f4a475457a2e45f0e02800bf274aede959c4e648bd208c5af470590d2e93d07329190a25050565b7f241ecf16d79d0f8dbfb92cbc07fe17840425976cf0667f022fe9877caa831b086105ed81610965565b6001600160a01b0382166106375760405162461bcd60e51b81526020600482015260116024820152704541433a2061646472206973207a65726f60781b6044820152606401610486565b6001600160a01b03821660009081526001602052604090205460ff16156106a05760405162461bcd60e51b815260206004820152601460248201527f4541433a20616c726561647920616c6c6f7765640000000000000000000000006044820152606401610486565b6001600160a01b0382166000818152600160208190526040808320805460ff1916909217909155517fca573f65e3d72a9f457e37bb6357cbb8f4bb06010cf200e958854309620342e99190a25050565b60008281526020819052604090206001015461070b81610965565b6104078383610a10565b7f241ecf16d79d0f8dbfb92cbc07fe17840425976cf0667f022fe9877caa831b0861073f81610965565b6001600160a01b0382166107895760405162461bcd60e51b81526020600482015260116024820152704541433a2061646472206973207a65726f60781b6044820152606401610486565b6001600160a01b03821660009081526002602052604090205460ff16156107f25760405162461bcd60e51b815260206004820152601360248201527f4541433a20616c72656164792064656e696564000000000000000000000000006044820152606401610486565b6001600160a01b038216600081815260026020526040808220805460ff19166001179055517f2757c5d518b1e4ab9d6e4c8276711fd6bf73fbf7005ba27f059e1b5b6d5662319190a25050565b7f241ecf16d79d0f8dbfb92cbc07fe17840425976cf0667f022fe9877caa831b0861086981610965565b6001600160a01b0382166108b35760405162461bcd60e51b81526020600482015260116024820152704541433a2061646472206973207a65726f60781b6044820152606401610486565b6001600160a01b03821660009081526002602052604090205460ff1661091b5760405162461bcd60e51b815260206004820152600f60248201527f4541433a206e6f742064656e69656400000000000000000000000000000000006044820152606401610486565b6001600160a01b038216600081815260026020526040808220805460ff19169055517f054279c30632ea9b7d314b136883c9448638eb556adc3cffb4dfac65024f416b9190a25050565b61096f8133610a8f565b50565b6000828152602081815260408083206001600160a01b038516845290915290205460ff16610499576000828152602081815260408083206001600160a01b03851684529091529020805460ff191660011790556109cc3390565b6001600160a01b0316816001600160a01b0316837f2f8788117e7eff1d82e926ec794901d17c78024a50270940304540a733656f0d60405160405180910390a45050565b6000828152602081815260408083206001600160a01b038516845290915290205460ff1615610499576000828152602081815260408083206001600160a01b0385168085529252808320805460ff1916905551339285917ff6391f5c32d9c69d2a47ea670b442974b53935d1edc7fd64eb21e047a839171b9190a45050565b6000828152602081815260408083206001600160a01b038516845290915290205460ff1661049957610ac081610b02565b610acb836020610b14565b604051602001610adc929190610e33565b60408051601f198184030181529082905262461bcd60e51b825261048691600401610dc3565b60606103dc6001600160a01b03831660145b60606000610b23836002610eca565b610b2e906002610ee1565b67ffffffffffffffff811115610b4657610b46610ef4565b6040519080825280601f01601f191660200182016040528015610b70576020820181803683370190505b5090507f300000000000000000000000000000000000000000000000000000000000000081600081518110610ba757610ba7610f0a565b60200101906001600160f81b031916908160001a9053507f780000000000000000000000000000000000000000000000000000000000000081600181518110610bf257610bf2610f0a565b60200101906001600160f81b031916908160001a9053506000610c16846002610eca565b610c21906001610ee1565b90505b6001811115610ca6577f303132333435363738396162636465660000000000000000000000000000000085600f1660108110610c6257610c62610f0a565b1a60f81b828281518110610c7857610c78610f0a565b60200101906001600160f81b031916908160001a90535060049490941c93610c9f81610f20565b9050610c24565b508315610cf55760405162461bcd60e51b815260206004820181905260248201527f537472696e67733a20686578206c656e67746820696e73756666696369656e746044820152606401610486565b9392505050565b600060208284031215610d0e57600080fd5b81357fffffffff0000000000000000000000000000000000000000000000000000000081168114610cf557600080fd5b600060208284031215610d5057600080fd5b5035919050565b80356001600160a01b0381168114610d6e57600080fd5b919050565b60008060408385031215610d8657600080fd5b82359150610d9660208401610d57565b90509250929050565b60005b83811015610dba578181015183820152602001610da2565b50506000910152565b6020815260008251806020840152610de2816040850160208701610d9f565b601f01601f19169190910160400192915050565b600060208284031215610e0857600080fd5b610cf582610d57565b60008060408385031215610e2457600080fd5b50508035926020909101359150565b7f416363657373436f6e74726f6c3a206163636f756e7420000000000000000000815260008351610e6b816017850160208801610d9f565b7f206973206d697373696e6720726f6c65200000000000000000000000000000006017918401918201528351610ea8816028840160208801610d9f565b01602801949350505050565b634e487b7160e01b600052601160045260246000fd5b80820281158282048414176103dc576103dc610eb4565b808201808211156103dc576103dc610eb4565b634e487b7160e01b600052604160045260246000fd5b634e487b7160e01b600052603260045260246000fd5b600081610f2f57610f2f610eb4565b50600019019056fea26469706673582212202b0f9157a79eabbf0b745d0e0f2f460dad72d6286456ed309c7101d28ed7692264736f6c63430008130033",
  "linkReferences": {},
  "deployedLinkReferences": {}
}