{
  "_format": "hh-sol-artifact-1",
  "contractName": "ExtendEVMAccessControl",
  "sourceName": "contracts/test/ExtendEVMAccessControl.sol",
  "abi": [
    {
      "inputs": [
        {
          "internalType": "address[]",
          "name": "admins",
          "type": "address[]"
        },
        {
          "internalType": "address[]",
          "name": "managers",
          "type": "address[]"
        }
      ],
      "stateMutability": "nonpayable",
      "type": "constructor"
    },
    {
      "anonymous": false,
      "inputs": [
        {
          "indexed": true,
          "internalType": "address",
          "name": "addr",
          "type": "address"
        }
      ],
      "name": "CallAllowed",
      "type": "event"
    },
    {
      "anonymous": false,
      "inputs": [
        {
          "indexed": true,
          "internalType": "address",
          "name": "addr",
          "type": "address"
        }
      ],
      "name": "CallDenied",
      "type": "event"
    },
    {
      "anonymous": false,
      "inputs": [
        {
          "indexed": true,
          "internalType": "address",
          "name": "addr",
          "type": "address"
        }
      ],
      "name": "CreateAllowed",
      "type": "event"
    },
    {
      "anonymous": false,
      "inputs": [
        {
          "indexed": true,
          "internalType": "address",
          "name": "addr",
          "type": "address"
        }
      ],
      "name": "CreateDenied",
      "type": "event"
    },
    {
      "anonymous": false,
      "inputs": [
        {
          "indexed": true,
          "internalType": "bytes32",
          "name": "role",
          "type": "bytes32"
        },
        {
          "indexed": true,
          "internalType": "bytes32",
          "name": "previousAdminRole",
          "type": "bytes32"
        },
        {
          "indexed": true,
          "internalType": "bytes32",
          "name": "newAdminRole",
          "type": "bytes32"
        }
      ],
      "name": "RoleAdminChanged",
      "type": "event"
    },
    {
      "anonymous": false,
      "inputs": [
        {
          "indexed": true,
          "internalType": "bytes32",
          "name": "role",
          "type": "bytes32"
        },
        {
          "indexed": true,
          "internalType": "address",
          "name": "account",
          "type": "address"
        },
        {
          "indexed": true,
          "internalType": "address",
          "name": "sender",
          "type": "address"
        }
      ],
      "name": "RoleGranted",
      "type": "event"
    },
    {
      "anonymous": false,
      "inputs": [
        {
          "indexed": true,
          "internalType": "bytes32",
          "name": "role",
          "type": "bytes32"
        },
        {
          "indexed": true,
          "internalType": "address",
          "name": "account",
          "type": "address"
        },
        {
          "indexed": true,
          "internalType": "address",
          "name": "sender",
          "type": "address"
        }
      ],
      "name": "RoleRevoked",
      "type": "event"
    },
    {
      "inputs": [],
      "name": "DEFAULT_ADMIN_ROLE",
      "outputs": [
        {
          "internalType": "bytes32",
          "name": "",
          "type": "bytes32"
        }
      ],
      "stateMutability": "view",
      "type": "function"
    },
    {
      "inputs": [],
      "name": "MANAGER_ROLE",
      "outputs": [
        {
          "internalType": "bytes32",
          "name": "",
          "type": "bytes32"
        }
      ],
      "stateMutability": "view",
      "type": "function"
    },
    {
      "inputs": [
        {
          "internalType": "bytes32",
          "name": "storageKey",
          "type": "bytes32"
        }
      ],
      "name": "accessMapValue",
      "outputs": [
        {
          "internalType": "bytes32",
          "name": "",
          "type": "bytes32"
        }
      ],
      "stateMutability": "view",
      "type": "function"
    },
    {
      "inputs": [
        {
          "internalType": "address",
          "name": "_addr",
          "type": "address"
        }
      ],
      "name": "addCallDeniedList",
      "outputs": [],
      "stateMutability": "nonpayable",
      "type": "function"
    },
    {
      "inputs": [
        {
          "internalType": "address",
          "name": "_addr",
          "type": "address"
        }
      ],
      "name": "addCreateAllowedList",
      "outputs": [],
      "stateMutability": "nonpayable",
      "type": "function"
    },
    {
      "inputs": [
        {
          "internalType": "bytes32",
          "name": "paddedAddress",
          "type": "bytes32"
        },
        {
          "internalType": "uint256",
          "name": "slot",
          "type": "uint256"
        }
      ],
      "name": "computeMapStorageKey",
      "outputs": [
        {
          "internalType": "bytes32",
          "name": "",
          "type": "bytes32"
        }
      ],
      "stateMutability": "pure",
      "type": "function"
    },
    {
      "inputs": [
        {
          "internalType": "bytes32",
          "name": "role",
          "type": "bytes32"
        }
      ],
      "name": "getRoleAdmin",
      "outputs": [
        {
          "internalType": "bytes32",
          "name": "",
          "type": "bytes32"
        }
      ],
      "stateMutability": "view",
      "type": "function"
    },
    {
      "inputs": [
        {
          "internalType": "bytes32",
          "name": "role",
          "type": "bytes32"
        },
        {
          "internalType": "address",
          "name": "account",
          "type": "address"
        }
      ],
      "name": "grantRole",
      "outputs": [],
      "stateMutability": "nonpayable",
      "type": "function"
    },
    {
      "inputs": [
        {
          "internalType": "bytes32",
          "name": "role",
          "type": "bytes32"
        },
        {
          "internalType": "address",
          "name": "account",
          "type": "address"
        }
      ],
      "name": "hasRole",
      "outputs": [
        {
          "internalType": "bool",
          "name": "",
          "type": "bool"
        }
      ],
      "stateMutability": "view",
      "type": "function"
    },
    {
      "inputs": [
        {
          "internalType": "address",
          "name": "_addr",
          "type": "address"
        }
      ],
      "name": "isAllowedToCreate",
      "outputs": [
        {
          "internalType": "bool",
          "name": "",
          "type": "bool"
        }
      ],
      "stateMutability": "view",
      "type": "function"
    },
    {
      "inputs": [
        {
          "internalType": "address",
          "name": "_addr",
          "type": "address"
        }
      ],
      "name": "isDeniedToCall",
      "outputs": [
        {
          "internalType": "bool",
          "name": "",
          "type": "bool"
        }
      ],
      "stateMutability": "view",
      "type": "function"
    },
    {
      "inputs": [],
      "name": "listCallDenied",
      "outputs": [
        {
          "internalType": "address[]",
          "name": "",
          "type": "address[]"
        }
      ],
      "stateMutability": "view",
      "type": "function"
    },
    {
      "inputs": [],
      "name": "listCreateAllowed",
      "outputs": [
        {
          "internalType": "address[]",
          "name": "",
          "type": "address[]"
        }
      ],
      "stateMutability": "view",
      "type": "function"
    },
    {
      "inputs": [
        {
          "internalType": "address",
          "name": "_addr",
          "type": "address"
        }
      ],
      "name": "removeCallDeniedList",
      "outputs": [],
      "stateMutability": "nonpayable",
      "type": "function"
    },
    {
      "inputs": [
        {
          "internalType": "address",
          "name": "_addr",
          "type": "address"
        }
      ],
      "name": "removeCreateAllowedList",
      "outputs": [],
      "stateMutability": "nonpayable",
      "type": "function"
    },
    {
      "inputs": [
        {
          "internalType": "bytes32",
          "name": "role",
          "type": "bytes32"
        },
        {
          "internalType": "address",
          "name": "account",
          "type": "address"
        }
      ],
      "name": "renounceRole",
      "outputs": [],
      "stateMutability": "nonpayable",
      "type": "function"
    },
    {
      "inputs": [
        {
          "internalType": "bytes32",
          "name": "role",
          "type": "bytes32"
        },
        {
          "internalType": "address",
          "name": "account",
          "type": "address"
        }
      ],
      "name": "revokeRole",
      "outputs": [],
      "stateMutability": "nonpayable",
      "type": "function"
    },
    {
      "inputs": [
        {
          "internalType": "bytes4",
          "name": "interfaceId",
          "type": "bytes4"
        }
      ],
      "name": "supportsInterface",
      "outputs": [
        {
          "internalType": "bool",
          "name": "",
          "type": "bool"
        }
      ],
      "stateMutability": "view",
      "type": "function"
    },
    {
      "inputs": [],
      "name": "version",
      "outputs": [
        {
          "internalType": "string",
          "name": "",
          "type": "string"
        }
      ],
      "stateMutability": "pure",
      "type": "function"
    }
  ],
  "bytecode": "0x60806040523480156200001157600080fd5b506040516200177838038062001778833981016040819052620000349162000376565b818160005b8251811015620001005760006001600160a01b0316838281518110620000635762000063620003e0565b60200260200101516001600160a01b031603620000bc5760405162461bcd60e51b81526020600482015260126024820152714541433a2061646d696e206973207a65726f60701b60448201526064015b60405180910390fd5b620000ed6000801b848381518110620000d957620000d9620003e0565b6020026020010151620001e660201b60201c565b620000f881620003f6565b905062000039565b5060005b8151811015620001db5760006001600160a01b03168282815181106200012e576200012e620003e0565b60200260200101516001600160a01b0316036200018e5760405162461bcd60e51b815260206004820152601460248201527f4541433a2063726561746f72206973207a65726f0000000000000000000000006044820152606401620000b3565b620001c87f241ecf16d79d0f8dbfb92cbc07fe17840425976cf0667f022fe9877caa831b08838381518110620000d957620000d9620003e0565b620001d381620003f6565b905062000104565b50505050506200041e565b620001f28282620001f6565b5050565b6000828152602081815260408083206001600160a01b038516845290915290205460ff16620001f2576000828152602081815260408083206001600160a01b03851684529091529020805460ff19166001179055620002523390565b6001600160a01b0316816001600160a01b0316837f2f8788117e7eff1d82e926ec794901d17c78024a50270940304540a733656f0d60405160405180910390a45050565b634e487b7160e01b600052604160045260246000fd5b80516001600160a01b0381168114620002c457600080fd5b919050565b600082601f830112620002db57600080fd5b815160206001600160401b0380831115620002fa57620002fa62000296565b8260051b604051601f19603f8301168101818110848211171562000322576200032262000296565b6040529384528581018301938381019250878511156200034157600080fd5b83870191505b848210156200036b576200035b82620002ac565b8352918301919083019062000347565b979650505050505050565b600080604083850312156200038a57600080fd5b82516001600160401b0380821115620003a257600080fd5b620003b086838701620002c9565b93506020850151915080821115620003c757600080fd5b50620003d685828601620002c9565b9150509250929050565b634e487b7160e01b600052603260045260246000fd5b6000600182016200041757634e487b7160e01b600052601160045260246000fd5b5060010190565b61134a806200042e6000396000f3fe608060405234801561001057600080fd5b50600436106101515760003560e01c80637ed5dc4a116100cd578063bd7f53d611610081578063ec87621c11610066578063ec87621c1461034f578063ff616c8e14610376578063ffd9f2e21461038957600080fd5b8063bd7f53d614610329578063d547741f1461033c57600080fd5b806391d14854116100b257806391d14854146102d8578063a217fddf1461030f578063adf7473e1461031757600080fd5b80637ed5dc4a146102965780638c88af79146102d057600080fd5b806336568abe116101245780635ffe85c5116101095780635ffe85c51461022b57806373f25c381461023e5780637723a3eb1461026a57600080fd5b806336568abe146101d957806354fd4d50146101ec57600080fd5b806301ffc9a714610156578063183053a71461017e578063248a9ca3146101935780632f2ff15d146101c4575b600080fd5b610169610164366004611073565b61039c565b60405190151581526020015b60405180910390f35b610186610435565b60405161017591906110b5565b6101b66101a1366004611102565b60009081526020819052604090206001015490565b604051908152602001610175565b6101d76101d2366004611137565b610446565b005b6101d76101e7366004611137565b610470565b604080518082018252600581527f312e302e30000000000000000000000000000000000000000000000000000000602082015290516101759190611187565b6101d76102393660046111ba565b610501565b61016961024c3660046111ba565b6001600160a01b031660009081526001602052604090205460ff1690565b6101696102783660046111ba565b6001600160a01b031660009081526002602052604090205460ff1690565b6101b66102a43660046111d5565b604080516020808201949094528082019290925280518083038201815260609092019052805191012090565b610186610640565b6101696102e6366004611137565b6000918252602082815260408084206001600160a01b0393909316845291905290205460ff1690565b6101b6600081565b6101b6610325366004611102565b5490565b6101d76103373660046111ba565b61064c565b6101d761034a366004611137565b610792565b6101b67f241ecf16d79d0f8dbfb92cbc07fe17840425976cf0667f022fe9877caa831b0881565b6101d76103843660046111ba565b6107b7565b6101d76103973660046111ba565b6108fa565b60007fffffffff0000000000000000000000000000000000000000000000000000000082167f7965db0b00000000000000000000000000000000000000000000000000000000148061042f57507f01ffc9a7000000000000000000000000000000000000000000000000000000007fffffffff000000000000000000000000000000000000000000000000000000008316145b92915050565b60606104416003610a39565b905090565b60008281526020819052604090206001015461046181610b48565b61046b8383610b55565b505050565b6001600160a01b03811633146104f35760405162461bcd60e51b815260206004820152602f60248201527f416363657373436f6e74726f6c3a2063616e206f6e6c792072656e6f756e636560448201527f20726f6c657320666f722073656c66000000000000000000000000000000000060648201526084015b60405180910390fd5b6104fd8282610bf3565b5050565b7f241ecf16d79d0f8dbfb92cbc07fe17840425976cf0667f022fe9877caa831b0861052b81610b48565b6001600160a01b0382166105755760405162461bcd60e51b81526020600482015260116024820152704541433a2061646472206973207a65726f60781b60448201526064016104ea565b6001600160a01b03821660009081526001602052604090205460ff166105dd5760405162461bcd60e51b815260206004820152601060248201527f4541433a206e6f7420616c6c6f7765640000000000000000000000000000000060448201526064016104ea565b6001600160a01b0382166000908152600160205260409020805460ff19169055610608600383610c72565b6040516001600160a01b038316907f4a475457a2e45f0e02800bf274aede959c4e648bd208c5af470590d2e93d073290600090a25050565b60606104416004610a39565b7f241ecf16d79d0f8dbfb92cbc07fe17840425976cf0667f022fe9877caa831b0861067681610b48565b6001600160a01b0382166106c05760405162461bcd60e51b81526020600482015260116024820152704541433a2061646472206973207a65726f60781b60448201526064016104ea565b6001600160a01b03821660009081526001602052604090205460ff16156107295760405162461bcd60e51b815260206004820152601460248201527f4541433a20616c726561647920616c6c6f77656400000000000000000000000060448201526064016104ea565b6001600160a01b0382166000908152600160208190526040909120805460ff1916909117905561075a600383610d1e565b6040516001600160a01b038316907fca573f65e3d72a9f457e37bb6357cbb8f4bb06010cf200e958854309620342e990600090a25050565b6000828152602081905260409020600101546107ad81610b48565b61046b8383610bf3565b7f241ecf16d79d0f8dbfb92cbc07fe17840425976cf0667f022fe9877caa831b086107e181610b48565b6001600160a01b03821661082b5760405162461bcd60e51b81526020600482015260116024820152704541433a2061646472206973207a65726f60781b60448201526064016104ea565b6001600160a01b03821660009081526002602052604090205460ff16156108945760405162461bcd60e51b815260206004820152601360248201527f4541433a20616c72656164792064656e6965640000000000000000000000000060448201526064016104ea565b6001600160a01b0382166000908152600260205260409020805460ff191660011790556108c2600483610d1e565b6040516001600160a01b038316907f2757c5d518b1e4ab9d6e4c8276711fd6bf73fbf7005ba27f059e1b5b6d56623190600090a25050565b7f241ecf16d79d0f8dbfb92cbc07fe17840425976cf0667f022fe9877caa831b0861092481610b48565b6001600160a01b03821661096e5760405162461bcd60e51b81526020600482015260116024820152704541433a2061646472206973207a65726f60781b60448201526064016104ea565b6001600160a01b03821660009081526002602052604090205460ff166109d65760405162461bcd60e51b815260206004820152600f60248201527f4541433a206e6f742064656e696564000000000000000000000000000000000060448201526064016104ea565b6001600160a01b0382166000908152600260205260409020805460ff19169055610a01600483610c72565b6040516001600160a01b038316907f054279c30632ea9b7d314b136883c9448638eb556adc3cffb4dfac65024f416b90600090a25050565b805460609060009067ffffffffffffffff811115610a5957610a596111f7565b604051908082528060200260200182016040528015610a82578160200160208202803683370190505b5090506000805b8454811015610b3f5760006001600160a01b0316858281548110610aaf57610aaf61120d565b6000918252602090912001546001600160a01b031614610b2f57848181548110610adb57610adb61120d565b9060005260206000200160009054906101000a90046001600160a01b0316838381518110610b0b57610b0b61120d565b6001600160a01b0390921660209283029190910190910152610b2c82611239565b91505b610b3881611239565b9050610a89565b50909392505050565b610b528133610d94565b50565b6000828152602081815260408083206001600160a01b038516845290915290205460ff166104fd576000828152602081815260408083206001600160a01b03851684529091529020805460ff19166001179055610baf3390565b6001600160a01b0316816001600160a01b0316837f2f8788117e7eff1d82e926ec794901d17c78024a50270940304540a733656f0d60405160405180910390a45050565b6000828152602081815260408083206001600160a01b038516845290915290205460ff16156104fd576000828152602081815260408083206001600160a01b0385168085529252808320805460ff1916905551339285917ff6391f5c32d9c69d2a47ea670b442974b53935d1edc7fd64eb21e047a839171b9190a45050565b600080610c7f8484610e07565b915091508115610cd0576000848281548110610c9d57610c9d61120d565b9060005260206000200160006101000a8154816001600160a01b0302191690836001600160a01b03160217905550610d18565b60405162461bcd60e51b815260206004820152601460248201527f4541433a20696e646578206e6f7420666f756e6400000000000000000000000060448201526064016104ea565b50505050565b600080610d2c846000610e07565b915091508115610d495782848281548110610c9d57610c9d61120d565b83546001810185556000858152602090200180546001600160a01b0385167fffffffffffffffffffffffff000000000000000000000000000000000000000090911617905550505050565b6000828152602081815260408083206001600160a01b038516845290915290205460ff166104fd57610dc581610e79565b610dd0836020610e8b565b604051602001610de1929190611252565b60408051601f198184030181529082905262461bcd60e51b82526104ea91600401611187565b60008060005b8454811015610e6757836001600160a01b0316858281548110610e3257610e3261120d565b6000918252602090912001546001600160a01b031603610e5757600192509050610e72565b610e6081611239565b9050610e0d565b506000600019915091505b9250929050565b606061042f6001600160a01b03831660145b60606000610e9a8360026112d3565b610ea59060026112ea565b67ffffffffffffffff811115610ebd57610ebd6111f7565b6040519080825280601f01601f191660200182016040528015610ee7576020820181803683370190505b5090507f300000000000000000000000000000000000000000000000000000000000000081600081518110610f1e57610f1e61120d565b60200101906001600160f81b031916908160001a9053507f780000000000000000000000000000000000000000000000000000000000000081600181518110610f6957610f6961120d565b60200101906001600160f81b031916908160001a9053506000610f8d8460026112d3565b610f989060016112ea565b90505b600181111561101d577f303132333435363738396162636465660000000000000000000000000000000085600f1660108110610fd957610fd961120d565b1a60f81b828281518110610fef57610fef61120d565b60200101906001600160f81b031916908160001a90535060049490941c93611016816112fd565b9050610f9b565b50831561106c5760405162461bcd60e51b815260206004820181905260248201527f537472696e67733a20686578206c656e67746820696e73756666696369656e7460448201526064016104ea565b9392505050565b60006020828403121561108557600080fd5b81357fffffffff000000000000000000000000000000000000000000000000000000008116811461106c57600080fd5b6020808252825182820181905260009190848201906040850190845b818110156110f65783516001600160a01b0316835292840192918401916001016110d1565b50909695505050505050565b60006020828403121561111457600080fd5b5035919050565b80356001600160a01b038116811461113257600080fd5b919050565b6000806040838503121561114a57600080fd5b8235915061115a6020840161111b565b90509250929050565b60005b8381101561117e578181015183820152602001611166565b50506000910152565b60208152600082518060208401526111a6816040850160208701611163565b601f01601f19169190910160400192915050565b6000602082840312156111cc57600080fd5b61106c8261111b565b600080604083850312156111e857600080fd5b50508035926020909101359150565b634e487b7160e01b600052604160045260246000fd5b634e487b7160e01b600052603260045260246000fd5b634e487b7160e01b600052601160045260246000fd5b60006001820161124b5761124b611223565b5060010190565b7f416363657373436f6e74726f6c3a206163636f756e742000000000000000000081526000835161128a816017850160208801611163565b7f206973206d697373696e6720726f6c652000000000000000000000000000000060179184019182015283516112c7816028840160208801611163565b01602801949350505050565b808202811582820484141761042f5761042f611223565b8082018082111561042f5761042f611223565b60008161130c5761130c611223565b50600019019056fea2646970667358221220bdbf4e43be0387d158688dd14689ce08c0f95c763bd4d1bf573a1f06384177fd64736f6c63430008130033",
  "linkReferences": {},
  "deployedLinkReferences": {}
}