{
  "_format": "hh-sol-artifact-1",
  "contractName": "Bank",
  "sourceName": "contracts/test/Bank.sol",
  "abi": [
    {
      "inputs": [],
      "stateMutability": "payable",
      "type": "constructor"
    },
    {
      "inputs": [],
      "name": "balance",
      "outputs": [
        {
          "internalType": "uint256",
          "name": "",
          "type": "uint256"
        }
      ],
      "stateMutability": "view",
      "type": "function"
    },
    {
      "inputs": [],
      "name": "deposit",
      "outputs": [],
      "stateMutability": "payable",
      "type": "function"
    },
    {
      "inputs": [
        {
          "internalType": "uint256",
          "name": "amount",
          "type": "uint256"
        }
      ],
      "name": "withdraw",
      "outputs": [],
      "stateMutability": "nonpayable",
      "type": "function"
    }
  ],
  "bytecode": "0x6080604052346000556101d0806100176000396000f3fe6080604052600436106100345760003560e01c80632e1a7d4d14610039578063b69ef8a81461005b578063d0e30db014610083575b600080fd5b34801561004557600080fd5b5061005961005436600461013f565b61008b565b005b34801561006757600080fd5b5061007160005481565b60405190815260200160405180910390f35b610059610121565b6000548111156100d75760405162461bcd60e51b81526020600482015260136024820152721d1bdbc81b5d58da081dda5d1a191c985dd85b606a1b604482015260640160405180910390fd5b806000808282546100e8919061016e565b90915550506040513390819083156108fc029084906000818181858888f1935050505015801561011c573d6000803e3d6000fd5b505050565b6000349050806000808282546101379190610187565b909155505050565b60006020828403121561015157600080fd5b5035919050565b634e487b7160e01b600052601160045260246000fd5b8181038181111561018157610181610158565b92915050565b808201808211156101815761018161015856fea264697066735822122070121e9a37392a3cfbffd26fd541f18fe30804ada9bd132babcd4e463adf304064736f6c63430008120033",
  "linkReferences": {},
  "deployedLinkReferences": {}
}