{
  "_format": "hh-sol-artifact-1",
  "contractName": "Bank",
  "sourceName": "contracts/test/Bank.sol",
  "abi": [
    {
      "inputs": [],
      "stateMutability": "payable",
      "type": "constructor"
    },
    {
      "inputs": [],
      "name": "balance",
      "outputs": [
        {
          "internalType": "uint256",
          "name": "",
          "type": "uint256"
        }
      ],
      "stateMutability": "view",
      "type": "function"
    },
    {
      "inputs": [],
      "name": "deposit",
      "outputs": [],
      "stateMutability": "payable",
      "type": "function"
    },
    {
      "inputs": [
        {
          "internalType": "uint256",
          "name": "amount",
          "type": "uint256"
        }
      ],
      "name": "withdraw",
      "outputs": [],
      "stateMutability": "nonpayable",
      "type": "function"
    }
  ],
  "bytecode": "0x60806040523460005561020d806100176000396000f3fe6080604052600436106100345760003560e01c80632e1a7d4d14610039578063b69ef8a81461005b578063d0e30db014610083575b600080fd5b34801561004557600080fd5b50610059610054366004610163565b61008b565b005b34801561006757600080fd5b5061007160005481565b60405190815260200160405180910390f35b610059610145565b6000548111156100fb576040517f08c379a000000000000000000000000000000000000000000000000000000000815260206004820152601360248201527f746f6f206d756368207769746864726177616c00000000000000000000000000604482015260640160405180910390fd5b8060008082825461010c91906101ab565b90915550506040513390819083156108fc029084906000818181858888f19350505050158015610140573d6000803e3d6000fd5b505050565b60003490508060008082825461015b91906101c4565b909155505050565b60006020828403121561017557600080fd5b5035919050565b7f4e487b7100000000000000000000000000000000000000000000000000000000600052601160045260246000fd5b818103818111156101be576101be61017c565b92915050565b808201808211156101be576101be61017c56fea26469706673582212204b77e5ccaf652880e7fc126b85b866a037be6ee9af14808464d5a772a61a987964736f6c63430008130033",
  "linkReferences": {},
  "deployedLinkReferences": {}
}