{
  "_format": "hh-sol-artifact-1",
  "contractName": "ExtendTransactionBlocker",
  "sourceName": "contracts/test/ExtendTransactionBlocker.sol",
  "abi": [
    {
      "inputs": [
        {
          "internalType": "address[]",
          "name": "admins",
          "type": "address[]"
        },
        {
          "internalType": "address[]",
          "name": "managers",
          "type": "address[]"
        }
      ],
      "stateMutability": "nonpayable",
      "type": "constructor"
    },
    {
      "inputs": [],
      "name": "NotImplemented",
      "type": "error"
    },
    {
      "anonymous": false,
      "inputs": [
        {
          "indexed": false,
          "internalType": "address",
          "name": "addr",
          "type": "address"
        }
      ],
      "name": "BlockedAddressAdded",
      "type": "event"
    },
    {
      "anonymous": false,
      "inputs": [
        {
          "indexed": false,
          "internalType": "address",
          "name": "addr",
          "type": "address"
        }
      ],
      "name": "BlockedAddressRemoved",
      "type": "event"
    },
    {
      "anonymous": false,
      "inputs": [
        {
          "indexed": false,
          "internalType": "bool",
          "name": "isBlockedAll",
          "type": "bool"
        }
      ],
      "name": "BlockedAllSet",
      "type": "event"
    },
    {
      "anonymous": false,
      "inputs": [
        {
          "indexed": true,
          "internalType": "address",
          "name": "addr",
          "type": "address"
        }
      ],
      "name": "CallAllowed",
      "type": "event"
    },
    {
      "anonymous": false,
      "inputs": [
        {
          "indexed": true,
          "internalType": "address",
          "name": "addr",
          "type": "address"
        }
      ],
      "name": "CallDenied",
      "type": "event"
    },
    {
      "anonymous": false,
      "inputs": [
        {
          "indexed": true,
          "internalType": "address",
          "name": "addr",
          "type": "address"
        }
      ],
      "name": "CreateAllowed",
      "type": "event"
    },
    {
      "anonymous": false,
      "inputs": [
        {
          "indexed": true,
          "internalType": "address",
          "name": "addr",
          "type": "address"
        }
      ],
      "name": "CreateDenied",
      "type": "event"
    },
    {
      "anonymous": false,
      "inputs": [
        {
          "indexed": true,
          "internalType": "bytes32",
          "name": "role",
          "type": "bytes32"
        },
        {
          "indexed": true,
          "internalType": "bytes32",
          "name": "previousAdminRole",
          "type": "bytes32"
        },
        {
          "indexed": true,
          "internalType": "bytes32",
          "name": "newAdminRole",
          "type": "bytes32"
        }
      ],
      "name": "RoleAdminChanged",
      "type": "event"
    },
    {
      "anonymous": false,
      "inputs": [
        {
          "indexed": true,
          "internalType": "bytes32",
          "name": "role",
          "type": "bytes32"
        },
        {
          "indexed": true,
          "internalType": "address",
          "name": "account",
          "type": "address"
        },
        {
          "indexed": true,
          "internalType": "address",
          "name": "sender",
          "type": "address"
        }
      ],
      "name": "RoleGranted",
      "type": "event"
    },
    {
      "anonymous": false,
      "inputs": [
        {
          "indexed": true,
          "internalType": "bytes32",
          "name": "role",
          "type": "bytes32"
        },
        {
          "indexed": true,
          "internalType": "address",
          "name": "account",
          "type": "address"
        },
        {
          "indexed": true,
          "internalType": "address",
          "name": "sender",
          "type": "address"
        }
      ],
      "name": "RoleRevoked",
      "type": "event"
    },
    {
      "inputs": [],
      "name": "BLOCKED_ALL_ADDRESS",
      "outputs": [
        {
          "internalType": "address",
          "name": "",
          "type": "address"
        }
      ],
      "stateMutability": "view",
      "type": "function"
    },
    {
      "inputs": [],
      "name": "DEFAULT_ADMIN_ROLE",
      "outputs": [
        {
          "internalType": "bytes32",
          "name": "",
          "type": "bytes32"
        }
      ],
      "stateMutability": "view",
      "type": "function"
    },
    {
      "inputs": [],
      "name": "MANAGER_ROLE",
      "outputs": [
        {
          "internalType": "bytes32",
          "name": "",
          "type": "bytes32"
        }
      ],
      "stateMutability": "view",
      "type": "function"
    },
    {
      "inputs": [],
      "name": "SENTINEL",
      "outputs": [
        {
          "internalType": "address",
          "name": "",
          "type": "address"
        }
      ],
      "stateMutability": "view",
      "type": "function"
    },
    {
      "inputs": [
        {
          "internalType": "bytes32",
          "name": "storageKey",
          "type": "bytes32"
        }
      ],
      "name": "accessMapValue",
      "outputs": [
        {
          "internalType": "bytes32",
          "name": "",
          "type": "bytes32"
        }
      ],
      "stateMutability": "view",
      "type": "function"
    },
    {
      "inputs": [
        {
          "internalType": "address",
          "name": "addr",
          "type": "address"
        }
      ],
      "name": "addBlockedList",
      "outputs": [],
      "stateMutability": "nonpayable",
      "type": "function"
    },
    {
      "inputs": [
        {
          "internalType": "address",
          "name": "",
          "type": "address"
        }
      ],
      "name": "addCallDeniedList",
      "outputs": [],
      "stateMutability": "pure",
      "type": "function"
    },
    {
      "inputs": [
        {
          "internalType": "address",
          "name": "",
          "type": "address"
        }
      ],
      "name": "addCreateAllowedList",
      "outputs": [],
      "stateMutability": "pure",
      "type": "function"
    },
    {
      "inputs": [
        {
          "internalType": "bytes32",
          "name": "paddedAddress",
          "type": "bytes32"
        },
        {
          "internalType": "uint256",
          "name": "slot",
          "type": "uint256"
        }
      ],
      "name": "computeMapStorageKey",
      "outputs": [
        {
          "internalType": "bytes32",
          "name": "",
          "type": "bytes32"
        }
      ],
      "stateMutability": "pure",
      "type": "function"
    },
    {
      "inputs": [
        {
          "internalType": "bytes32",
          "name": "role",
          "type": "bytes32"
        }
      ],
      "name": "getRoleAdmin",
      "outputs": [
        {
          "internalType": "bytes32",
          "name": "",
          "type": "bytes32"
        }
      ],
      "stateMutability": "view",
      "type": "function"
    },
    {
      "inputs": [
        {
          "internalType": "bytes32",
          "name": "role",
          "type": "bytes32"
        },
        {
          "internalType": "address",
          "name": "account",
          "type": "address"
        }
      ],
      "name": "grantRole",
      "outputs": [],
      "stateMutability": "nonpayable",
      "type": "function"
    },
    {
      "inputs": [
        {
          "internalType": "bytes32",
          "name": "role",
          "type": "bytes32"
        },
        {
          "internalType": "address",
          "name": "account",
          "type": "address"
        }
      ],
      "name": "hasRole",
      "outputs": [
        {
          "internalType": "bool",
          "name": "",
          "type": "bool"
        }
      ],
      "stateMutability": "view",
      "type": "function"
    },
    {
      "inputs": [
        {
          "internalType": "address",
          "name": "",
          "type": "address"
        }
      ],
      "name": "isAllowedToCreate",
      "outputs": [
        {
          "internalType": "bool",
          "name": "",
          "type": "bool"
        }
      ],
      "stateMutability": "pure",
      "type": "function"
    },
    {
      "inputs": [
        {
          "internalType": "address",
          "name": "addr",
          "type": "address"
        }
      ],
      "name": "isBlockedAddress",
      "outputs": [
        {
          "internalType": "bool",
          "name": "",
          "type": "bool"
        }
      ],
      "stateMutability": "view",
      "type": "function"
    },
    {
      "inputs": [],
      "name": "isBlockedAll",
      "outputs": [
        {
          "internalType": "bool",
          "name": "",
          "type": "bool"
        }
      ],
      "stateMutability": "view",
      "type": "function"
    },
    {
      "inputs": [
        {
          "internalType": "address",
          "name": "",
          "type": "address"
        }
      ],
      "name": "isDeniedToCall",
      "outputs": [
        {
          "internalType": "bool",
          "name": "",
          "type": "bool"
        }
      ],
      "stateMutability": "pure",
      "type": "function"
    },
    {
      "inputs": [
        {
          "internalType": "address",
          "name": "_cursor",
          "type": "address"
        },
        {
          "internalType": "uint256",
          "name": "_howMany",
          "type": "uint256"
        }
      ],
      "name": "listBlockedAddresses",
      "outputs": [
        {
          "internalType": "address[]",
          "name": "",
          "type": "address[]"
        }
      ],
      "stateMutability": "view",
      "type": "function"
    },
    {
      "inputs": [
        {
          "internalType": "address",
          "name": "",
          "type": "address"
        },
        {
          "internalType": "uint256",
          "name": "",
          "type": "uint256"
        }
      ],
      "name": "listCallDenied",
      "outputs": [
        {
          "internalType": "address[]",
          "name": "",
          "type": "address[]"
        }
      ],
      "stateMutability": "pure",
      "type": "function"
    },
    {
      "inputs": [
        {
          "internalType": "address",
          "name": "",
          "type": "address"
        },
        {
          "internalType": "uint256",
          "name": "",
          "type": "uint256"
        }
      ],
      "name": "listCreateAllowed",
      "outputs": [
        {
          "internalType": "address[]",
          "name": "",
          "type": "address[]"
        }
      ],
      "stateMutability": "pure",
      "type": "function"
    },
    {
      "inputs": [
        {
          "internalType": "address",
          "name": "addr",
          "type": "address"
        },
        {
          "internalType": "address",
          "name": "prev",
          "type": "address"
        }
      ],
      "name": "removeBlockedList",
      "outputs": [],
      "stateMutability": "nonpayable",
      "type": "function"
    },
    {
      "inputs": [
        {
          "internalType": "address",
          "name": "",
          "type": "address"
        },
        {
          "internalType": "address",
          "name": "",
          "type": "address"
        }
      ],
      "name": "removeCallDeniedList",
      "outputs": [],
      "stateMutability": "pure",
      "type": "function"
    },
    {
      "inputs": [
        {
          "internalType": "address",
          "name": "",
          "type": "address"
        },
        {
          "internalType": "address",
          "name": "",
          "type": "address"
        }
      ],
      "name": "removeCreateAllowedList",
      "outputs": [],
      "stateMutability": "pure",
      "type": "function"
    },
    {
      "inputs": [
        {
          "internalType": "bytes32",
          "name": "role",
          "type": "bytes32"
        },
        {
          "internalType": "address",
          "name": "account",
          "type": "address"
        }
      ],
      "name": "renounceRole",
      "outputs": [],
      "stateMutability": "nonpayable",
      "type": "function"
    },
    {
      "inputs": [
        {
          "internalType": "bytes32",
          "name": "role",
          "type": "bytes32"
        },
        {
          "internalType": "address",
          "name": "account",
          "type": "address"
        }
      ],
      "name": "revokeRole",
      "outputs": [],
      "stateMutability": "nonpayable",
      "type": "function"
    },
    {
      "inputs": [
        {
          "internalType": "bool",
          "name": "_isBlockedAll",
          "type": "bool"
        }
      ],
      "name": "setBlockedAll",
      "outputs": [],
      "stateMutability": "nonpayable",
      "type": "function"
    },
    {
      "inputs": [
        {
          "internalType": "bytes4",
          "name": "interfaceId",
          "type": "bytes4"
        }
      ],
      "name": "supportsInterface",
      "outputs": [
        {
          "internalType": "bool",
          "name": "",
          "type": "bool"
        }
      ],
      "stateMutability": "view",
      "type": "function"
    },
    {
      "inputs": [],
      "name": "version",
      "outputs": [
        {
          "internalType": "string",
          "name": "",
          "type": "string"
        }
      ],
      "stateMutability": "pure",
      "type": "function"
    }
  ],
  "bytecode": "0x60806040523480156200001157600080fd5b506040516200192b3803806200192b8339810160408190526200003491620003e6565b8181818160005b8251811015620001025760006001600160a01b031683828151811062000065576200006562000450565b60200260200101516001600160a01b031603620000be5760405162461bcd60e51b81526020600482015260126024820152714541433a2061646d696e206973207a65726f60701b60448201526064015b60405180910390fd5b620000ef6000801b848381518110620000db57620000db62000450565b60200260200101516200025660201b60201c565b620000fa8162000466565b90506200003b565b5060005b8151811015620001dd5760006001600160a01b031682828151811062000130576200013062000450565b60200260200101516001600160a01b031603620001905760405162461bcd60e51b815260206004820152601460248201527f4541433a2063726561746f72206973207a65726f0000000000000000000000006044820152606401620000b5565b620001ca7f241ecf16d79d0f8dbfb92cbc07fe17840425976cf0667f022fe9877caa831b08838381518110620000db57620000db62000450565b620001d58162000466565b905062000106565b5050600160008190527fcc69885fda6bcc1a4ace058b4a62bf5e179ea78fd58a1ccd71c22cc9b688792f80546001600160a01b0319908116831790915560026020527fe90b7bceb6e7df5418fb78d8ee546e97c83a08bbccc01a0644d599ccd2a7c2e080549091169091179055506200048e9350505050565b62000262828262000266565b5050565b6000828152602081815260408083206001600160a01b038516845290915290205460ff1662000262576000828152602081815260408083206001600160a01b03851684529091529020805460ff19166001179055620002c23390565b6001600160a01b0316816001600160a01b0316837f2f8788117e7eff1d82e926ec794901d17c78024a50270940304540a733656f0d60405160405180910390a45050565b634e487b7160e01b600052604160045260246000fd5b80516001600160a01b03811681146200033457600080fd5b919050565b600082601f8301126200034b57600080fd5b815160206001600160401b03808311156200036a576200036a62000306565b8260051b604051601f19603f8301168101818110848211171562000392576200039262000306565b604052938452858101830193838101925087851115620003b157600080fd5b83870191505b84821015620003db57620003cb826200031c565b83529183019190830190620003b7565b979650505050505050565b60008060408385031215620003fa57600080fd5b82516001600160401b03808211156200041257600080fd5b620004208683870162000339565b935060208501519150808211156200043757600080fd5b50620004468582860162000339565b9150509250929050565b634e487b7160e01b600052603260045260246000fd5b6000600182016200048757634e487b7160e01b600052601160045260246000fd5b5060010190565b61148d806200049e6000396000f3fe608060405234801561001057600080fd5b50600436106101b95760003560e01c806390d3ed88116100f9578063bd7f53d611610097578063e969f4e111610071578063e969f4e11461023d578063ec87621c14610431578063f00cab4314610458578063ff616c8e146103fd57600080fd5b8063bd7f53d6146103fd578063be6e9c8f1461040b578063d547741f1461041e57600080fd5b8063a217fddf116100d3578063a217fddf14610394578063adf7473e1461039c578063b437ea5b146103ae578063b7a40577146103ea57600080fd5b806390d3ed881461028b57806391d148541461034a578063999191931461038157600080fd5b8063385599a31161016657806359c3dd391161014057806359c3dd39146102ea57806373f25c38146102fd5780637723a3eb146102fd5780637ed5dc4a1461031057600080fd5b8063385599a314610278578063506921d01461028b57806354fd4d50146102ab57600080fd5b806329853b861161019757806329853b861461023d5780632f2ff15d1461025257806336568abe1461026557600080fd5b806301ffc9a7146101be5780631023b0fe146101e6578063248a9ca31461020c575b600080fd5b6101d16101cc366004611140565b610460565b60405190151581526020015b60405180910390f35b6101f46001600160a01b0381565b6040516001600160a01b0390911681526020016101dd565b61022f61021a366004611182565b60009081526020819052604090206001015490565b6040519081526020016101dd565b61025061024b3660046111b7565b6104f9565b005b6102506102603660046111ea565b610512565b6102506102733660046111ea565b6105aa565b61025061028636600461120d565b610632565b61029e61029936600461122f565b6106c7565b6040516101dd9190611259565b604080518082018252600581527f312e302e30000000000000000000000000000000000000000000000000000000602082015290516101dd91906112ca565b6102506102f83660046112fd565b6106e2565b6101d161030b3660046112fd565b610750565b61022f61031e366004611318565b604080516020808201949094528082019290925280518083038201815260609092019052805191012090565b6101d16103583660046111ea565b6000918252602082815260408084206001600160a01b0393909316845291905290205460ff1690565b61029e61038f36600461122f565b61076b565b61022f600081565b61022f6103aa366004611182565b5490565b6001600160a01b03600081905260026020527f86cf984b44bed1f7f8b143f6052803e8b74964b2ee297832a77790be6d6308f1541615156101d1565b6101d16103f83660046112fd565b610780565b61025061024b3660046112fd565b6102506104193660046111b7565b6107a4565b61025061042c3660046111ea565b61081b565b61022f7f241ecf16d79d0f8dbfb92cbc07fe17840425976cf0667f022fe9877caa831b0881565b6101f4600181565b60007fffffffff0000000000000000000000000000000000000000000000000000000082167f7965db0b0000000000000000000000000000000000000000000000000000000014806104f357507f01ffc9a7000000000000000000000000000000000000000000000000000000007fffffffff000000000000000000000000000000000000000000000000000000008316145b92915050565b60405163d623472560e01b815260040160405180910390fd5b7f241ecf16d79d0f8dbfb92cbc07fe17840425976cf0667f022fe9877caa831b088214801561054a57506001600160a01b0381163b15155b1561059c5760405162461bcd60e51b815260206004820152601860248201527f6e6f7420454f4120666f72206d616e6167657220726f6c65000000000000000060448201526064015b60405180910390fd5b6105a68282610845565b5050565b6001600160a01b03811633146106285760405162461bcd60e51b815260206004820152602f60248201527f416363657373436f6e74726f6c3a2063616e206f6e6c792072656e6f756e636560448201527f20726f6c657320666f722073656c6600000000000000000000000000000000006064820152608401610593565b6105a6828261086a565b7f241ecf16d79d0f8dbfb92cbc07fe17840425976cf0667f022fe9877caa831b0861065c816108e9565b81156106795761067460026001600160a01b036108f6565b61068d565b61068d60026001600160a01b036001610abd565b60405182151581527facaa322a9bd20e6b6f4869b28da596934fbbd975266644e887c0e60b07036fad906020015b60405180910390a15050565b606060405163d623472560e01b815260040160405180910390fd5b7f241ecf16d79d0f8dbfb92cbc07fe17840425976cf0667f022fe9877caa831b0861070c816108e9565b6107176001836108f6565b6040516001600160a01b03831681527f0ecd542a8586985efacafb8e52f3b5f5f3a8536267980603bb9400f80aa222de906020016106bb565b600060405163d623472560e01b815260040160405180910390fd5b606061077960018484610caf565b9392505050565b6001600160a01b0380821660009081526001602052604081205490911615156104f3565b7f241ecf16d79d0f8dbfb92cbc07fe17840425976cf0667f022fe9877caa831b086107ce816108e9565b6107da60018484610abd565b6040516001600160a01b03841681527f297d3e371fa93a7e8b429663d02f6825218b1bebe4b33706958c25dce48d06159060200160405180910390a1505050565b600082815260208190526040902060010154610836816108e9565b610840838361086a565b505050565b600082815260208190526040902060010154610860816108e9565b6108408383610d82565b6000828152602081815260408083206001600160a01b038516845290915290205460ff16156105a6576000828152602081815260408083206001600160a01b0385168085529252808320805460ff1916905551339285917ff6391f5c32d9c69d2a47ea670b442974b53935d1edc7fd64eb21e047a839171b9190a45050565b6108f38133610e20565b50565b6001600160a01b03811661094c5760405162461bcd60e51b815260206004820152601160248201527f4541433a2061646472206973207a65726f0000000000000000000000000000006044820152606401610593565b306001600160a01b038216036109a45760405162461bcd60e51b815260206004820152601160248201527f4541433a20616464722069732073656c660000000000000000000000000000006044820152606401610593565b6000196001600160a01b038216016109fe5760405162461bcd60e51b815260206004820152601560248201527f4541433a20616464722069732073656e74696e656c00000000000000000000006044820152606401610593565b6001600160a01b038181166000908152602084905260409020541615610a665760405162461bcd60e51b815260206004820152601360248201527f4541433a20616c726561647920657869737473000000000000000000000000006044820152606401610593565b60016000818152602093909352604080842080546001600160a01b0394851680875292862080549590911673ffffffffffffffffffffffffffffffffffffffff199586161790559190935280549091169091179055565b6001600160a01b038216610b135760405162461bcd60e51b815260206004820152601160248201527f4541433a2061646472206973207a65726f0000000000000000000000000000006044820152606401610593565b6000196001600160a01b03831601610b6d5760405162461bcd60e51b815260206004820152601560248201527f4541433a20616464722069732073656e74696e656c00000000000000000000006044820152606401610593565b6001600160a01b0382811660009081526020859052604090205416610bd45760405162461bcd60e51b815260206004820152600e60248201527f4541433a206e6f7420666f756e640000000000000000000000000000000000006044820152606401610593565b6001600160a01b038116610bef57610bec8383610e93565b90505b6001600160a01b03818116600090815260208590526040902054811690831614610c5b5760405162461bcd60e51b815260206004820181905260248201527f4541433a2070726576206164647265737320646f6573206e6f74206d617463686044820152606401610593565b6001600160a01b03918216600081815260209490945260408085208054938516865290852080549390941673ffffffffffffffffffffffffffffffffffffffff199384161790935590925280549091169055565b60606001600160a01b038316610cc457600192505b60008267ffffffffffffffff811115610cdf57610cdf61133a565b604051908082528060200260200182016040528015610d08578160200160208202803683370190505b50905060005b83811015610d79576001600160a01b0394851660009081526020879052604090205490941693600019850115610d795784828281518110610d5157610d51611350565b6001600160a01b0390921660209283029190910190910152610d728161137c565b9050610d0e565b50949350505050565b6000828152602081815260408083206001600160a01b038516845290915290205460ff166105a6576000828152602081815260408083206001600160a01b03851684529091529020805460ff19166001179055610ddc3390565b6001600160a01b0316816001600160a01b0316837f2f8788117e7eff1d82e926ec794901d17c78024a50270940304540a733656f0d60405160405180910390a45050565b6000828152602081815260408083206001600160a01b038516845290915290205460ff166105a657610e5181610f4d565b610e5c836020610f5f565b604051602001610e6d929190611395565b60408051601f198184030181529082905262461bcd60e51b8252610593916004016112ca565b600060015b6001600160a01b0381811660009081526020869052604090205416600114610f05576001600160a01b03818116600090815260208690526040902054818516911603610ee55790506104f3565b6001600160a01b0390811660009081526020859052604090205416610e98565b60405162461bcd60e51b815260206004820152601b60248201527f4541433a20707265762061646472657373206e6f7420666f756e6400000000006044820152606401610593565b60606104f36001600160a01b03831660145b60606000610f6e836002611416565b610f7990600261142d565b67ffffffffffffffff811115610f9157610f9161133a565b6040519080825280601f01601f191660200182016040528015610fbb576020820181803683370190505b5090507f300000000000000000000000000000000000000000000000000000000000000081600081518110610ff257610ff2611350565b60200101906001600160f81b031916908160001a9053507f78000000000000000000000000000000000000000000000000000000000000008160018151811061103d5761103d611350565b60200101906001600160f81b031916908160001a9053506000611061846002611416565b61106c90600161142d565b90505b60018111156110f1577f303132333435363738396162636465660000000000000000000000000000000085600f16601081106110ad576110ad611350565b1a60f81b8282815181106110c3576110c3611350565b60200101906001600160f81b031916908160001a90535060049490941c936110ea81611440565b905061106f565b5083156107795760405162461bcd60e51b815260206004820181905260248201527f537472696e67733a20686578206c656e67746820696e73756666696369656e746044820152606401610593565b60006020828403121561115257600080fd5b81357fffffffff000000000000000000000000000000000000000000000000000000008116811461077957600080fd5b60006020828403121561119457600080fd5b5035919050565b80356001600160a01b03811681146111b257600080fd5b919050565b600080604083850312156111ca57600080fd5b6111d38361119b565b91506111e16020840161119b565b90509250929050565b600080604083850312156111fd57600080fd5b823591506111e16020840161119b565b60006020828403121561121f57600080fd5b8135801515811461077957600080fd5b6000806040838503121561124257600080fd5b61124b8361119b565b946020939093013593505050565b6020808252825182820181905260009190848201906040850190845b8181101561129a5783516001600160a01b031683529284019291840191600101611275565b50909695505050505050565b60005b838110156112c15781810151838201526020016112a9565b50506000910152565b60208152600082518060208401526112e98160408501602087016112a6565b601f01601f19169190910160400192915050565b60006020828403121561130f57600080fd5b6107798261119b565b6000806040838503121561132b57600080fd5b50508035926020909101359150565b634e487b7160e01b600052604160045260246000fd5b634e487b7160e01b600052603260045260246000fd5b634e487b7160e01b600052601160045260246000fd5b60006001820161138e5761138e611366565b5060010190565b7f416363657373436f6e74726f6c3a206163636f756e74200000000000000000008152600083516113cd8160178501602088016112a6565b7f206973206d697373696e6720726f6c6520000000000000000000000000000000601791840191820152835161140a8160288401602088016112a6565b01602801949350505050565b80820281158282048414176104f3576104f3611366565b808201808211156104f3576104f3611366565b60008161144f5761144f611366565b50600019019056fea26469706673582212200fa5f08966fdc87518efe39af6ec20127f4f2bc855f3bbd6faeeaaa343fc38e764736f6c63430008130033",
  "linkReferences": {},
  "deployedLinkReferences": {}
}