{
  "_format": "hh-sol-artifact-1",
  "contractName": "CounterUpgradable",
  "sourceName": "contracts/test/CounterUpgradable.sol",
  "abi": [
    {
      "stateMutability": "payable",
      "type": "fallback"
    },
    {
      "inputs": [
        {
          "internalType": "address",
          "name": "newImplementation",
          "type": "address"
        }
      ],
      "name": "upgradeToAndCall",
      "outputs": [],
      "stateMutability": "nonpayable",
      "type": "function"
    },
    {
      "stateMutability": "payable",
      "type": "receive"
    }
  ],
  "bytecode": "0x608060405234801561001057600080fd5b5061022f806100206000396000f3fe6080604052600436106100225760003560e01c8063388e9e0a1461003957610031565b366100315761002f610059565b005b61002f610059565b34801561004557600080fd5b5061002f6100543660046101bc565b6100a1565b61009f61009a7f360894a13ba1a3210667c828492db98dca3e2076cc3735a920a3ca505d382bbc5473ffffffffffffffffffffffffffffffffffffffff1690565b6100ad565b565b6100aa816100d1565b50565b3660008037600080366000845af43d6000803e8080156100cc573d6000f35b3d6000fd5b8073ffffffffffffffffffffffffffffffffffffffff163b600003610156576040517f08c379a000000000000000000000000000000000000000000000000000000000815260206004820152601660248201527f696e76616c696420696d706c656d656e746174696f6e00000000000000000000604482015260640160405180910390fd5b7f360894a13ba1a3210667c828492db98dca3e2076cc3735a920a3ca505d382bbc80547fffffffffffffffffffffffff00000000000000000000000000000000000000001673ffffffffffffffffffffffffffffffffffffffff92909216919091179055565b6000602082840312156101ce57600080fd5b813573ffffffffffffffffffffffffffffffffffffffff811681146101f257600080fd5b939250505056fea26469706673582212206d09ce5c52a1c0984168875b50453a6dd289c0e3184cc5604954773af5de18aa64736f6c63430008130033",
  "linkReferences": {},
  "deployedLinkReferences": {}
}