{
  "_format": "hh-sol-artifact-1",
  "contractName": "ContractMetadataRegistory",
  "sourceName": "contracts/ContractMetadataRegistory.sol",
  "abi": [
    {
      "inputs": [
        {
          "internalType": "contract IContractMetadataRegistory",
          "name": "_prevRegistory",
          "type": "address"
        }
      ],
      "stateMutability": "nonpayable",
      "type": "constructor"
    },
    {
      "anonymous": false,
      "inputs": [
        {
          "indexed": true,
          "internalType": "address",
          "name": "creator",
          "type": "address"
        },
        {
          "indexed": false,
          "internalType": "address",
          "name": "createdAddress",
          "type": "address"
        },
        {
          "indexed": false,
          "internalType": "string",
          "name": "tag",
          "type": "string"
        }
      ],
      "name": "Registerd",
      "type": "event"
    },
    {
      "inputs": [
        {
          "internalType": "address",
          "name": "createdAddress",
          "type": "address"
        }
      ],
      "name": "getMetadata",
      "outputs": [
        {
          "components": [
            {
              "internalType": "address",
              "name": "createdAddress",
              "type": "address"
            },
            {
              "internalType": "address",
              "name": "creator",
              "type": "address"
            },
            {
              "internalType": "string",
              "name": "tag",
              "type": "string"
            }
          ],
          "internalType": "struct IContractMetadataRegistory.ContractMetadata",
          "name": "meta",
          "type": "tuple"
        }
      ],
      "stateMutability": "view",
      "type": "function"
    },
    {
      "inputs": [
        {
          "internalType": "uint256",
          "name": "index",
          "type": "uint256"
        }
      ],
      "name": "getMetadataByIndex",
      "outputs": [
        {
          "components": [
            {
              "internalType": "address",
              "name": "createdAddress",
              "type": "address"
            },
            {
              "internalType": "address",
              "name": "creator",
              "type": "address"
            },
            {
              "internalType": "string",
              "name": "tag",
              "type": "string"
            }
          ],
          "internalType": "struct IContractMetadataRegistory.ContractMetadata",
          "name": "",
          "type": "tuple"
        }
      ],
      "stateMutability": "view",
      "type": "function"
    },
    {
      "inputs": [],
      "name": "prevRegistory",
      "outputs": [
        {
          "internalType": "contract IContractMetadataRegistory",
          "name": "",
          "type": "address"
        }
      ],
      "stateMutability": "view",
      "type": "function"
    },
    {
      "inputs": [],
      "name": "totalCreatedContracFromThis",
      "outputs": [
        {
          "internalType": "uint256",
          "name": "total",
          "type": "uint256"
        }
      ],
      "stateMutability": "view",
      "type": "function"
    },
    {
      "inputs": [],
      "name": "totalCreatedContract",
      "outputs": [
        {
          "internalType": "uint256",
          "name": "total",
          "type": "uint256"
        }
      ],
      "stateMutability": "view",
      "type": "function"
    }
  ],
  "bytecode": "0x60a060405234801561001057600080fd5b50604051610aa1380380610aa183398101604081905261002f91610040565b6001600160a01b0316608052610070565b60006020828403121561005257600080fd5b81516001600160a01b038116811461006957600080fd5b9392505050565b6080516109fb6100a66000396000818160c30152818161017a015281816101a9015281816104b3015261051301526109fb6000f3fe608060405234801561001057600080fd5b50600436106100675760003560e01c80634de79ecc116100505780634de79ecc146100a3578063da58f37e146100ab578063f593ee35146100be57600080fd5b80632097ca281461006c5780632a50c14614610083575b600080fd5b6000545b6040519081526020015b60405180910390f35b61009661009136600461066b565b6100fd565b60405161007a91906106b3565b610070610175565b6100966100b9366004610710565b610239565b6100e57f000000000000000000000000000000000000000000000000000000000000000081565b6040516001600160a01b03909116815260200161007a565b60408051606080820183526000808352602083015291810191909152610122826103ab565b60208101519091506001600160a01b03166101705760405162461bcd60e51b81526020600482015260096024820152681b9bdd08199bdd5b9960ba1b60448201526064015b60405180910390fd5b919050565b6000547f00000000000000000000000000000000000000000000000000000000000000006001600160a01b031615610236577f00000000000000000000000000000000000000000000000000000000000000006001600160a01b0316634de79ecc6040518163ffffffff1660e01b8152600401602060405180830381865afa158015610205573d6000803e3d6000fd5b505050506040513d601f19601f820116820180604052508101906102299190610729565b6102339082610758565b90505b90565b60408051606080820183526000808352602083018190529282015290546102629060019061076b565b8211156102b15760405162461bcd60e51b815260206004820152601260248201527f696e646578206f7574206f662072616e676500000000000000000000000000006044820152606401610167565b600160008084815481106102c7576102c761077e565b60009182526020808320909101546001600160a01b0390811684528382019490945260409283019091208251606081018452815485168152600182015490941691840191909152600281018054919284019161032290610794565b80601f016020809104026020016040519081016040528092919081815260200182805461034e90610794565b801561039b5780601f106103705761010080835404028352916020019161039b565b820191906000526020600020905b81548152906001019060200180831161037e57829003601f168201915b5050505050815250509050919050565b6040805160608082018352600080835260208084018290528385018390526001600160a01b0386811683526001808352928690208651948501875280548216855292830154169083015260028101805493949293919284019161040d90610794565b80601f016020809104026020016040519081016040528092919081815260200182805461043990610794565b80156104865780601f1061045b57610100808354040283529160200191610486565b820191906000526020600020905b81548152906001019060200180831161046957829003601f168201915b5050509190925250505060208101519091506001600160a01b03161580156104d657506001600160a01b037f00000000000000000000000000000000000000000000000000000000000000001615155b15610170576040517f2a50c1460000000000000000000000000000000000000000000000000000000081526001600160a01b0383811660048301527f00000000000000000000000000000000000000000000000000000000000000001690632a50c14690602401600060405180830381865afa92505050801561057b57506040513d6000823e601f3d908101601f191682016040526105789190810190610831565b60015b61064d57610587610920565b806308c379a003610641575061059b61093b565b806105a65750610643565b6040805180820190915260098152681b9bdd08199bdd5b9960ba1b6020918201528151908201207f9b887cfddc434e3cf41b666954131afc611b880c7637aac66ca1f629f8984c5b1461063b5760405162461bcd60e51b815260206004820152601060248201527f756e6578706563746564206572726f72000000000000000000000000000000006044820152606401610167565b50919050565b505b3d6000803e3d6000fd5b92915050565b6001600160a01b038116811461066857600080fd5b50565b60006020828403121561067d57600080fd5b813561068881610653565b9392505050565b60005b838110156106aa578181015183820152602001610692565b50506000910152565b6020815260006001600160a01b0380845116602084015280602085015116604084015250604083015160608084015280518060808501526106fb8160a086016020850161068f565b601f01601f19169290920160a0019392505050565b60006020828403121561072257600080fd5b5035919050565b60006020828403121561073b57600080fd5b5051919050565b634e487b7160e01b600052601160045260246000fd5b8082018082111561064d5761064d610742565b8181038181111561064d5761064d610742565b634e487b7160e01b600052603260045260246000fd5b600181811c908216806107a857607f821691505b60208210810361063b57634e487b7160e01b600052602260045260246000fd5b634e487b7160e01b600052604160045260246000fd5b6060810181811067ffffffffffffffff821117156107fe576107fe6107c8565b60405250565b601f8201601f1916810167ffffffffffffffff8111828210171561082a5761082a6107c8565b6040525050565b6000602080838503121561084457600080fd5b825167ffffffffffffffff8082111561085c57600080fd5b908401906060828703121561087057600080fd5b60405161087c816107de565b825161088781610653565b81528284015161089681610653565b818501526040830151828111156108ac57600080fd5b80840193505086601f8401126108c157600080fd5b8251828111156108d3576108d36107c8565b60405192506108eb601f8201601f1916860184610804565b80835287858286010111156108ff57600080fd5b61090e8186850187870161068f565b50604081019190915295945050505050565b600060033d11156102365760046000803e5060005160e01c90565b600060443d10156109495790565b6040516003193d81016004833e81513d67ffffffffffffffff816024840111818411171561097957505050505090565b82850191508151818111156109915750505050505090565b843d87010160208285010111156109ab5750505050505090565b6109ba60208286010187610804565b50909594505050505056fea2646970667358221220321f042075f246b73118cb71b88eef8b465674c893d4f575a917beee622a6ca164736f6c63430008130033",
  "linkReferences": {},
  "deployedLinkReferences": {}
}