{
  "_format": "hh-sol-artifact-1",
  "contractName": "ContractMetadataRegistory",
  "sourceName": "contracts/ContractMetadataRegistory.sol",
  "abi": [
    {
      "anonymous": false,
      "inputs": [
        {
          "indexed": true,
          "internalType": "address",
          "name": "creator",
          "type": "address"
        },
        {
          "indexed": false,
          "internalType": "address",
          "name": "createdAddress",
          "type": "address"
        },
        {
          "indexed": false,
          "internalType": "string",
          "name": "tag",
          "type": "string"
        }
      ],
      "name": "Registerd",
      "type": "event"
    },
    {
      "inputs": [
        {
          "internalType": "address",
          "name": "createdAddress",
          "type": "address"
        }
      ],
      "name": "getMetadata",
      "outputs": [
        {
          "components": [
            {
              "internalType": "address",
              "name": "createdAddress",
              "type": "address"
            },
            {
              "internalType": "address",
              "name": "creator",
              "type": "address"
            },
            {
              "internalType": "string",
              "name": "tag",
              "type": "string"
            }
          ],
          "internalType": "struct ContractMetadataRegistory.ContractMetadata",
          "name": "meta",
          "type": "tuple"
        }
      ],
      "stateMutability": "view",
      "type": "function"
    },
    {
      "inputs": [
        {
          "internalType": "uint256",
          "name": "index",
          "type": "uint256"
        }
      ],
      "name": "getMetadataByIndex",
      "outputs": [
        {
          "components": [
            {
              "internalType": "address",
              "name": "createdAddress",
              "type": "address"
            },
            {
              "internalType": "address",
              "name": "creator",
              "type": "address"
            },
            {
              "internalType": "string",
              "name": "tag",
              "type": "string"
            }
          ],
          "internalType": "struct ContractMetadataRegistory.ContractMetadata",
          "name": "meta",
          "type": "tuple"
        }
      ],
      "stateMutability": "view",
      "type": "function"
    },
    {
      "inputs": [],
      "name": "totalCreatedContract",
      "outputs": [
        {
          "internalType": "uint256",
          "name": "",
          "type": "uint256"
        }
      ],
      "stateMutability": "view",
      "type": "function"
    }
  ],
  "bytecode": "0x608060405234801561001057600080fd5b506104bc806100206000396000f3fe608060405234801561001057600080fd5b50600436106100415760003560e01c80632a50c146146100465780634de79ecc1461006f578063da58f37e14610080575b600080fd5b61005961005436600461034f565b610093565b604051610066919061037f565b60405180910390f35b600054604051908152602001610066565b61005961008e3660046103f6565b6101df565b6040805160608082018352600080835260208084018290528385018390526001600160a01b038681168352600180835292869020865194850187528054821685529283015416908301526002810180549394929391928401916100f59061040f565b80601f01602080910402602001604051908101604052809291908181526020018280546101219061040f565b801561016e5780601f106101435761010080835404028352916020019161016e565b820191906000526020600020905b81548152906001019060200180831161015157829003601f168201915b5050509190925250505060208101519091506001600160a01b03166101da5760405162461bcd60e51b815260206004820152600960248201527f6e6f7420666f756e64000000000000000000000000000000000000000000000060448201526064015b60405180910390fd5b919050565b6040805160608082018352600080835260208301819052928201529054610207836001610449565b11156102555760405162461bcd60e51b815260206004820152601260248201527f696e646578206f7574206f662072616e6765000000000000000000000000000060448201526064016101d1565b6001600080848154811061026b5761026b610470565b60009182526020808320909101546001600160a01b039081168452838201949094526040928301909120825160608101845281548516815260018201549094169184019190915260028101805491928401916102c69061040f565b80601f01602080910402602001604051908101604052809291908181526020018280546102f29061040f565b801561033f5780601f106103145761010080835404028352916020019161033f565b820191906000526020600020905b81548152906001019060200180831161032257829003601f168201915b5050505050815250509050919050565b60006020828403121561036157600080fd5b81356001600160a01b038116811461037857600080fd5b9392505050565b600060208083526001600160a01b0380855116828501528082860151166040850152506040840151606080850152805180608086015260005b818110156103d45782810184015186820160a0015283016103b8565b50600060a0828701015260a0601f19601f830116860101935050505092915050565b60006020828403121561040857600080fd5b5035919050565b600181811c9082168061042357607f821691505b60208210810361044357634e487b7160e01b600052602260045260246000fd5b50919050565b8082018082111561046a57634e487b7160e01b600052601160045260246000fd5b92915050565b634e487b7160e01b600052603260045260246000fdfea264697066735822122054c642cd16430d63ce3c913c92a40fccc7589d602d0274c5c42f428be5b300e564736f6c63430008130033",
  "linkReferences": {},
  "deployedLinkReferences": {}
}