{
  "_format": "hh-sol-artifact-1",
  "contractName": "ContractMetadataRegistory",
  "sourceName": "contracts/ContractMetadataRegistory.sol",
  "abi": [
    {
      "inputs": [
        {
          "internalType": "contract IContractMetadataRegistory",
          "name": "_prevRegistory",
          "type": "address"
        }
      ],
      "stateMutability": "nonpayable",
      "type": "constructor"
    },
    {
      "anonymous": false,
      "inputs": [
        {
          "indexed": true,
          "internalType": "address",
          "name": "creator",
          "type": "address"
        },
        {
          "indexed": false,
          "internalType": "address",
          "name": "createdAddress",
          "type": "address"
        },
        {
          "indexed": false,
          "internalType": "string",
          "name": "tag",
          "type": "string"
        }
      ],
      "name": "Registerd",
      "type": "event"
    },
    {
      "inputs": [
        {
          "internalType": "address",
          "name": "createdAddress",
          "type": "address"
        }
      ],
      "name": "getMetadata",
      "outputs": [
        {
          "components": [
            {
              "internalType": "address",
              "name": "createdAddress",
              "type": "address"
            },
            {
              "internalType": "address",
              "name": "creator",
              "type": "address"
            },
            {
              "internalType": "string",
              "name": "tag",
              "type": "string"
            }
          ],
          "internalType": "struct IContractMetadataRegistory.ContractMetadata",
          "name": "meta",
          "type": "tuple"
        }
      ],
      "stateMutability": "view",
      "type": "function"
    },
    {
      "inputs": [
        {
          "internalType": "uint256",
          "name": "index",
          "type": "uint256"
        }
      ],
      "name": "getMetadataByIndex",
      "outputs": [
        {
          "components": [
            {
              "internalType": "address",
              "name": "createdAddress",
              "type": "address"
            },
            {
              "internalType": "address",
              "name": "creator",
              "type": "address"
            },
            {
              "internalType": "string",
              "name": "tag",
              "type": "string"
            }
          ],
          "internalType": "struct IContractMetadataRegistory.ContractMetadata",
          "name": "",
          "type": "tuple"
        }
      ],
      "stateMutability": "view",
      "type": "function"
    },
    {
      "inputs": [],
      "name": "prevRegistory",
      "outputs": [
        {
          "internalType": "contract IContractMetadataRegistory",
          "name": "",
          "type": "address"
        }
      ],
      "stateMutability": "view",
      "type": "function"
    },
    {
      "inputs": [],
      "name": "totalCreatedContract",
      "outputs": [
        {
          "internalType": "uint256",
          "name": "total",
          "type": "uint256"
        }
      ],
      "stateMutability": "view",
      "type": "function"
    }
  ],
  "bytecode": "0x60a060405234801561001057600080fd5b50604051610bba380380610bba83398101604081905261002f91610040565b6001600160a01b0316608052610070565b60006020828403121561005257600080fd5b81516001600160a01b038116811461006957600080fd5b9392505050565b608051610aff6100bb6000396000818160a80152818161017b015281816101a2015281816102bb015281816103dd0152818161049f0152818161072901526107890152610aff6000f3fe608060405234801561001057600080fd5b506004361061004c5760003560e01c80632a50c146146100515780634de79ecc1461007a578063da58f37e14610090578063f593ee35146100a3575b600080fd5b61006461005f366004610816565b6100e2565b6040516100719190610857565b60405180910390f35b61008261016e565b604051908152602001610071565b61006461009e3660046108b4565b610232565b6100ca7f000000000000000000000000000000000000000000000000000000000000000081565b6040516001600160a01b039091168152602001610071565b6040805160608082018352600080835260208301529181019190915261010782610621565b60208101519091506001600160a01b03166101695760405162461bcd60e51b815260206004820152600960248201527f6e6f7420666f756e64000000000000000000000000000000000000000000000060448201526064015b60405180910390fd5b919050565b6000546001600160a01b037f0000000000000000000000000000000000000000000000000000000000000000161561022f577f00000000000000000000000000000000000000000000000000000000000000006001600160a01b0316634de79ecc6040518163ffffffff1660e01b8152600401602060405180830381865afa1580156101fe573d6000803e3d6000fd5b505050506040513d601f19601f8201168201806040525081019061022291906108cd565b61022c90826108fc565b90505b90565b60408051606080820183526000808352602083015291810191909152600161025861016e565b610262919061090f565b8211156102b15760405162461bcd60e51b815260206004820152601260248201527f696e646578206f7574206f662072616e676500000000000000000000000000006044820152606401610160565b6001600160a01b037f0000000000000000000000000000000000000000000000000000000000000000166103d957600160008084815481106102f5576102f5610922565b60009182526020808320909101546001600160a01b0390811684528382019490945260409283019091208251606081018452815485168152600182015490941691840191909152600281018054919284019161035090610938565b80601f016020809104026020016040519081016040528092919081815260200182805461037c90610938565b80156103c95780601f1061039e576101008083540402835291602001916103c9565b820191906000526020600020905b8154815290600101906020018083116103ac57829003601f168201915b5050505050815250509050919050565b60007f00000000000000000000000000000000000000000000000000000000000000006001600160a01b0316634de79ecc6040518163ffffffff1660e01b8152600401602060405180830381865afa158015610439573d6000803e3d6000fd5b505050506040513d601f19601f8201168201806040525081019061045d91906108cd565b905061046a60018261090f565b831161051d576040517fda58f37e000000000000000000000000000000000000000000000000000000008152600481018490527f00000000000000000000000000000000000000000000000000000000000000006001600160a01b03169063da58f37e90602401600060405180830381865afa1580156104ee573d6000803e3d6000fd5b505050506040513d6000823e601f3d908101601f1916820160405261051691908101906109e2565b9392505050565b600160008061052c848761090f565b8154811061053c5761053c610922565b60009182526020808320909101546001600160a01b0390811684528382019490945260409283019091208251606081018452815485168152600182015490941691840191909152600281018054919284019161059790610938565b80601f01602080910402602001604051908101604052809291908181526020018280546105c390610938565b80156106105780601f106105e557610100808354040283529160200191610610565b820191906000526020600020905b8154815290600101906020018083116105f357829003601f168201915b505050505081525050915050919050565b6040805160608082018352600080835260208084018290528385018390526001600160a01b0386811683526001808352928690208651948501875280548216855292830154169083015260028101805493949293919284019161068390610938565b80601f01602080910402602001604051908101604052809291908181526020018280546106af90610938565b80156106fc5780601f106106d1576101008083540402835291602001916106fc565b820191906000526020600020905b8154815290600101906020018083116106df57829003601f168201915b5050509190925250505060208101519091506001600160a01b031615801561074c57506001600160a01b037f00000000000000000000000000000000000000000000000000000000000000001615155b15610169576040517f2a50c1460000000000000000000000000000000000000000000000000000000081526001600160a01b0383811660048301527f00000000000000000000000000000000000000000000000000000000000000001690632a50c14690602401600060405180830381865afa1580156107d0573d6000803e3d6000fd5b505050506040513d6000823e601f3d908101601f191682016040526107f891908101906109e2565b92915050565b6001600160a01b038116811461081357600080fd5b50565b60006020828403121561082857600080fd5b8135610516816107fe565b60005b8381101561084e578181015183820152602001610836565b50506000910152565b6020815260006001600160a01b03808451166020840152806020850151166040840152506040830151606080840152805180608085015261089f8160a0860160208501610833565b601f01601f19169290920160a0019392505050565b6000602082840312156108c657600080fd5b5035919050565b6000602082840312156108df57600080fd5b5051919050565b634e487b7160e01b600052601160045260246000fd5b808201808211156107f8576107f86108e6565b818103818111156107f8576107f86108e6565b634e487b7160e01b600052603260045260246000fd5b600181811c9082168061094c57607f821691505b60208210810361096c57634e487b7160e01b600052602260045260246000fd5b50919050565b634e487b7160e01b600052604160045260246000fd5b6040516060810167ffffffffffffffff811182821017156109ab576109ab610972565b60405290565b604051601f8201601f1916810167ffffffffffffffff811182821017156109da576109da610972565b604052919050565b600060208083850312156109f557600080fd5b825167ffffffffffffffff80821115610a0d57600080fd5b9084019060608287031215610a2157600080fd5b610a29610988565b8251610a34816107fe565b815282840151610a43816107fe565b81850152604083015182811115610a5957600080fd5b80840193505086601f840112610a6e57600080fd5b825182811115610a8057610a80610972565b610a92601f8201601f191686016109b1565b92508083528785828601011115610aa857600080fd5b610ab781868501878701610833565b5060408101919091529594505050505056fea26469706673582212203cc5bf71ae6358de9e377e406a1c2a91f9b94dbabab3f61b91306b778505961e64736f6c63430008130033",
  "linkReferences": {},
  "deployedLinkReferences": {}
}