{
  "_format": "hh-sol-artifact-1",
  "contractName": "Counter",
  "sourceName": "contracts/test/Counter.sol",
  "abi": [
    {
      "inputs": [
        {
          "internalType": "uint256",
          "name": "_count",
          "type": "uint256"
        }
      ],
      "stateMutability": "nonpayable",
      "type": "constructor"
    },
    {
      "inputs": [],
      "name": "count",
      "outputs": [
        {
          "internalType": "uint256",
          "name": "",
          "type": "uint256"
        }
      ],
      "stateMutability": "view",
      "type": "function"
    },
    {
      "inputs": [],
      "name": "dec",
      "outputs": [],
      "stateMutability": "nonpayable",
      "type": "function"
    },
    {
      "inputs": [],
      "name": "get",
      "outputs": [
        {
          "internalType": "uint256",
          "name": "",
          "type": "uint256"
        }
      ],
      "stateMutability": "view",
      "type": "function"
    },
    {
      "inputs": [],
      "name": "inc",
      "outputs": [],
      "stateMutability": "nonpayable",
      "type": "function"
    }
  ],
  "bytecode": "0x608060405234801561001057600080fd5b5060405161018b38038061018b83398101604081905261002f91610037565b600055610050565b60006020828403121561004957600080fd5b5051919050565b61012c8061005f6000396000f3fe6080604052348015600f57600080fd5b506004361060465760003560e01c806306661abd14604b578063371303c01460655780636d4ce63c14606d578063b3bcfa82146074575b600080fd5b605360005481565b60405190815260200160405180910390f35b606b607a565b005b6000546053565b606b6091565b6001600080828254608a919060d0565b9091555050565b6001600080828254608a919060e6565b7f4e487b7100000000000000000000000000000000000000000000000000000000600052601160045260246000fd5b8082018082111560e05760e060a1565b92915050565b8181038181111560e05760e060a156fea26469706673582212200d36103ae05e16ec5887b6441a5ff501a64fb368c3fc7d0c905a8558fb9a7e2c64736f6c63430008130033",
  "linkReferences": {},
  "deployedLinkReferences": {}
}