{
  "_format": "hh-sol-artifact-1",
  "contractName": "Counter",
  "sourceName": "contracts/test/Counter.sol",
  "abi": [
    {
      "inputs": [
        {
          "internalType": "uint256",
          "name": "_count",
          "type": "uint256"
        }
      ],
      "stateMutability": "nonpayable",
      "type": "constructor"
    },
    {
      "inputs": [],
      "name": "count",
      "outputs": [
        {
          "internalType": "uint256",
          "name": "",
          "type": "uint256"
        }
      ],
      "stateMutability": "view",
      "type": "function"
    },
    {
      "inputs": [],
      "name": "dec",
      "outputs": [],
      "stateMutability": "nonpayable",
      "type": "function"
    },
    {
      "inputs": [],
      "name": "get",
      "outputs": [
        {
          "internalType": "uint256",
          "name": "",
          "type": "uint256"
        }
      ],
      "stateMutability": "view",
      "type": "function"
    },
    {
      "inputs": [],
      "name": "inc",
      "outputs": [],
      "stateMutability": "nonpayable",
      "type": "function"
    },
    {
      "inputs": [
        {
          "internalType": "uint256",
          "name": "_count",
          "type": "uint256"
        }
      ],
      "name": "inialize",
      "outputs": [],
      "stateMutability": "nonpayable",
      "type": "function"
    }
  ],
  "bytecode": "0x608060405234801561001057600080fd5b506040516101e83803806101e883398101604081905261002f91610037565b600055610050565b60006020828403121561004957600080fd5b5051919050565b6101898061005f6000396000f3fe608060405234801561001057600080fd5b50600436106100675760003560e01c80636d4ce63c116100505780636d4ce63c14610091578063988c06e114610099578063b3bcfa82146100ac57600080fd5b806306661abd1461006c578063371303c014610087575b600080fd5b61007560005481565b60405190815260200160405180910390f35b61008f6100b4565b005b600054610075565b61008f6100a73660046100df565b600055565b61008f6100cd565b60016000808282546100c69190610127565b9091555050565b60016000808282546100c69190610140565b6000602082840312156100f157600080fd5b5035919050565b7f4e487b7100000000000000000000000000000000000000000000000000000000600052601160045260246000fd5b8082018082111561013a5761013a6100f8565b92915050565b8181038181111561013a5761013a6100f856fea26469706673582212203307a557045cde9e792d4401dbed92aeb4e7a36c5177b95e692a3742e4fb6b1a64736f6c63430008130033",
  "linkReferences": {},
  "deployedLinkReferences": {}
}