{
  "_format": "hh-sol-artifact-1",
  "contractName": "Counter",
  "sourceName": "contracts/test/Counter.sol",
  "abi": [
    {
      "inputs": [
        {
          "internalType": "uint256",
          "name": "_count",
          "type": "uint256"
        }
      ],
      "stateMutability": "nonpayable",
      "type": "constructor"
    },
    {
      "inputs": [],
      "name": "count",
      "outputs": [
        {
          "internalType": "uint256",
          "name": "",
          "type": "uint256"
        }
      ],
      "stateMutability": "view",
      "type": "function"
    },
    {
      "inputs": [],
      "name": "dec",
      "outputs": [],
      "stateMutability": "nonpayable",
      "type": "function"
    },
    {
      "inputs": [],
      "name": "get",
      "outputs": [
        {
          "internalType": "uint256",
          "name": "",
          "type": "uint256"
        }
      ],
      "stateMutability": "view",
      "type": "function"
    },
    {
      "inputs": [],
      "name": "inc",
      "outputs": [],
      "stateMutability": "nonpayable",
      "type": "function"
    }
  ],
  "bytecode": "0x608060405234801561001057600080fd5b5060405161017238038061017283398101604081905261002f91610037565b600055610050565b60006020828403121561004957600080fd5b5051919050565b6101138061005f6000396000f3fe6080604052348015600f57600080fd5b506004361060465760003560e01c806306661abd14604b578063371303c01460655780636d4ce63c14606d578063b3bcfa82146074575b600080fd5b605360005481565b60405190815260200160405180910390f35b606b607a565b005b6000546053565b606b6091565b6001600080828254608a919060b7565b9091555050565b6001600080828254608a919060cd565b634e487b7160e01b600052601160045260246000fd5b8082018082111560c75760c760a1565b92915050565b8181038181111560c75760c760a156fea2646970667358221220c67dc388c011e66968c0b985c0bee35ad0f7105c98d0f290ed7faa2f926d4b7c64736f6c63430008120033",
  "linkReferences": {},
  "deployedLinkReferences": {}
}