{
  "_format": "hh-sol-artifact-1",
  "contractName": "TransactionBlocker",
  "sourceName": "contracts/TransactionBlocker.sol",
  "abi": [
    {
      "inputs": [
        {
          "internalType": "address[]",
          "name": "admins",
          "type": "address[]"
        },
        {
          "internalType": "address[]",
          "name": "managers",
          "type": "address[]"
        }
      ],
      "stateMutability": "nonpayable",
      "type": "constructor"
    },
    {
      "inputs": [],
      "name": "NotImplemented",
      "type": "error"
    },
    {
      "anonymous": false,
      "inputs": [
        {
          "indexed": false,
          "internalType": "address",
          "name": "addr",
          "type": "address"
        }
      ],
      "name": "BlockedAddressAdded",
      "type": "event"
    },
    {
      "anonymous": false,
      "inputs": [
        {
          "indexed": false,
          "internalType": "address",
          "name": "addr",
          "type": "address"
        }
      ],
      "name": "BlockedAddressRemoved",
      "type": "event"
    },
    {
      "anonymous": false,
      "inputs": [
        {
          "indexed": false,
          "internalType": "bool",
          "name": "isBlockedAll",
          "type": "bool"
        }
      ],
      "name": "BlockedAllSet",
      "type": "event"
    },
    {
      "anonymous": false,
      "inputs": [
        {
          "indexed": true,
          "internalType": "address",
          "name": "addr",
          "type": "address"
        }
      ],
      "name": "CallAllowed",
      "type": "event"
    },
    {
      "anonymous": false,
      "inputs": [
        {
          "indexed": true,
          "internalType": "address",
          "name": "addr",
          "type": "address"
        }
      ],
      "name": "CallDenied",
      "type": "event"
    },
    {
      "anonymous": false,
      "inputs": [
        {
          "indexed": true,
          "internalType": "address",
          "name": "addr",
          "type": "address"
        }
      ],
      "name": "CreateAllowed",
      "type": "event"
    },
    {
      "anonymous": false,
      "inputs": [
        {
          "indexed": true,
          "internalType": "address",
          "name": "addr",
          "type": "address"
        }
      ],
      "name": "CreateDenied",
      "type": "event"
    },
    {
      "anonymous": false,
      "inputs": [
        {
          "indexed": true,
          "internalType": "bytes32",
          "name": "role",
          "type": "bytes32"
        },
        {
          "indexed": true,
          "internalType": "bytes32",
          "name": "previousAdminRole",
          "type": "bytes32"
        },
        {
          "indexed": true,
          "internalType": "bytes32",
          "name": "newAdminRole",
          "type": "bytes32"
        }
      ],
      "name": "RoleAdminChanged",
      "type": "event"
    },
    {
      "anonymous": false,
      "inputs": [
        {
          "indexed": true,
          "internalType": "bytes32",
          "name": "role",
          "type": "bytes32"
        },
        {
          "indexed": true,
          "internalType": "address",
          "name": "account",
          "type": "address"
        },
        {
          "indexed": true,
          "internalType": "address",
          "name": "sender",
          "type": "address"
        }
      ],
      "name": "RoleGranted",
      "type": "event"
    },
    {
      "anonymous": false,
      "inputs": [
        {
          "indexed": true,
          "internalType": "bytes32",
          "name": "role",
          "type": "bytes32"
        },
        {
          "indexed": true,
          "internalType": "address",
          "name": "account",
          "type": "address"
        },
        {
          "indexed": true,
          "internalType": "address",
          "name": "sender",
          "type": "address"
        }
      ],
      "name": "RoleRevoked",
      "type": "event"
    },
    {
      "inputs": [],
      "name": "BLOCKED_ALL_ADDRESS",
      "outputs": [
        {
          "internalType": "address",
          "name": "",
          "type": "address"
        }
      ],
      "stateMutability": "view",
      "type": "function"
    },
    {
      "inputs": [],
      "name": "DEFAULT_ADMIN_ROLE",
      "outputs": [
        {
          "internalType": "bytes32",
          "name": "",
          "type": "bytes32"
        }
      ],
      "stateMutability": "view",
      "type": "function"
    },
    {
      "inputs": [],
      "name": "MANAGER_ROLE",
      "outputs": [
        {
          "internalType": "bytes32",
          "name": "",
          "type": "bytes32"
        }
      ],
      "stateMutability": "view",
      "type": "function"
    },
    {
      "inputs": [],
      "name": "SENTINEL",
      "outputs": [
        {
          "internalType": "address",
          "name": "",
          "type": "address"
        }
      ],
      "stateMutability": "view",
      "type": "function"
    },
    {
      "inputs": [
        {
          "internalType": "address",
          "name": "addr",
          "type": "address"
        }
      ],
      "name": "addBlockedList",
      "outputs": [],
      "stateMutability": "nonpayable",
      "type": "function"
    },
    {
      "inputs": [
        {
          "internalType": "address",
          "name": "",
          "type": "address"
        }
      ],
      "name": "addCallDeniedList",
      "outputs": [],
      "stateMutability": "pure",
      "type": "function"
    },
    {
      "inputs": [
        {
          "internalType": "address",
          "name": "",
          "type": "address"
        }
      ],
      "name": "addCreateAllowedList",
      "outputs": [],
      "stateMutability": "pure",
      "type": "function"
    },
    {
      "inputs": [
        {
          "internalType": "bytes32",
          "name": "role",
          "type": "bytes32"
        }
      ],
      "name": "getRoleAdmin",
      "outputs": [
        {
          "internalType": "bytes32",
          "name": "",
          "type": "bytes32"
        }
      ],
      "stateMutability": "view",
      "type": "function"
    },
    {
      "inputs": [
        {
          "internalType": "bytes32",
          "name": "role",
          "type": "bytes32"
        },
        {
          "internalType": "address",
          "name": "account",
          "type": "address"
        }
      ],
      "name": "grantRole",
      "outputs": [],
      "stateMutability": "nonpayable",
      "type": "function"
    },
    {
      "inputs": [
        {
          "internalType": "bytes32",
          "name": "role",
          "type": "bytes32"
        },
        {
          "internalType": "address",
          "name": "account",
          "type": "address"
        }
      ],
      "name": "hasRole",
      "outputs": [
        {
          "internalType": "bool",
          "name": "",
          "type": "bool"
        }
      ],
      "stateMutability": "view",
      "type": "function"
    },
    {
      "inputs": [
        {
          "internalType": "address",
          "name": "",
          "type": "address"
        }
      ],
      "name": "isAllowedToCreate",
      "outputs": [
        {
          "internalType": "bool",
          "name": "",
          "type": "bool"
        }
      ],
      "stateMutability": "pure",
      "type": "function"
    },
    {
      "inputs": [
        {
          "internalType": "address",
          "name": "addr",
          "type": "address"
        }
      ],
      "name": "isBlockedAddress",
      "outputs": [
        {
          "internalType": "bool",
          "name": "",
          "type": "bool"
        }
      ],
      "stateMutability": "view",
      "type": "function"
    },
    {
      "inputs": [],
      "name": "isBlockedAll",
      "outputs": [
        {
          "internalType": "bool",
          "name": "",
          "type": "bool"
        }
      ],
      "stateMutability": "view",
      "type": "function"
    },
    {
      "inputs": [
        {
          "internalType": "address",
          "name": "",
          "type": "address"
        }
      ],
      "name": "isDeniedToCall",
      "outputs": [
        {
          "internalType": "bool",
          "name": "",
          "type": "bool"
        }
      ],
      "stateMutability": "pure",
      "type": "function"
    },
    {
      "inputs": [
        {
          "internalType": "address",
          "name": "_cursor",
          "type": "address"
        },
        {
          "internalType": "uint256",
          "name": "_howMany",
          "type": "uint256"
        }
      ],
      "name": "listBlockedAddresses",
      "outputs": [
        {
          "internalType": "address[]",
          "name": "",
          "type": "address[]"
        }
      ],
      "stateMutability": "view",
      "type": "function"
    },
    {
      "inputs": [
        {
          "internalType": "address",
          "name": "",
          "type": "address"
        },
        {
          "internalType": "uint256",
          "name": "",
          "type": "uint256"
        }
      ],
      "name": "listCallDenied",
      "outputs": [
        {
          "internalType": "address[]",
          "name": "",
          "type": "address[]"
        }
      ],
      "stateMutability": "pure",
      "type": "function"
    },
    {
      "inputs": [
        {
          "internalType": "address",
          "name": "",
          "type": "address"
        },
        {
          "internalType": "uint256",
          "name": "",
          "type": "uint256"
        }
      ],
      "name": "listCreateAllowed",
      "outputs": [
        {
          "internalType": "address[]",
          "name": "",
          "type": "address[]"
        }
      ],
      "stateMutability": "pure",
      "type": "function"
    },
    {
      "inputs": [
        {
          "internalType": "address",
          "name": "addr",
          "type": "address"
        },
        {
          "internalType": "address",
          "name": "prev",
          "type": "address"
        }
      ],
      "name": "removeBlockedList",
      "outputs": [],
      "stateMutability": "nonpayable",
      "type": "function"
    },
    {
      "inputs": [
        {
          "internalType": "address",
          "name": "",
          "type": "address"
        },
        {
          "internalType": "address",
          "name": "",
          "type": "address"
        }
      ],
      "name": "removeCallDeniedList",
      "outputs": [],
      "stateMutability": "pure",
      "type": "function"
    },
    {
      "inputs": [
        {
          "internalType": "address",
          "name": "",
          "type": "address"
        },
        {
          "internalType": "address",
          "name": "",
          "type": "address"
        }
      ],
      "name": "removeCreateAllowedList",
      "outputs": [],
      "stateMutability": "pure",
      "type": "function"
    },
    {
      "inputs": [
        {
          "internalType": "bytes32",
          "name": "role",
          "type": "bytes32"
        },
        {
          "internalType": "address",
          "name": "account",
          "type": "address"
        }
      ],
      "name": "renounceRole",
      "outputs": [],
      "stateMutability": "nonpayable",
      "type": "function"
    },
    {
      "inputs": [
        {
          "internalType": "bytes32",
          "name": "role",
          "type": "bytes32"
        },
        {
          "internalType": "address",
          "name": "account",
          "type": "address"
        }
      ],
      "name": "revokeRole",
      "outputs": [],
      "stateMutability": "nonpayable",
      "type": "function"
    },
    {
      "inputs": [
        {
          "internalType": "bool",
          "name": "_isBlockedAll",
          "type": "bool"
        }
      ],
      "name": "setBlockedAll",
      "outputs": [],
      "stateMutability": "nonpayable",
      "type": "function"
    },
    {
      "inputs": [
        {
          "internalType": "bytes4",
          "name": "interfaceId",
          "type": "bytes4"
        }
      ],
      "name": "supportsInterface",
      "outputs": [
        {
          "internalType": "bool",
          "name": "",
          "type": "bool"
        }
      ],
      "stateMutability": "view",
      "type": "function"
    },
    {
      "inputs": [],
      "name": "version",
      "outputs": [
        {
          "internalType": "string",
          "name": "",
          "type": "string"
        }
      ],
      "stateMutability": "pure",
      "type": "function"
    }
  ],
  "bytecode": "0x60806040523480156200001157600080fd5b50604051620018a3380380620018a38339810160408190526200003491620003e2565b818160005b8251811015620001005760006001600160a01b03168382815181106200006357620000636200044c565b60200260200101516001600160a01b031603620000bc5760405162461bcd60e51b81526020600482015260126024820152714541433a2061646d696e206973207a65726f60701b60448201526064015b60405180910390fd5b620000ed6000801b848381518110620000d957620000d96200044c565b60200260200101516200025260201b60201c565b620000f88162000462565b905062000039565b5060005b8151811015620001db5760006001600160a01b03168282815181106200012e576200012e6200044c565b60200260200101516001600160a01b0316036200018e5760405162461bcd60e51b815260206004820152601460248201527f4541433a2063726561746f72206973207a65726f0000000000000000000000006044820152606401620000b3565b620001c87f241ecf16d79d0f8dbfb92cbc07fe17840425976cf0667f022fe9877caa831b08838381518110620000d957620000d96200044c565b620001d38162000462565b905062000104565b5050600160008190527fcc69885fda6bcc1a4ace058b4a62bf5e179ea78fd58a1ccd71c22cc9b688792f80546001600160a01b0319908116831790915560026020527fe90b7bceb6e7df5418fb78d8ee546e97c83a08bbccc01a0644d599ccd2a7c2e080549091169091179055506200048a915050565b6200025e828262000262565b5050565b6000828152602081815260408083206001600160a01b038516845290915290205460ff166200025e576000828152602081815260408083206001600160a01b03851684529091529020805460ff19166001179055620002be3390565b6001600160a01b0316816001600160a01b0316837f2f8788117e7eff1d82e926ec794901d17c78024a50270940304540a733656f0d60405160405180910390a45050565b634e487b7160e01b600052604160045260246000fd5b80516001600160a01b03811681146200033057600080fd5b919050565b600082601f8301126200034757600080fd5b815160206001600160401b038083111562000366576200036662000302565b8260051b604051601f19603f830116810181811084821117156200038e576200038e62000302565b604052938452858101830193838101925087851115620003ad57600080fd5b83870191505b84821015620003d757620003c78262000318565b83529183019190830190620003b3565b979650505050505050565b60008060408385031215620003f657600080fd5b82516001600160401b03808211156200040e57600080fd5b6200041c8683870162000335565b935060208501519150808211156200043357600080fd5b50620004428582860162000335565b9150509250929050565b634e487b7160e01b600052603260045260246000fd5b6000600182016200048357634e487b7160e01b600052601160045260246000fd5b5060010190565b611409806200049a6000396000f3fe608060405234801561001057600080fd5b50600436106101a35760003560e01c806390d3ed88116100ee578063bd7f53d611610097578063e969f4e111610071578063e969f4e114610227578063ec87621c146103cf578063f00cab43146103f6578063ff616c8e1461039b57600080fd5b8063bd7f53d61461039b578063be6e9c8f146103a9578063d547741f146103bc57600080fd5b8063a217fddf116100c8578063a217fddf14610344578063b437ea5b1461034c578063b7a405771461038857600080fd5b806390d3ed881461027557806391d14854146102fa578063999191931461033157600080fd5b8063385599a31161015057806359c3dd391161012a57806359c3dd39146102d457806373f25c38146102e75780637723a3eb146102e757600080fd5b8063385599a314610262578063506921d01461027557806354fd4d501461029557600080fd5b806329853b861161018157806329853b86146102275780632f2ff15d1461023c57806336568abe1461024f57600080fd5b806301ffc9a7146101a85780631023b0fe146101d0578063248a9ca3146101f6575b600080fd5b6101bb6101b63660046110de565b6103fe565b60405190151581526020015b60405180910390f35b6101de6001600160a01b0381565b6040516001600160a01b0390911681526020016101c7565b610219610204366004611120565b60009081526020819052604090206001015490565b6040519081526020016101c7565b61023a610235366004611155565b610497565b005b61023a61024a366004611188565b6104b0565b61023a61025d366004611188565b610548565b61023a6102703660046111ab565b6105d0565b6102886102833660046111cd565b610665565b6040516101c791906111f7565b604080518082018252600581527f312e302e30000000000000000000000000000000000000000000000000000000602082015290516101c79190611268565b61023a6102e236600461129b565b610680565b6101bb6102f536600461129b565b6106ee565b6101bb610308366004611188565b6000918252602082815260408084206001600160a01b0393909316845291905290205460ff1690565b61028861033f3660046111cd565b610709565b610219600081565b6001600160a01b03600081905260026020527f86cf984b44bed1f7f8b143f6052803e8b74964b2ee297832a77790be6d6308f1541615156101bb565b6101bb61039636600461129b565b61071e565b61023a61023536600461129b565b61023a6103b7366004611155565b610742565b61023a6103ca366004611188565b6107b9565b6102197f241ecf16d79d0f8dbfb92cbc07fe17840425976cf0667f022fe9877caa831b0881565b6101de600181565b60007fffffffff0000000000000000000000000000000000000000000000000000000082167f7965db0b00000000000000000000000000000000000000000000000000000000148061049157507f01ffc9a7000000000000000000000000000000000000000000000000000000007fffffffff000000000000000000000000000000000000000000000000000000008316145b92915050565b60405163d623472560e01b815260040160405180910390fd5b7f241ecf16d79d0f8dbfb92cbc07fe17840425976cf0667f022fe9877caa831b08821480156104e857506001600160a01b0381163b15155b1561053a5760405162461bcd60e51b815260206004820152601860248201527f6e6f7420454f4120666f72206d616e6167657220726f6c65000000000000000060448201526064015b60405180910390fd5b61054482826107e3565b5050565b6001600160a01b03811633146105c65760405162461bcd60e51b815260206004820152602f60248201527f416363657373436f6e74726f6c3a2063616e206f6e6c792072656e6f756e636560448201527f20726f6c657320666f722073656c6600000000000000000000000000000000006064820152608401610531565b6105448282610808565b7f241ecf16d79d0f8dbfb92cbc07fe17840425976cf0667f022fe9877caa831b086105fa81610887565b81156106175761061260026001600160a01b03610894565b61062b565b61062b60026001600160a01b036001610a5b565b60405182151581527facaa322a9bd20e6b6f4869b28da596934fbbd975266644e887c0e60b07036fad906020015b60405180910390a15050565b606060405163d623472560e01b815260040160405180910390fd5b7f241ecf16d79d0f8dbfb92cbc07fe17840425976cf0667f022fe9877caa831b086106aa81610887565b6106b5600183610894565b6040516001600160a01b03831681527f0ecd542a8586985efacafb8e52f3b5f5f3a8536267980603bb9400f80aa222de90602001610659565b600060405163d623472560e01b815260040160405180910390fd5b606061071760018484610c4d565b9392505050565b6001600160a01b038082166000908152600160205260408120549091161515610491565b7f241ecf16d79d0f8dbfb92cbc07fe17840425976cf0667f022fe9877caa831b0861076c81610887565b61077860018484610a5b565b6040516001600160a01b03841681527f297d3e371fa93a7e8b429663d02f6825218b1bebe4b33706958c25dce48d06159060200160405180910390a1505050565b6000828152602081905260409020600101546107d481610887565b6107de8383610808565b505050565b6000828152602081905260409020600101546107fe81610887565b6107de8383610d20565b6000828152602081815260408083206001600160a01b038516845290915290205460ff1615610544576000828152602081815260408083206001600160a01b0385168085529252808320805460ff1916905551339285917ff6391f5c32d9c69d2a47ea670b442974b53935d1edc7fd64eb21e047a839171b9190a45050565b6108918133610dbe565b50565b6001600160a01b0381166108ea5760405162461bcd60e51b815260206004820152601160248201527f4541433a2061646472206973207a65726f0000000000000000000000000000006044820152606401610531565b306001600160a01b038216036109425760405162461bcd60e51b815260206004820152601160248201527f4541433a20616464722069732073656c660000000000000000000000000000006044820152606401610531565b6000196001600160a01b0382160161099c5760405162461bcd60e51b815260206004820152601560248201527f4541433a20616464722069732073656e74696e656c00000000000000000000006044820152606401610531565b6001600160a01b038181166000908152602084905260409020541615610a045760405162461bcd60e51b815260206004820152601360248201527f4541433a20616c726561647920657869737473000000000000000000000000006044820152606401610531565b60016000818152602093909352604080842080546001600160a01b0394851680875292862080549590911673ffffffffffffffffffffffffffffffffffffffff199586161790559190935280549091169091179055565b6001600160a01b038216610ab15760405162461bcd60e51b815260206004820152601160248201527f4541433a2061646472206973207a65726f0000000000000000000000000000006044820152606401610531565b6000196001600160a01b03831601610b0b5760405162461bcd60e51b815260206004820152601560248201527f4541433a20616464722069732073656e74696e656c00000000000000000000006044820152606401610531565b6001600160a01b0382811660009081526020859052604090205416610b725760405162461bcd60e51b815260206004820152600e60248201527f4541433a206e6f7420666f756e640000000000000000000000000000000000006044820152606401610531565b6001600160a01b038116610b8d57610b8a8383610e31565b90505b6001600160a01b03818116600090815260208590526040902054811690831614610bf95760405162461bcd60e51b815260206004820181905260248201527f4541433a2070726576206164647265737320646f6573206e6f74206d617463686044820152606401610531565b6001600160a01b03918216600081815260209490945260408085208054938516865290852080549390941673ffffffffffffffffffffffffffffffffffffffff199384161790935590925280549091169055565b60606001600160a01b038316610c6257600192505b60008267ffffffffffffffff811115610c7d57610c7d6112b6565b604051908082528060200260200182016040528015610ca6578160200160208202803683370190505b50905060005b83811015610d17576001600160a01b0394851660009081526020879052604090205490941693600019850115610d175784828281518110610cef57610cef6112cc565b6001600160a01b0390921660209283029190910190910152610d10816112f8565b9050610cac565b50949350505050565b6000828152602081815260408083206001600160a01b038516845290915290205460ff16610544576000828152602081815260408083206001600160a01b03851684529091529020805460ff19166001179055610d7a3390565b6001600160a01b0316816001600160a01b0316837f2f8788117e7eff1d82e926ec794901d17c78024a50270940304540a733656f0d60405160405180910390a45050565b6000828152602081815260408083206001600160a01b038516845290915290205460ff1661054457610def81610eeb565b610dfa836020610efd565b604051602001610e0b929190611311565b60408051601f198184030181529082905262461bcd60e51b825261053191600401611268565b600060015b6001600160a01b0381811660009081526020869052604090205416600114610ea3576001600160a01b03818116600090815260208690526040902054818516911603610e83579050610491565b6001600160a01b0390811660009081526020859052604090205416610e36565b60405162461bcd60e51b815260206004820152601b60248201527f4541433a20707265762061646472657373206e6f7420666f756e6400000000006044820152606401610531565b60606104916001600160a01b03831660145b60606000610f0c836002611392565b610f179060026113a9565b67ffffffffffffffff811115610f2f57610f2f6112b6565b6040519080825280601f01601f191660200182016040528015610f59576020820181803683370190505b5090507f300000000000000000000000000000000000000000000000000000000000000081600081518110610f9057610f906112cc565b60200101906001600160f81b031916908160001a9053507f780000000000000000000000000000000000000000000000000000000000000081600181518110610fdb57610fdb6112cc565b60200101906001600160f81b031916908160001a9053506000610fff846002611392565b61100a9060016113a9565b90505b600181111561108f577f303132333435363738396162636465660000000000000000000000000000000085600f166010811061104b5761104b6112cc565b1a60f81b828281518110611061576110616112cc565b60200101906001600160f81b031916908160001a90535060049490941c93611088816113bc565b905061100d565b5083156107175760405162461bcd60e51b815260206004820181905260248201527f537472696e67733a20686578206c656e67746820696e73756666696369656e746044820152606401610531565b6000602082840312156110f057600080fd5b81357fffffffff000000000000000000000000000000000000000000000000000000008116811461071757600080fd5b60006020828403121561113257600080fd5b5035919050565b80356001600160a01b038116811461115057600080fd5b919050565b6000806040838503121561116857600080fd5b61117183611139565b915061117f60208401611139565b90509250929050565b6000806040838503121561119b57600080fd5b8235915061117f60208401611139565b6000602082840312156111bd57600080fd5b8135801515811461071757600080fd5b600080604083850312156111e057600080fd5b6111e983611139565b946020939093013593505050565b6020808252825182820181905260009190848201906040850190845b818110156112385783516001600160a01b031683529284019291840191600101611213565b50909695505050505050565b60005b8381101561125f578181015183820152602001611247565b50506000910152565b6020815260008251806020840152611287816040850160208701611244565b601f01601f19169190910160400192915050565b6000602082840312156112ad57600080fd5b61071782611139565b634e487b7160e01b600052604160045260246000fd5b634e487b7160e01b600052603260045260246000fd5b634e487b7160e01b600052601160045260246000fd5b60006001820161130a5761130a6112e2565b5060010190565b7f416363657373436f6e74726f6c3a206163636f756e7420000000000000000000815260008351611349816017850160208801611244565b7f206973206d697373696e6720726f6c65200000000000000000000000000000006017918401918201528351611386816028840160208801611244565b01602801949350505050565b8082028115828204841417610491576104916112e2565b80820180821115610491576104916112e2565b6000816113cb576113cb6112e2565b50600019019056fea264697066735822122000e5b113fe5fa8eb5eb474a51885f3c6ce717e791095524e94796f9847c4cf2464736f6c63430008130033",
  "linkReferences": {},
  "deployedLinkReferences": {}
}