{
  "_format": "hh-sol-artifact-1",
  "contractName": "EVMAccessControl",
  "sourceName": "contracts/EVMAccessControl.sol",
  "abi": [
    {
      "inputs": [
        {
          "internalType": "address[]",
          "name": "admins",
          "type": "address[]"
        },
        {
          "internalType": "address[]",
          "name": "managers",
          "type": "address[]"
        }
      ],
      "stateMutability": "nonpayable",
      "type": "constructor"
    },
    {
      "anonymous": false,
      "inputs": [
        {
          "indexed": true,
          "internalType": "address",
          "name": "addr",
          "type": "address"
        }
      ],
      "name": "CallAllowed",
      "type": "event"
    },
    {
      "anonymous": false,
      "inputs": [
        {
          "indexed": true,
          "internalType": "address",
          "name": "addr",
          "type": "address"
        }
      ],
      "name": "CallDenied",
      "type": "event"
    },
    {
      "anonymous": false,
      "inputs": [
        {
          "indexed": true,
          "internalType": "address",
          "name": "addr",
          "type": "address"
        }
      ],
      "name": "CreateAllowed",
      "type": "event"
    },
    {
      "anonymous": false,
      "inputs": [
        {
          "indexed": true,
          "internalType": "address",
          "name": "addr",
          "type": "address"
        }
      ],
      "name": "CreateDenied",
      "type": "event"
    },
    {
      "anonymous": false,
      "inputs": [
        {
          "indexed": true,
          "internalType": "bytes32",
          "name": "role",
          "type": "bytes32"
        },
        {
          "indexed": true,
          "internalType": "bytes32",
          "name": "previousAdminRole",
          "type": "bytes32"
        },
        {
          "indexed": true,
          "internalType": "bytes32",
          "name": "newAdminRole",
          "type": "bytes32"
        }
      ],
      "name": "RoleAdminChanged",
      "type": "event"
    },
    {
      "anonymous": false,
      "inputs": [
        {
          "indexed": true,
          "internalType": "bytes32",
          "name": "role",
          "type": "bytes32"
        },
        {
          "indexed": true,
          "internalType": "address",
          "name": "account",
          "type": "address"
        },
        {
          "indexed": true,
          "internalType": "address",
          "name": "sender",
          "type": "address"
        }
      ],
      "name": "RoleGranted",
      "type": "event"
    },
    {
      "anonymous": false,
      "inputs": [
        {
          "indexed": true,
          "internalType": "bytes32",
          "name": "role",
          "type": "bytes32"
        },
        {
          "indexed": true,
          "internalType": "address",
          "name": "account",
          "type": "address"
        },
        {
          "indexed": true,
          "internalType": "address",
          "name": "sender",
          "type": "address"
        }
      ],
      "name": "RoleRevoked",
      "type": "event"
    },
    {
      "inputs": [],
      "name": "DEFAULT_ADMIN_ROLE",
      "outputs": [
        {
          "internalType": "bytes32",
          "name": "",
          "type": "bytes32"
        }
      ],
      "stateMutability": "view",
      "type": "function"
    },
    {
      "inputs": [],
      "name": "MANAGER_ROLE",
      "outputs": [
        {
          "internalType": "bytes32",
          "name": "",
          "type": "bytes32"
        }
      ],
      "stateMutability": "view",
      "type": "function"
    },
    {
      "inputs": [
        {
          "internalType": "address",
          "name": "_addr",
          "type": "address"
        }
      ],
      "name": "addCallDeniedList",
      "outputs": [],
      "stateMutability": "nonpayable",
      "type": "function"
    },
    {
      "inputs": [
        {
          "internalType": "address",
          "name": "_addr",
          "type": "address"
        }
      ],
      "name": "addCreateAllowedList",
      "outputs": [],
      "stateMutability": "nonpayable",
      "type": "function"
    },
    {
      "inputs": [
        {
          "internalType": "bytes32",
          "name": "role",
          "type": "bytes32"
        }
      ],
      "name": "getRoleAdmin",
      "outputs": [
        {
          "internalType": "bytes32",
          "name": "",
          "type": "bytes32"
        }
      ],
      "stateMutability": "view",
      "type": "function"
    },
    {
      "inputs": [
        {
          "internalType": "bytes32",
          "name": "role",
          "type": "bytes32"
        },
        {
          "internalType": "address",
          "name": "account",
          "type": "address"
        }
      ],
      "name": "grantRole",
      "outputs": [],
      "stateMutability": "nonpayable",
      "type": "function"
    },
    {
      "inputs": [
        {
          "internalType": "bytes32",
          "name": "role",
          "type": "bytes32"
        },
        {
          "internalType": "address",
          "name": "account",
          "type": "address"
        }
      ],
      "name": "hasRole",
      "outputs": [
        {
          "internalType": "bool",
          "name": "",
          "type": "bool"
        }
      ],
      "stateMutability": "view",
      "type": "function"
    },
    {
      "inputs": [
        {
          "internalType": "address",
          "name": "_addr",
          "type": "address"
        }
      ],
      "name": "isAllowedToCreate",
      "outputs": [
        {
          "internalType": "bool",
          "name": "",
          "type": "bool"
        }
      ],
      "stateMutability": "view",
      "type": "function"
    },
    {
      "inputs": [
        {
          "internalType": "address",
          "name": "_addr",
          "type": "address"
        }
      ],
      "name": "isDeniedToCall",
      "outputs": [
        {
          "internalType": "bool",
          "name": "",
          "type": "bool"
        }
      ],
      "stateMutability": "view",
      "type": "function"
    },
    {
      "inputs": [],
      "name": "listCallDenied",
      "outputs": [
        {
          "internalType": "address[]",
          "name": "",
          "type": "address[]"
        }
      ],
      "stateMutability": "view",
      "type": "function"
    },
    {
      "inputs": [],
      "name": "listCreateAllowed",
      "outputs": [
        {
          "internalType": "address[]",
          "name": "",
          "type": "address[]"
        }
      ],
      "stateMutability": "view",
      "type": "function"
    },
    {
      "inputs": [
        {
          "internalType": "address",
          "name": "_addr",
          "type": "address"
        }
      ],
      "name": "removeCallDeniedList",
      "outputs": [],
      "stateMutability": "nonpayable",
      "type": "function"
    },
    {
      "inputs": [
        {
          "internalType": "address",
          "name": "_addr",
          "type": "address"
        }
      ],
      "name": "removeCreateAllowedList",
      "outputs": [],
      "stateMutability": "nonpayable",
      "type": "function"
    },
    {
      "inputs": [
        {
          "internalType": "bytes32",
          "name": "role",
          "type": "bytes32"
        },
        {
          "internalType": "address",
          "name": "account",
          "type": "address"
        }
      ],
      "name": "renounceRole",
      "outputs": [],
      "stateMutability": "nonpayable",
      "type": "function"
    },
    {
      "inputs": [
        {
          "internalType": "bytes32",
          "name": "role",
          "type": "bytes32"
        },
        {
          "internalType": "address",
          "name": "account",
          "type": "address"
        }
      ],
      "name": "revokeRole",
      "outputs": [],
      "stateMutability": "nonpayable",
      "type": "function"
    },
    {
      "inputs": [
        {
          "internalType": "bytes4",
          "name": "interfaceId",
          "type": "bytes4"
        }
      ],
      "name": "supportsInterface",
      "outputs": [
        {
          "internalType": "bool",
          "name": "",
          "type": "bool"
        }
      ],
      "stateMutability": "view",
      "type": "function"
    },
    {
      "inputs": [],
      "name": "version",
      "outputs": [
        {
          "internalType": "string",
          "name": "",
          "type": "string"
        }
      ],
      "stateMutability": "pure",
      "type": "function"
    }
  ],
  "bytecode": "0x60806040523480156200001157600080fd5b50604051620016d0380380620016d0833981016040819052620000349162000372565b60005b8251811015620000fe5760006001600160a01b0316838281518110620000615762000061620003dc565b60200260200101516001600160a01b031603620000ba5760405162461bcd60e51b81526020600482015260126024820152714541433a2061646d696e206973207a65726f60701b60448201526064015b60405180910390fd5b620000eb6000801b848381518110620000d757620000d7620003dc565b6020026020010151620001e260201b60201c565b620000f681620003f2565b905062000037565b5060005b8151811015620001d95760006001600160a01b03168282815181106200012c576200012c620003dc565b60200260200101516001600160a01b0316036200018c5760405162461bcd60e51b815260206004820152601460248201527f4541433a2063726561746f72206973207a65726f0000000000000000000000006044820152606401620000b1565b620001c67f241ecf16d79d0f8dbfb92cbc07fe17840425976cf0667f022fe9877caa831b08838381518110620000d757620000d7620003dc565b620001d181620003f2565b905062000102565b5050506200041a565b620001ee8282620001f2565b5050565b6000828152602081815260408083206001600160a01b038516845290915290205460ff16620001ee576000828152602081815260408083206001600160a01b03851684529091529020805460ff191660011790556200024e3390565b6001600160a01b0316816001600160a01b0316837f2f8788117e7eff1d82e926ec794901d17c78024a50270940304540a733656f0d60405160405180910390a45050565b634e487b7160e01b600052604160045260246000fd5b80516001600160a01b0381168114620002c057600080fd5b919050565b600082601f830112620002d757600080fd5b815160206001600160401b0380831115620002f657620002f662000292565b8260051b604051601f19603f830116810181811084821117156200031e576200031e62000292565b6040529384528581018301938381019250878511156200033d57600080fd5b83870191505b8482101562000367576200035782620002a8565b8352918301919083019062000343565b979650505050505050565b600080604083850312156200038657600080fd5b82516001600160401b03808211156200039e57600080fd5b620003ac86838701620002c5565b93506020850151915080821115620003c357600080fd5b50620003d285828601620002c5565b9150509250929050565b634e487b7160e01b600052603260045260246000fd5b6000600182016200041357634e487b7160e01b600052601160045260246000fd5b5060010190565b6112a6806200042a6000396000f3fe608060405234801561001057600080fd5b506004361061011b5760003560e01c80637723a3eb116100b2578063bd7f53d611610081578063ec87621c11610066578063ec87621c146102cd578063ff616c8e146102f4578063ffd9f2e21461030757600080fd5b8063bd7f53d6146102a7578063d547741f146102ba57600080fd5b80637723a3eb146102345780638c88af791461026057806391d1485414610268578063a217fddf1461029f57600080fd5b806336568abe116100ee57806336568abe146101a357806354fd4d50146101b65780635ffe85c5146101f557806373f25c381461020857600080fd5b806301ffc9a714610120578063183053a714610148578063248a9ca31461015d5780632f2ff15d1461018e575b600080fd5b61013361012e366004610ff1565b61031a565b60405190151581526020015b60405180910390f35b6101506103b3565b60405161013f9190611033565b61018061016b366004611080565b60009081526020819052604090206001015490565b60405190815260200161013f565b6101a161019c3660046110b5565b6103c4565b005b6101a16101b13660046110b5565b6103ee565b604080518082018252600581527f302e302e310000000000000000000000000000000000000000000000000000006020820152905161013f9190611105565b6101a1610203366004611138565b61047f565b610133610216366004611138565b6001600160a01b031660009081526001602052604090205460ff1690565b610133610242366004611138565b6001600160a01b031660009081526002602052604090205460ff1690565b6101506105be565b6101336102763660046110b5565b6000918252602082815260408084206001600160a01b0393909316845291905290205460ff1690565b610180600081565b6101a16102b5366004611138565b6105ca565b6101a16102c83660046110b5565b610710565b6101807f241ecf16d79d0f8dbfb92cbc07fe17840425976cf0667f022fe9877caa831b0881565b6101a1610302366004611138565b610735565b6101a1610315366004611138565b610878565b60007fffffffff0000000000000000000000000000000000000000000000000000000082167f7965db0b0000000000000000000000000000000000000000000000000000000014806103ad57507f01ffc9a7000000000000000000000000000000000000000000000000000000007fffffffff000000000000000000000000000000000000000000000000000000008316145b92915050565b60606103bf60036109b7565b905090565b6000828152602081905260409020600101546103df81610ac6565b6103e98383610ad3565b505050565b6001600160a01b03811633146104715760405162461bcd60e51b815260206004820152602f60248201527f416363657373436f6e74726f6c3a2063616e206f6e6c792072656e6f756e636560448201527f20726f6c657320666f722073656c66000000000000000000000000000000000060648201526084015b60405180910390fd5b61047b8282610b71565b5050565b7f241ecf16d79d0f8dbfb92cbc07fe17840425976cf0667f022fe9877caa831b086104a981610ac6565b6001600160a01b0382166104f35760405162461bcd60e51b81526020600482015260116024820152704541433a2061646472206973207a65726f60781b6044820152606401610468565b6001600160a01b03821660009081526001602052604090205460ff1661055b5760405162461bcd60e51b815260206004820152601060248201527f4541433a206e6f7420616c6c6f776564000000000000000000000000000000006044820152606401610468565b6001600160a01b0382166000908152600160205260409020805460ff19169055610586600383610bf0565b6040516001600160a01b038316907f4a475457a2e45f0e02800bf274aede959c4e648bd208c5af470590d2e93d073290600090a25050565b60606103bf60046109b7565b7f241ecf16d79d0f8dbfb92cbc07fe17840425976cf0667f022fe9877caa831b086105f481610ac6565b6001600160a01b03821661063e5760405162461bcd60e51b81526020600482015260116024820152704541433a2061646472206973207a65726f60781b6044820152606401610468565b6001600160a01b03821660009081526001602052604090205460ff16156106a75760405162461bcd60e51b815260206004820152601460248201527f4541433a20616c726561647920616c6c6f7765640000000000000000000000006044820152606401610468565b6001600160a01b0382166000908152600160208190526040909120805460ff191690911790556106d8600383610c9c565b6040516001600160a01b038316907fca573f65e3d72a9f457e37bb6357cbb8f4bb06010cf200e958854309620342e990600090a25050565b60008281526020819052604090206001015461072b81610ac6565b6103e98383610b71565b7f241ecf16d79d0f8dbfb92cbc07fe17840425976cf0667f022fe9877caa831b0861075f81610ac6565b6001600160a01b0382166107a95760405162461bcd60e51b81526020600482015260116024820152704541433a2061646472206973207a65726f60781b6044820152606401610468565b6001600160a01b03821660009081526002602052604090205460ff16156108125760405162461bcd60e51b815260206004820152601360248201527f4541433a20616c72656164792064656e696564000000000000000000000000006044820152606401610468565b6001600160a01b0382166000908152600260205260409020805460ff19166001179055610840600483610c9c565b6040516001600160a01b038316907f2757c5d518b1e4ab9d6e4c8276711fd6bf73fbf7005ba27f059e1b5b6d56623190600090a25050565b7f241ecf16d79d0f8dbfb92cbc07fe17840425976cf0667f022fe9877caa831b086108a281610ac6565b6001600160a01b0382166108ec5760405162461bcd60e51b81526020600482015260116024820152704541433a2061646472206973207a65726f60781b6044820152606401610468565b6001600160a01b03821660009081526002602052604090205460ff166109545760405162461bcd60e51b815260206004820152600f60248201527f4541433a206e6f742064656e69656400000000000000000000000000000000006044820152606401610468565b6001600160a01b0382166000908152600260205260409020805460ff1916905561097f600483610bf0565b6040516001600160a01b038316907f054279c30632ea9b7d314b136883c9448638eb556adc3cffb4dfac65024f416b90600090a25050565b805460609060009067ffffffffffffffff8111156109d7576109d7611153565b604051908082528060200260200182016040528015610a00578160200160208202803683370190505b5090506000805b8454811015610abd5760006001600160a01b0316858281548110610a2d57610a2d611169565b6000918252602090912001546001600160a01b031614610aad57848181548110610a5957610a59611169565b9060005260206000200160009054906101000a90046001600160a01b0316838381518110610a8957610a89611169565b6001600160a01b0390921660209283029190910190910152610aaa82611195565b91505b610ab681611195565b9050610a07565b50909392505050565b610ad08133610d12565b50565b6000828152602081815260408083206001600160a01b038516845290915290205460ff1661047b576000828152602081815260408083206001600160a01b03851684529091529020805460ff19166001179055610b2d3390565b6001600160a01b0316816001600160a01b0316837f2f8788117e7eff1d82e926ec794901d17c78024a50270940304540a733656f0d60405160405180910390a45050565b6000828152602081815260408083206001600160a01b038516845290915290205460ff161561047b576000828152602081815260408083206001600160a01b0385168085529252808320805460ff1916905551339285917ff6391f5c32d9c69d2a47ea670b442974b53935d1edc7fd64eb21e047a839171b9190a45050565b600080610bfd8484610d85565b915091508115610c4e576000848281548110610c1b57610c1b611169565b9060005260206000200160006101000a8154816001600160a01b0302191690836001600160a01b03160217905550610c96565b60405162461bcd60e51b815260206004820152601460248201527f4541433a20696e646578206e6f7420666f756e640000000000000000000000006044820152606401610468565b50505050565b600080610caa846000610d85565b915091508115610cc75782848281548110610c1b57610c1b611169565b83546001810185556000858152602090200180546001600160a01b0385167fffffffffffffffffffffffff000000000000000000000000000000000000000090911617905550505050565b6000828152602081815260408083206001600160a01b038516845290915290205460ff1661047b57610d4381610df7565b610d4e836020610e09565b604051602001610d5f9291906111ae565b60408051601f198184030181529082905262461bcd60e51b825261046891600401611105565b60008060005b8454811015610de557836001600160a01b0316858281548110610db057610db0611169565b6000918252602090912001546001600160a01b031603610dd557600192509050610df0565b610dde81611195565b9050610d8b565b506000600019915091505b9250929050565b60606103ad6001600160a01b03831660145b60606000610e1883600261122f565b610e23906002611246565b67ffffffffffffffff811115610e3b57610e3b611153565b6040519080825280601f01601f191660200182016040528015610e65576020820181803683370190505b5090507f300000000000000000000000000000000000000000000000000000000000000081600081518110610e9c57610e9c611169565b60200101906001600160f81b031916908160001a9053507f780000000000000000000000000000000000000000000000000000000000000081600181518110610ee757610ee7611169565b60200101906001600160f81b031916908160001a9053506000610f0b84600261122f565b610f16906001611246565b90505b6001811115610f9b577f303132333435363738396162636465660000000000000000000000000000000085600f1660108110610f5757610f57611169565b1a60f81b828281518110610f6d57610f6d611169565b60200101906001600160f81b031916908160001a90535060049490941c93610f9481611259565b9050610f19565b508315610fea5760405162461bcd60e51b815260206004820181905260248201527f537472696e67733a20686578206c656e67746820696e73756666696369656e746044820152606401610468565b9392505050565b60006020828403121561100357600080fd5b81357fffffffff0000000000000000000000000000000000000000000000000000000081168114610fea57600080fd5b6020808252825182820181905260009190848201906040850190845b818110156110745783516001600160a01b03168352928401929184019160010161104f565b50909695505050505050565b60006020828403121561109257600080fd5b5035919050565b80356001600160a01b03811681146110b057600080fd5b919050565b600080604083850312156110c857600080fd5b823591506110d860208401611099565b90509250929050565b60005b838110156110fc5781810151838201526020016110e4565b50506000910152565b60208152600082518060208401526111248160408501602087016110e1565b601f01601f19169190910160400192915050565b60006020828403121561114a57600080fd5b610fea82611099565b634e487b7160e01b600052604160045260246000fd5b634e487b7160e01b600052603260045260246000fd5b634e487b7160e01b600052601160045260246000fd5b6000600182016111a7576111a761117f565b5060010190565b7f416363657373436f6e74726f6c3a206163636f756e74200000000000000000008152600083516111e68160178501602088016110e1565b7f206973206d697373696e6720726f6c652000000000000000000000000000000060179184019182015283516112238160288401602088016110e1565b01602801949350505050565b80820281158282048414176103ad576103ad61117f565b808201808211156103ad576103ad61117f565b6000816112685761126861117f565b50600019019056fea26469706673582212209d34b9863996c4e23fa72763bc397edfe5749460fa31d7f6260df8cbb9b7191b64736f6c63430008130033",
  "linkReferences": {},
  "deployedLinkReferences": {}
}