{
  "_format": "hh-sol-artifact-1",
  "contractName": "EVMAccessControl",
  "sourceName": "contracts/EVMAccessControl.sol",
  "abi": [
    {
      "inputs": [
        {
          "internalType": "address[]",
          "name": "admins",
          "type": "address[]"
        },
        {
          "internalType": "address[]",
          "name": "managers",
          "type": "address[]"
        }
      ],
      "stateMutability": "nonpayable",
      "type": "constructor"
    },
    {
      "anonymous": false,
      "inputs": [
        {
          "indexed": true,
          "internalType": "address",
          "name": "addr",
          "type": "address"
        }
      ],
      "name": "CallAllowed",
      "type": "event"
    },
    {
      "anonymous": false,
      "inputs": [
        {
          "indexed": true,
          "internalType": "address",
          "name": "addr",
          "type": "address"
        }
      ],
      "name": "CallDenied",
      "type": "event"
    },
    {
      "anonymous": false,
      "inputs": [
        {
          "indexed": true,
          "internalType": "address",
          "name": "addr",
          "type": "address"
        }
      ],
      "name": "CreateAllowed",
      "type": "event"
    },
    {
      "anonymous": false,
      "inputs": [
        {
          "indexed": true,
          "internalType": "address",
          "name": "addr",
          "type": "address"
        }
      ],
      "name": "CreateDenied",
      "type": "event"
    },
    {
      "anonymous": false,
      "inputs": [
        {
          "indexed": true,
          "internalType": "bytes32",
          "name": "role",
          "type": "bytes32"
        },
        {
          "indexed": true,
          "internalType": "bytes32",
          "name": "previousAdminRole",
          "type": "bytes32"
        },
        {
          "indexed": true,
          "internalType": "bytes32",
          "name": "newAdminRole",
          "type": "bytes32"
        }
      ],
      "name": "RoleAdminChanged",
      "type": "event"
    },
    {
      "anonymous": false,
      "inputs": [
        {
          "indexed": true,
          "internalType": "bytes32",
          "name": "role",
          "type": "bytes32"
        },
        {
          "indexed": true,
          "internalType": "address",
          "name": "account",
          "type": "address"
        },
        {
          "indexed": true,
          "internalType": "address",
          "name": "sender",
          "type": "address"
        }
      ],
      "name": "RoleGranted",
      "type": "event"
    },
    {
      "anonymous": false,
      "inputs": [
        {
          "indexed": true,
          "internalType": "bytes32",
          "name": "role",
          "type": "bytes32"
        },
        {
          "indexed": true,
          "internalType": "address",
          "name": "account",
          "type": "address"
        },
        {
          "indexed": true,
          "internalType": "address",
          "name": "sender",
          "type": "address"
        }
      ],
      "name": "RoleRevoked",
      "type": "event"
    },
    {
      "inputs": [],
      "name": "DEFAULT_ADMIN_ROLE",
      "outputs": [
        {
          "internalType": "bytes32",
          "name": "",
          "type": "bytes32"
        }
      ],
      "stateMutability": "view",
      "type": "function"
    },
    {
      "inputs": [],
      "name": "MANAGER_ROLE",
      "outputs": [
        {
          "internalType": "bytes32",
          "name": "",
          "type": "bytes32"
        }
      ],
      "stateMutability": "view",
      "type": "function"
    },
    {
      "inputs": [
        {
          "internalType": "address",
          "name": "_addr",
          "type": "address"
        }
      ],
      "name": "addCallDeniedList",
      "outputs": [],
      "stateMutability": "nonpayable",
      "type": "function"
    },
    {
      "inputs": [
        {
          "internalType": "address",
          "name": "_addr",
          "type": "address"
        }
      ],
      "name": "addCreateAllowedList",
      "outputs": [],
      "stateMutability": "nonpayable",
      "type": "function"
    },
    {
      "inputs": [
        {
          "internalType": "bytes32",
          "name": "role",
          "type": "bytes32"
        }
      ],
      "name": "getRoleAdmin",
      "outputs": [
        {
          "internalType": "bytes32",
          "name": "",
          "type": "bytes32"
        }
      ],
      "stateMutability": "view",
      "type": "function"
    },
    {
      "inputs": [
        {
          "internalType": "bytes32",
          "name": "role",
          "type": "bytes32"
        },
        {
          "internalType": "address",
          "name": "account",
          "type": "address"
        }
      ],
      "name": "grantRole",
      "outputs": [],
      "stateMutability": "nonpayable",
      "type": "function"
    },
    {
      "inputs": [
        {
          "internalType": "bytes32",
          "name": "role",
          "type": "bytes32"
        },
        {
          "internalType": "address",
          "name": "account",
          "type": "address"
        }
      ],
      "name": "hasRole",
      "outputs": [
        {
          "internalType": "bool",
          "name": "",
          "type": "bool"
        }
      ],
      "stateMutability": "view",
      "type": "function"
    },
    {
      "inputs": [
        {
          "internalType": "address",
          "name": "_addr",
          "type": "address"
        }
      ],
      "name": "isAllowedToCreate",
      "outputs": [
        {
          "internalType": "bool",
          "name": "",
          "type": "bool"
        }
      ],
      "stateMutability": "view",
      "type": "function"
    },
    {
      "inputs": [
        {
          "internalType": "address",
          "name": "_addr",
          "type": "address"
        }
      ],
      "name": "isDeniedToCall",
      "outputs": [
        {
          "internalType": "bool",
          "name": "",
          "type": "bool"
        }
      ],
      "stateMutability": "view",
      "type": "function"
    },
    {
      "inputs": [
        {
          "internalType": "address",
          "name": "_addr",
          "type": "address"
        }
      ],
      "name": "removeCallDeniedList",
      "outputs": [],
      "stateMutability": "nonpayable",
      "type": "function"
    },
    {
      "inputs": [
        {
          "internalType": "address",
          "name": "_addr",
          "type": "address"
        }
      ],
      "name": "removeCreateAllowedList",
      "outputs": [],
      "stateMutability": "nonpayable",
      "type": "function"
    },
    {
      "inputs": [
        {
          "internalType": "bytes32",
          "name": "role",
          "type": "bytes32"
        },
        {
          "internalType": "address",
          "name": "account",
          "type": "address"
        }
      ],
      "name": "renounceRole",
      "outputs": [],
      "stateMutability": "nonpayable",
      "type": "function"
    },
    {
      "inputs": [
        {
          "internalType": "bytes32",
          "name": "role",
          "type": "bytes32"
        },
        {
          "internalType": "address",
          "name": "account",
          "type": "address"
        }
      ],
      "name": "revokeRole",
      "outputs": [],
      "stateMutability": "nonpayable",
      "type": "function"
    },
    {
      "inputs": [
        {
          "internalType": "bytes4",
          "name": "interfaceId",
          "type": "bytes4"
        }
      ],
      "name": "supportsInterface",
      "outputs": [
        {
          "internalType": "bool",
          "name": "",
          "type": "bool"
        }
      ],
      "stateMutability": "view",
      "type": "function"
    },
    {
      "inputs": [],
      "name": "version",
      "outputs": [
        {
          "internalType": "string",
          "name": "",
          "type": "string"
        }
      ],
      "stateMutability": "pure",
      "type": "function"
    }
  ],
  "bytecode": "0x60806040523480156200001157600080fd5b506040516200131f3803806200131f833981016040819052620000349162000388565b60005b82518160ff161015620001095760006001600160a01b0316838260ff1681518110620000675762000067620003f2565b60200260200101516001600160a01b031603620000c05760405162461bcd60e51b81526020600482015260126024820152714541433a2061646d696e206973207a65726f60701b60448201526064015b60405180910390fd5b620000f46000801b848360ff1681518110620000e057620000e0620003f2565b6020026020010151620001f860201b60201c565b80620001008162000408565b91505062000037565b5060005b81518160ff161015620001ef5760006001600160a01b0316828260ff16815181106200013d576200013d620003f2565b60200260200101516001600160a01b0316036200019d5760405162461bcd60e51b815260206004820152601460248201527f4541433a2063726561746f72206973207a65726f0000000000000000000000006044820152606401620000b7565b620001da7f241ecf16d79d0f8dbfb92cbc07fe17840425976cf0667f022fe9877caa831b08838360ff1681518110620000e057620000e0620003f2565b80620001e68162000408565b9150506200010d565b50505062000436565b62000204828262000208565b5050565b6000828152602081815260408083206001600160a01b038516845290915290205460ff1662000204576000828152602081815260408083206001600160a01b03851684529091529020805460ff19166001179055620002643390565b6001600160a01b0316816001600160a01b0316837f2f8788117e7eff1d82e926ec794901d17c78024a50270940304540a733656f0d60405160405180910390a45050565b634e487b7160e01b600052604160045260246000fd5b80516001600160a01b0381168114620002d657600080fd5b919050565b600082601f830112620002ed57600080fd5b815160206001600160401b03808311156200030c576200030c620002a8565b8260051b604051601f19603f83011681018181108482111715620003345762000334620002a8565b6040529384528581018301938381019250878511156200035357600080fd5b83870191505b848210156200037d576200036d82620002be565b8352918301919083019062000359565b979650505050505050565b600080604083850312156200039c57600080fd5b82516001600160401b0380821115620003b457600080fd5b620003c286838701620002db565b93506020850151915080821115620003d957600080fd5b50620003e885828601620002db565b9150509250929050565b634e487b7160e01b600052603260045260246000fd5b600060ff821660ff81036200042d57634e487b7160e01b600052601160045260246000fd5b60010192915050565b610ed980620004466000396000f3fe608060405234801561001057600080fd5b50600436106100f55760003560e01c80637723a3eb11610097578063d547741f11610066578063d547741f14610277578063ec87621c1461028a578063ff616c8e146102b1578063ffd9f2e2146102c457600080fd5b80637723a3eb146101f957806391d1485414610225578063a217fddf1461025c578063bd7f53d61461026457600080fd5b806336568abe116100d357806336568abe1461016857806354fd4d501461017b5780635ffe85c5146101ba57806373f25c38146101cd57600080fd5b806301ffc9a7146100fa578063248a9ca3146101225780632f2ff15d14610153575b600080fd5b61010d610108366004610c8a565b6102d7565b60405190151581526020015b60405180910390f35b610145610130366004610ccc565b60009081526020819052604090206001015490565b604051908152602001610119565b610166610161366004610d01565b610370565b005b610166610176366004610d01565b61039a565b604080518082018252600581527f302e302e31000000000000000000000000000000000000000000000000000000602082015290516101199190610d51565b6101666101c8366004610d84565b61042b565b61010d6101db366004610d84565b6001600160a01b031660009081526001602052604090205460ff1690565b61010d610207366004610d84565b6001600160a01b031660009081526002602052604090205460ff1690565b61010d610233366004610d01565b6000918252602082815260408084206001600160a01b0393909316845291905290205460ff1690565b610145600081565b610166610272366004610d84565b610551565b610166610285366004610d01565b61067e565b6101457f241ecf16d79d0f8dbfb92cbc07fe17840425976cf0667f022fe9877caa831b0881565b6101666102bf366004610d84565b6106a3565b6101666102d2366004610d84565b6107cd565b60007fffffffff0000000000000000000000000000000000000000000000000000000082167f7965db0b00000000000000000000000000000000000000000000000000000000148061036a57507f01ffc9a7000000000000000000000000000000000000000000000000000000007fffffffff000000000000000000000000000000000000000000000000000000008316145b92915050565b60008281526020819052604090206001015461038b816108f3565b6103958383610900565b505050565b6001600160a01b038116331461041d5760405162461bcd60e51b815260206004820152602f60248201527f416363657373436f6e74726f6c3a2063616e206f6e6c792072656e6f756e636560448201527f20726f6c657320666f722073656c66000000000000000000000000000000000060648201526084015b60405180910390fd5b610427828261099e565b5050565b7f241ecf16d79d0f8dbfb92cbc07fe17840425976cf0667f022fe9877caa831b08610455816108f3565b6001600160a01b03821661049f5760405162461bcd60e51b81526020600482015260116024820152704541433a2061646472206973207a65726f60781b6044820152606401610414565b6001600160a01b03821660009081526001602052604090205460ff166105075760405162461bcd60e51b815260206004820152601060248201527f4541433a206e6f7420616c6c6f776564000000000000000000000000000000006044820152606401610414565b6001600160a01b038216600081815260016020526040808220805460ff19169055517f4a475457a2e45f0e02800bf274aede959c4e648bd208c5af470590d2e93d07329190a25050565b7f241ecf16d79d0f8dbfb92cbc07fe17840425976cf0667f022fe9877caa831b0861057b816108f3565b6001600160a01b0382166105c55760405162461bcd60e51b81526020600482015260116024820152704541433a2061646472206973207a65726f60781b6044820152606401610414565b6001600160a01b03821660009081526001602052604090205460ff161561062e5760405162461bcd60e51b815260206004820152601460248201527f4541433a20616c726561647920616c6c6f7765640000000000000000000000006044820152606401610414565b6001600160a01b0382166000818152600160208190526040808320805460ff1916909217909155517fca573f65e3d72a9f457e37bb6357cbb8f4bb06010cf200e958854309620342e99190a25050565b600082815260208190526040902060010154610699816108f3565b610395838361099e565b7f241ecf16d79d0f8dbfb92cbc07fe17840425976cf0667f022fe9877caa831b086106cd816108f3565b6001600160a01b0382166107175760405162461bcd60e51b81526020600482015260116024820152704541433a2061646472206973207a65726f60781b6044820152606401610414565b6001600160a01b03821660009081526002602052604090205460ff16156107805760405162461bcd60e51b815260206004820152601360248201527f4541433a20616c72656164792064656e696564000000000000000000000000006044820152606401610414565b6001600160a01b038216600081815260026020526040808220805460ff19166001179055517f2757c5d518b1e4ab9d6e4c8276711fd6bf73fbf7005ba27f059e1b5b6d5662319190a25050565b7f241ecf16d79d0f8dbfb92cbc07fe17840425976cf0667f022fe9877caa831b086107f7816108f3565b6001600160a01b0382166108415760405162461bcd60e51b81526020600482015260116024820152704541433a2061646472206973207a65726f60781b6044820152606401610414565b6001600160a01b03821660009081526002602052604090205460ff166108a95760405162461bcd60e51b815260206004820152600f60248201527f4541433a206e6f742064656e69656400000000000000000000000000000000006044820152606401610414565b6001600160a01b038216600081815260026020526040808220805460ff19169055517f054279c30632ea9b7d314b136883c9448638eb556adc3cffb4dfac65024f416b9190a25050565b6108fd8133610a1d565b50565b6000828152602081815260408083206001600160a01b038516845290915290205460ff16610427576000828152602081815260408083206001600160a01b03851684529091529020805460ff1916600117905561095a3390565b6001600160a01b0316816001600160a01b0316837f2f8788117e7eff1d82e926ec794901d17c78024a50270940304540a733656f0d60405160405180910390a45050565b6000828152602081815260408083206001600160a01b038516845290915290205460ff1615610427576000828152602081815260408083206001600160a01b0385168085529252808320805460ff1916905551339285917ff6391f5c32d9c69d2a47ea670b442974b53935d1edc7fd64eb21e047a839171b9190a45050565b6000828152602081815260408083206001600160a01b038516845290915290205460ff1661042757610a4e81610a90565b610a59836020610aa2565b604051602001610a6a929190610d9f565b60408051601f198184030181529082905262461bcd60e51b825261041491600401610d51565b606061036a6001600160a01b03831660145b60606000610ab1836002610e36565b610abc906002610e4d565b67ffffffffffffffff811115610ad457610ad4610e60565b6040519080825280601f01601f191660200182016040528015610afe576020820181803683370190505b5090507f300000000000000000000000000000000000000000000000000000000000000081600081518110610b3557610b35610e76565b60200101906001600160f81b031916908160001a9053507f780000000000000000000000000000000000000000000000000000000000000081600181518110610b8057610b80610e76565b60200101906001600160f81b031916908160001a9053506000610ba4846002610e36565b610baf906001610e4d565b90505b6001811115610c34577f303132333435363738396162636465660000000000000000000000000000000085600f1660108110610bf057610bf0610e76565b1a60f81b828281518110610c0657610c06610e76565b60200101906001600160f81b031916908160001a90535060049490941c93610c2d81610e8c565b9050610bb2565b508315610c835760405162461bcd60e51b815260206004820181905260248201527f537472696e67733a20686578206c656e67746820696e73756666696369656e746044820152606401610414565b9392505050565b600060208284031215610c9c57600080fd5b81357fffffffff0000000000000000000000000000000000000000000000000000000081168114610c8357600080fd5b600060208284031215610cde57600080fd5b5035919050565b80356001600160a01b0381168114610cfc57600080fd5b919050565b60008060408385031215610d1457600080fd5b82359150610d2460208401610ce5565b90509250929050565b60005b83811015610d48578181015183820152602001610d30565b50506000910152565b6020815260008251806020840152610d70816040850160208701610d2d565b601f01601f19169190910160400192915050565b600060208284031215610d9657600080fd5b610c8382610ce5565b7f416363657373436f6e74726f6c3a206163636f756e7420000000000000000000815260008351610dd7816017850160208801610d2d565b7f206973206d697373696e6720726f6c65200000000000000000000000000000006017918401918201528351610e14816028840160208801610d2d565b01602801949350505050565b634e487b7160e01b600052601160045260246000fd5b808202811582820484141761036a5761036a610e20565b8082018082111561036a5761036a610e20565b634e487b7160e01b600052604160045260246000fd5b634e487b7160e01b600052603260045260246000fd5b600081610e9b57610e9b610e20565b50600019019056fea2646970667358221220bd487bbd99357e7fbfdace4ebc2971c274dac86ab964c492b829f73991c72feb64736f6c63430008130033",
  "linkReferences": {},
  "deployedLinkReferences": {}
}