{
  "_format": "hh-sol-artifact-1",
  "contractName": "BankPersonal",
  "sourceName": "contracts/test/BankPersonal.sol",
  "abi": [
    {
      "inputs": [],
      "stateMutability": "payable",
      "type": "constructor"
    },
    {
      "anonymous": false,
      "inputs": [
        {
          "indexed": true,
          "internalType": "address",
          "name": "previousOwner",
          "type": "address"
        },
        {
          "indexed": true,
          "internalType": "address",
          "name": "newOwner",
          "type": "address"
        }
      ],
      "name": "OwnershipTransferred",
      "type": "event"
    },
    {
      "inputs": [],
      "name": "balance",
      "outputs": [
        {
          "internalType": "uint256",
          "name": "",
          "type": "uint256"
        }
      ],
      "stateMutability": "view",
      "type": "function"
    },
    {
      "inputs": [],
      "name": "deposit",
      "outputs": [],
      "stateMutability": "payable",
      "type": "function"
    },
    {
      "inputs": [],
      "name": "owner",
      "outputs": [
        {
          "internalType": "address",
          "name": "",
          "type": "address"
        }
      ],
      "stateMutability": "view",
      "type": "function"
    },
    {
      "inputs": [],
      "name": "renounceOwnership",
      "outputs": [],
      "stateMutability": "nonpayable",
      "type": "function"
    },
    {
      "inputs": [
        {
          "internalType": "address",
          "name": "newOwner",
          "type": "address"
        }
      ],
      "name": "transferOwnership",
      "outputs": [],
      "stateMutability": "nonpayable",
      "type": "function"
    },
    {
      "inputs": [
        {
          "internalType": "uint256",
          "name": "amount",
          "type": "uint256"
        }
      ],
      "name": "withdraw",
      "outputs": [],
      "stateMutability": "nonpayable",
      "type": "function"
    }
  ],
  "bytecode": "0x608060405261000d33610016565b34600155610066565b600080546001600160a01b038381166001600160a01b0319831681178455604051919092169283917f8be0079c531659141344cd1fd0a4f28419497f9722a3daafe3b4186f6b6457e09190a35050565b61042b806100756000396000f3fe6080604052600436106100655760003560e01c8063b69ef8a811610043578063b69ef8a8146100ce578063d0e30db0146100f2578063f2fde38b146100fa57600080fd5b80632e1a7d4d1461006a578063715018a61461008c5780638da5cb5b146100a1575b600080fd5b34801561007657600080fd5b5061008a610085366004610351565b61011a565b005b34801561009857600080fd5b5061008a6101c4565b3480156100ad57600080fd5b506000546040516001600160a01b0390911681526020015b60405180910390f35b3480156100da57600080fd5b506100e460015481565b6040519081526020016100c5565b61008a6101d8565b34801561010657600080fd5b5061008a61011536600461036a565b6101ff565b61012261028f565b6001548111156101795760405162461bcd60e51b815260206004820152601360248201527f746f6f206d756368207769746864726177616c0000000000000000000000000060448201526064015b60405180910390fd5b806001600082825461018b91906103c9565b90915550506040513390819083156108fc029084906000818181858888f193505050501580156101bf573d6000803e3d6000fd5b505050565b6101cc61028f565b6101d660006102e9565b565b6101e061028f565b600034905080600160008282546101f791906103e2565b909155505050565b61020761028f565b6001600160a01b0381166102835760405162461bcd60e51b815260206004820152602660248201527f4f776e61626c653a206e6577206f776e657220697320746865207a65726f206160448201527f64647265737300000000000000000000000000000000000000000000000000006064820152608401610170565b61028c816102e9565b50565b6000546001600160a01b031633146101d65760405162461bcd60e51b815260206004820181905260248201527f4f776e61626c653a2063616c6c6572206973206e6f7420746865206f776e65726044820152606401610170565b600080546001600160a01b038381167fffffffffffffffffffffffff0000000000000000000000000000000000000000831681178455604051919092169283917f8be0079c531659141344cd1fd0a4f28419497f9722a3daafe3b4186f6b6457e09190a35050565b60006020828403121561036357600080fd5b5035919050565b60006020828403121561037c57600080fd5b81356001600160a01b038116811461039357600080fd5b9392505050565b7f4e487b7100000000000000000000000000000000000000000000000000000000600052601160045260246000fd5b818103818111156103dc576103dc61039a565b92915050565b808201808211156103dc576103dc61039a56fea2646970667358221220fcef36048be08a13ca3331cc97fd6de6fccf18593f368269a54c31a0ba87c11564736f6c63430008130033",
  "linkReferences": {},
  "deployedLinkReferences": {}
}